:100000000C9424140C944E140C944E140C944E1412
:100010000C944E140C944E140C944E140C944E14D8
:100020000C944E140C947B510C944E140C944E145E
:100030000C944E140C94C2820C944E140C944E14D6
:100040000C944E140C94BD6F0C9431510C944E14BE
:100050000C94DF320C94D5320C944E140C944E1444
:100060000C944E140C944E140C944E140C944E1488
:100070000C944E140C944E140C944E140C944E1478
:100080000C944E140C944E140C944E14A050A55085
:10009000AA50B450E250E250BE50C650CE50D85094
:1000A000A38BA68B998B9D8BBD8BBD8BAA8BAE8BA7
:1000B000B48BB88BD5E194E0CBE011E2CBE0CBE0A0
:1000C000CBE0CBE0CBE0CBE0CBE0CBE0CBE0CBE0D8
:1000D000CBE0CBE0CBE0CBE0CBE0CBE0CBE0CBE0C8
:1000E000CBE0CBE0CBE0CBE0CBE0CBE0CBE0CBE0B8
:1000F0000BE2CBE0CBE0CBE0CBE0CBE0CBE0CBE066
:10010000CBE0E4E1CBE0CBE0CBE0CBE0CBE0CBE07D
:10011000CBE0CBE0CBE0CBE028E2C8E0084AD73B1D
:100120003BCE016E84BCBFFDC12F3D6C74319ABDC6
:1001300056833DDA3D00C77F11BED9E4BB4C3E91EA
:100140006BAAAABE000000803F05A84CCDB2D44ED9
:10015000B93836A9020C50B9918688083CA6AAAADB
:100160002ABE000000803F004E414E494E4954597E
:10017000494E46CDCCCC3D0AD7233C17B7D1387772
:10018000CC2B329595E6241FB14F0A000020410088
:1001900000C84200401C4620BCBE4CCA1B0E5AAED2
:1001A000C59D7400407A10F35A00A0724E180900E1
:1001B00010A5D4E80000E87648170000E40B5402CC
:1001C0000000CA9A3B000000E1F505000080969807
:1001D00000000040420F000000A086010000001057
:1001E0002700000000E80300000000640000000099
:1001F000000A00000000000100000000002C76D87A
:1002000088DC674F0823DFC1DFAE59E1B1B796E55F
:10021000E3E453C63AE651997696E8E6C28426EBC3
:10022000898C9B62ED407C6FFCEFBC9C9F40F2BAD6
:10023000A56FA5F490055A2AF75C936B6CF9676D6E
:10024000C11BFCE0E40D47FEF520E6B500D0ED90C3
:100250002E0300943577050080841E080000204E90
:100260000A000000C80C333333330F986E12831129
:1002700041EF8D2114893BE65516CFFEE6DB18D100
:10028000844B381BF77C1D901DA4BBE424203284D2
:10029000725E228100C9F124ECA1E53D27434F4D58
:1002A0004D554E49434154494F4E004452595255C1
:1002B0004E004552524F525300494E464F0045435F
:1002C000484F00536C6565702E2E2E005A205072D8
:1002D0006F62652050617374204265640A005A2081
:1002E00050726F62652050617374204265640048EB
:1002F0006F6D652058592066697273740A00486FE3
:100300006D652058592046697273740050726F628F
:10031000696E67204661696C65640A0050726F629D
:10032000696E67204661696C656400205A3A200056
:1003300020593A200042656420583A2000436C69F5
:10034000636B20746F20526573756D652E2E2E00C1
:100350004E6F204D6F76652E00456E642066696C89
:1003600065206C6973740A00426567696E2066696E
:100370006C65206C6973740A00286E6F2066696C66
:1003800065290043757272656E742066696C653A02
:1003900020005344207072696E74696E6720627920
:1003A000746520004E6F74205344207072696E741F
:1003B000696E670A0044656C6574696F6E206661DA
:1003C000696C65642C2046696C653A200046696C4E
:1003D000652064656C657465643A0025697920253B
:1003E0006964202569682025696D2025697300509E
:1003F00072696E742074696D653A2000496E766189
:100400006C69642050696E204D6F64650A006F66E8
:10041000660044454255473A004D31313220536819
:100420007574646F776E004D3131332053004A523A
:100430006F636B204F46462E004348414D42455264
:100440005F54454D5045524154555245004D4F540F
:10045000494F4E5F4D4F44455300544845524D411E
:100460004C5F50524F54454354494F4E00415554F0
:100470004F5245504F52545F53445F53544154556B
:10048000530050524F4D50545F535550504F52549B
:1004900000454D455247454E43595F5041525345E3
:1004A0005200434153455F4C494748545F425249CB
:1004B0004748544E45535300544F47474C455F4CB3
:1004C000494748545300534F4654574152455F5093
:1004D0004F574552004255494C445F5045524345A1
:1004E0004E54004C4556454C494E475F444154419B
:1004F000005A5F50524F4245004155544F4C4556AB
:10050000454C005052494E545F4A4F420050524FA2
:100510004752455353004155544F5245504F525442
:100520005F54454D5000564F4C554D45545249432C
:100530000042494E4152595F46494C455F54524131
:100540004E534645520053455249414C5F584F4E19
:100550005F584F4646004649524D574152455F4EFF
:10056000414D453A4D61726C696E20322E302E3508
:100570002E3320284769744875622920534F5552FD
:1005800043455F434F44455F55524C3A687474701D
:10059000733A2F2F6769746875622E636F6D2F4DE4
:1005A00061726C696E4669726D776172652F4D611B
:1005B000726C696E2050524F544F434F4C5F5645FA
:1005C0005253494F4E3A312E30204D414348494E07
:1005D000455F545950453A4A526F636B2045585411
:1005E00052554445525F434F554E543A312055556C
:1005F00049443A63656465326132662D3431613253
:100600002D343734382D396231322D633535633628
:10061000326633363766660A002F2F20004D31349C
:100620003520533C696E6465783E206F7574206F89
:10063000662072616E67652028302D31290A0041DD
:100640006363656C65726174696F6E3A2050003F38
:100650004A206F7574206F662072616E676520286E
:10066000302E303120746F20302E33290A002020A4
:100670004D61783A200020204D696E3A2000536F7A
:10068000667420656E6473746F70733A200046520E
:100690003A0020466C6F773A200050726F746563A1
:1006A0007465642050696E0A00496E76616C6964F5
:1006B0002065787472756465720A0020643A0020BF
:1006C000693A0020703A006469730043290A0061A6
:1006D000626C656420286D696E2074656D70200001
:1006E000436F6C6420657874727564657320617201
:1006F000652000454550524F4D204F4B0A003F5A50
:10070000206F7574206F662072616E676520280007
:100710003F59206F7574206F662072616E67652087
:10072000282D0020746F20003F58206F7574206FB3
:10073000662072616E676520282D0050726F6265B9
:10074000204F6666736574205800446F6E65207094
:1007500072696E74696E672066696C650A004D3750
:1007600037004D333100BE02B902B202AB029D0226
:100770004572726F722077726974696E6720746F48
:1007800020454550524F4D210A00627573793A2039
:1007900070617573656420666F7220696E70757420
:1007A0000A00627573793A2070617573656420661A
:1007B0006F7220757365720A00627573793A2070E2
:1007C000726F63657373696E670A002121204B495C
:1007D0004C4C2063617573656420627920746F6F7F
:1007E000206D75636820696E616374697665207435
:1007F000696D65202D2063757272656E7420636F5C
:100800006D6D616E643A200053544F505045442E34
:1008100020005072696E7465722073746F70706519
:10082000642064756520746F206572726F72732E18
:100830002046697820746865206572726F72206145
:100840006E6420757365204D39393920746F2072BC
:100850006573746172742E202854656D70657261C1
:10086000747572652069732072657365742E2053E8
:100870006574206974206166746572207265737492
:10088000617274696E67290A004E6F204368656360
:100890006B73756D2077697468206C696E65206E66
:1008A000756D6265722C204C617374204C696E65A5
:1008B0003A2000636865636B73756D206D69736DB5
:1008C000617463682C204C617374204C696E653AC6
:1008D00020004C696E65204E756D626572206973EB
:1008E000206E6F74204C617374204C696E65204ECD
:1008F000756D6265722B312C204C617374204C69CC
:100900006E653A20004D31313000534420726561EC
:1009100064206572726F720A00506C6561736520A5
:100920005265736574005052494E544552204841F7
:100930004C5445440025533A202553004B494C4C18
:1009400045442E20005072696E7465722068616C97
:100950007465642E206B696C6C28292063616C6C53
:100960006564210A006563686F3A004572726F72B0
:100970003A00204D393220580020496E76616C696A
:100980006420657874727564657220000F150E120C
:1009900016170E1303021A1401000E0C190DFF187E
:1009A0000C04000154656D706572617475726500A8
:1009B00046616E205370656564004E6F7A7A6C658F
:1009C000004D61696E005072656865617420504C1D
:1009D0004120456E64005072656865617420504C1A
:1009E000412042656400507265686561742041422F
:1009F0005320456E64005072656865617420414201
:100A0000532042656400436F6F6C646F776E0050D3
:100A10007265686561742041425300507265686573
:100A2000617420504C41004261627973746570209A
:100A30005A00466C6F770046696C2E204469612E1F
:100A4000004520696E206D6DC2B3004D33303320F8
:100A500055312045256920532569005049442041DE
:100A600075746F74756E65202A005049442D4420BA
:100A70002A005049442D49202A005049442D502035
:100A80002A0020082046616374002008204D617808
:100A9000002008204D696E004F6666004F6E0041D1
:100AA00075746F74656D70005072696E742050615A
:100AB000757365640020746F6F206C6F6E672065BE
:100AC0007874727573696F6E2070726576656E7476
:100AD00065640A0020636F6C6420657874727573B6
:100AE000696F6E2070726576656E7465640A0022A7
:100AF0000A00556E6B6E6F776E20636F6D6D616E61
:100B0000643A2022004A526F636B20526561647917
:100B10002E005072696E74696E672E2E2E000220B0
:100B200020506C616E6E65724275666665724279C0
:100B30007465733A20002046726565204D656D6FBF
:100B400072793A2000436F6D70696C65643A204198
:100B5000707220323620323032300A00204C6173FD
:100B60007420557064617465643A20323032302DDF
:100B700030332D3331207C20417574686F723A20F8
:100B8000286A726F636B2C204A524F434B2D4533BA
:100B9000290A00322E302E352E330A004D61726C38
:100BA000696E0020536F66747761726520526573B9
:100BB00065740A00205761746368646F672052652A
:100BC0007365740A002042726F776E206F7574200F
:100BD00052657365740A002045787465726E616CA5
:100BE0002052657365740A00506F77657255700AFC
:100BF000006175746F25632E6700473238585900BD
:100C00004D31303031006572726F722077726974C5
:100C1000696E6720746F2066696C650A00446F6EA8
:100C20006520736176696E672066696C652E0A00BF
:100C30004D323900456E6473746F70730025532014
:100C4000256320256320256320256300656E64737A
:100C5000746F7073206869743A200020627974653B
:100C6000733B20637263200053657474696E67730D
:100C70002053746F726564202800454550524F4DD3
:100C8000206461746173697A65206572726F722E77
:100C90000A002073746F7265642073657474696EE2
:100CA00067732072657472696576656420280045F3
:100CB00072723A20454550524F4D20435243002016
:100CC0002863616C63756C6174656429210A002076
:100CD000213D2000454550524F4D20435243206D49
:100CE00069736D61746368202D202873746F726559
:100CF000642920004572723A20454550524F4D20DC
:100D0000496E64657800496E6465783A20004572E2
:100D1000723A20454550524F4D2056657273696FA7
:100D20006E00204D61726C696E3D563736290A009F
:100D3000454550524F4D2076657273696F6E206D38
:100D400069736D617463682028454550524F4D3D6D
:100D5000001FE02010201020101020102020102054
:100D60001030300840048003001FE03FF03FF03FA8
:100D7000F01FE01FE03FF03FF03FF00FC00780039F
:100D8000003FFFF038007030FC3020FC102078105D
:100D90002030102C00D02E31D02F7BD02F7BD02EA6
:100DA00031D02C00D020301020781020FC1030FCE6
:100DB000303800703FFFF03FFFF038007031863070
:100DC0002387102787902F87D02F03D02030102023
:100DD00078102078102030102F03D02F87D027874D
:100DE000902387103186303800703FFFF01FFFF8E6
:100DF0001FFFF804104002082002082004104008D9
:100E000020801041001041000820800410400000A4
:100E1000001FFFF81FFFF8F80180000C4800800059
:100E20001243C38CD00271249267CC41249E4002AD
:100E30004924904012FBB3CEE00C2568753A25306A
:100E400032687500256875642025303268753A254A
:100E50003032687500202020202020200056547257
:100E60006176204D696E00566D696E00566D617831
:100E7000204500566D6178205A00566D61782059E2
:100E800000566D6178205800416D61782045004121
:100E90006D6178205A00416D6178205900416D6183
:100EA00078205800412D54726176656C00412D52B6
:100EB00065747261637400416363656C004A756EAA
:100EC0006374696F6E204465760050726F626520AE
:100ED00059204F66667365740050726F62652058C2
:100EE000204F66667365740048656174696E67209B
:100EF0004661696C65640048656174696E67206667
:100F000061696C656400202D20496E76616C6964AE
:100F1000206578747275646572206E756D62657295
:100F200020210A00544845524D414C2052554E4113
:100F300057415900546865726D616C2052756E613D
:100F4000776179004572723A204D415854454D50B1
:100F5000004D415854454D50207472696767657261
:100F60006564004572723A204D494E54454D50001B
:100F70004D494E54454D50207472696767657265DE
:100F800064004D383420582059205A204500202F25
:100F9000002042403A0020403A0070012C019001AC
:100FA0002701B0012201C0011D01F001180110024A
:100FB000130130020E016002090190020401C00217
:100FC000FF000003FA004003F5008003F000D003A7
:100FD000EB002004E6007004E100E004DC004005C2
:100FE000D700C005D2004006CD00D006C80080075B
:100FF000C3003008BE00F008B900C009B400B00A50
:10100000AF00B00BAA00D00CA500000EA000500F3E
:101010009B00C01096005012910000148C00C01567
:101020008700B0178200B0197D00D01B7800001E29
:10103000730040206E0090226900F0246400402775
:101040005F0090295A00E02B5500102E50002030F0
:101050004B0010324600E033410090353C00103721
:10106000370070383200A0392D00B03A2800A03B7C
:101070002300603C1E00103D1900903D1400103EFE
:101080000F00703E0A00C03E0500003F0000403FD8
:10109000FBFF803FF6FFC03FF1FF2053697A653ABE
:1010A000200043616E6E6F74206F70656E207375E3
:1010B00062646972200053442063617264206F6B24
:1010C0000A006F70656E526F6F74206661696C659F
:1010D000640A00766F6C756D652E696E69742066A2
:1010E00061696C65640A00534420696E6974206606
:1010F00061696C0A004D3234004D32332025730093
:1011000046696C652073656C65637465640A0046A6
:10111000696C65206F70656E65643A2000454E44C9
:1011200020535542524F5554494E450A00222070D3
:101130006F73002220706172656E743A22005355FD
:1011400042524F5554494E452043414C4C20746106
:10115000726765743A2200747279696E6720746FE1
:101160002063616C6C207375622D67636F6465200A
:1011700066696C6573207769746820746F6F206D81
:10118000616E79206C6576656C732E204D41582018
:101190006C6576656C2069733A310A005772697420
:1011A000696E6720746F2066696C653A2000646F11
:1011B000696E67004E6F77200050726F6265205A2B
:1011C000204F6666736574004573746570732F6D88
:1011D0006D005A73746570732F6D6D00597374656B
:1011E00070732F6D6D005873746570732F6D6D0083
:1011F000416476616E6365642053657474696E67DB
:101200007300496E6974004D34323800496E697458
:1012100069616C697A6520454550524F4D004669B9
:101220006C616D656E740053746570732F6D6D0025
:1012300050726F6265204F666673657473004A650D
:10124000726B00416363656C65726174696F6E00F7
:1012500056656C6F636974790053657420486F6DCF
:1012600065204F666673657473004C6F616420532C
:10127000657474696E677300526573746F7265206C
:1012800044656661756C74730053746F72652053A6
:10129000657474696E677300507265686561742067
:1012A00041425320436F6E660050726568656174F9
:1012B00020504C4120436F6E660020436F756E7462
:1012C00020583A00453100626564002C2073797320
:1012D00074656D2073746F7070656421204865615A
:1012E0007465725F49443A200024F4D43050C38EB0
:1012F00020C2A24017828B7011127A910D816CD995
:101300000AA861E108C7586607615143061E4B5D94
:1013100005C145A7041A411104093D9803713931EB
:10132000034036DB0265339102D4305402802E1D17
:1013300002632CEE01752AC501B028A00110278197
:10134000018F2564012B244B01E0223401AC211FC5
:10135000018D200D01801FFC00841EED00971DDF14
:1013600000B81CD200E61BC600201BBC00641AB2E9
:1013700000B219A8000A19A0006A189900D11791A3
:101380000040178B00B516840031167E00B3157926
:10139000003A157300C7146F0058146A00EE136604
:1013A000008813630025135E00C7125B006C1257A0
:1013B0000015125400C111510070114F0021114B42
:1013C00000D61049008D104700461044000210421C
:1013D00000C00F4000800F3E00420F3C00060F3B54
:1013E00000CB0E3800930E37005C0E3500270E340C
:1013F00000F30D3200C10D3100900D3000600D2E54
:1014000000320D2D00050D2C00D90C2B00AE0C293F
:1014100000850C29005C0C2700350C27000E0C26DB
:1014200000E80B2400C40B2400A00B23007D0B2339
:10143000005A0B2100390B2100180B2000F80A1F5D
:1014400000D90A1E00BB0A1E009D0A1D00800A1D4D
:1014500000630A1C00470A1B002C0A1B00110A1A11
:1014600000F7091A00DD091900C4091900AB0919B0
:1014700000920917007B091800630917004C091630
:101480000036091600200916000A091500F508158E
:1014900000E0081400CC081400B8081400A40814D4
:1014A00000900813007D0812006B08130058081202
:1014B0000046081200340811002308110012081118
:1014C0000001081100F0071000E0071000D007101D
:1014D00000C0071000B0070F00A107100091070E11
:1014E0000083070F0074070F0065070E0057070EF3
:1014F0000049070E003B070D002E070E0020070DC8
:101500000013070D0006070D00F9060C00ED060D8F
:1015100000E0060C00D4060C00C8060C00BC060C4B
:1015200000B0060C00A4060B0099060C008D060BFB
:101530000082060B0077060B006C060B0061060AA2
:101540000057060B004C060A0042060A0038060A3D
:10155000002E060A0024060A001A060A00100609D0
:101560000007060A00FD050900F4050900EB05095E
:1015700000E2050900D9050900D0050900C70509E1
:1015800000BE050900B5050800AD050800A5050960
:10159000009C050800940508008C050800840508D7
:1015A000007C050800740508006C05070065050847
:1015B000005D050700560508004E050700470507B2
:1015C000004005080038050700310507002A050717
:1015D00000230507001C050600160507000F050778
:1015E000000805060002050700FB040600F50407D5
:1015F00000EE040600E8040600E2040700DB04062F
:1016000000D5040600CF040600C9040600C3040682
:1016100000BD040600B7040600B1040500AC0406D2
:1016200000A6040600A00405009B0406009504051E
:1016300000900406008A0405008504050080040665
:10164000007A04050075040500700405006B0405AC
:101650000066040500610405005C040500570405EC
:1016600000520405004D040500480405004304052C
:10167000003E0404003A040500350405003004046B
:10168000002C04050027040400230405001E0404A4
:10169000001A04040016040500110404000D0404DB
:1016A00000090405000404040000040400FC030411
:1016B00000F8030400F4030400F0030400EC030446
:1016C00000E8030400E4030400E0030400DC030476
:1016D00000D8030400D4030400D0030400CC0304A6
:1016E00000C8030300C503030024F404D9201BC46D
:1016F0000C5C0E9804C4095F0265077101F405F9DA
:1017000000FB04B30048048700C103690058035577
:101710000003034500BE023A008402310053022A4E
:10172000002902250004022000E4011C00C8011960
:1017300000AF01170098011400840113007101101B
:10174000006101100051010E0043010D0036010B34
:10175000002B010B0020010B00150109000C0109F1
:101760000003010800FB000800F3000800EB00077D
:1017700000E4000600DE000600D8000600D20006E5
:1017800000CC000500C7000500C2000500BD000434
:1017900000B9000400B5000400B1000400AD00046D
:1017A00000A9000400A5000300A20003009F00049C
:1017B000009B0003009800030095000200930003C3
:1017C00000900003008D0002008B000300880002DF
:1017D000008600020084000300810002007F0002F6
:1017E000007D0002007B000200790002007700010A
:1017F0000076000200740002007200010071000215
:10180000006F0002006D0001006C0002006A000120
:101810000069000200670001006600010065000128
:10182000006400020062000100610001006000012C
:10183000005F0002005D0001005C0001005B000130
:10184000005A000100590001005800010057000132
:101850000056000100550001005400010053000033
:10186000005300010052000100510001005000012E
:10187000004F0001004E0000004E0001004D00012D
:10188000004C0001004B0000004B0001004A000129
:101890000049000100480000004800010047000125
:1018A0000046000000460001004500000045000120
:1018B000004400010043000000430001004200001A
:1018C0000042000100410000004100010040000111
:1018D000003F0000003F0001003E0000003E00010C
:1018E000003D0000003D0001003C0000003C000005
:1018F000003C0001003B0000003B0001003A0000FA
:10190000003A0001003900000039000100380000F1
:1019100000380000003800010037000000370001E7
:1019200000360000003600000036000100350000DF
:1019300000350000003500010034000000340000D4
:1019400000340001003300000033000000330001C8
:1019500000320000003200000032000100310000BF
:1019600000310000003100010030000000300000B4
:1019700000300001002F0000002F0000002F0000A9
:10198000002F0001002E0000002E0000002E00019C
:10199000002D0000002D0000002D0000002D000192
:1019A000002C0000002C0000002C0000002C000186
:1019B000002B0000002B0000002B0000002B00017A
:1019C000002A0000002A0000002A0000002A00016E
:1019D0000029000000290000002900000029000063
:1019E0000029000100280000002800000028000055
:1019F0000028000000280001002700000027000048
:101A0000002700000027000000270001002600003A
:101A1000002600000026000000260000002600012D
:101A20000025000000250000002500000025000022
:101A30000025000000250001002400000024000013
:101A40000024000000240000002400010023000006
:101A500000230000002300000023000000230000FA
:101A600000230000002300010022000000220000EB
:101A700000220000002200000022000000220001DD
:101A800000210000002100000021000000210000D2
:101A900000210000002100000021000100200000C2
:101AA00000200000002000000020000000200000B6
:101AB000002000000020000000200001001F0000A6
:101AC000001F0000001F0000001F0000001F00009A
:101AD000001F0000001F0001001E0000001E00008B
:101AE000001E0000001E000000043700001E290038
:101AF00000511B00005810000010090000CC040029
:101B00000078020000410100005072696E74206686
:101B1000726F6D204D65646961004D6F766520259B
:101B2000736D6D004D6F766520302E316D6D004DFB
:101B30006F766520316D6D004D6F76652031306DAB
:101B40006D004D6F7665204178697300486F74654C
:101B50006E6420746F6F20636F6C640045787472DC
:101B600075646572004D6F7665205A004D6F76651D
:101B70002059004D6F766520580000002100240098
:101B800027002A0000002200250028002B0000006A
:101B900020002300260029000202020202020202A3
:101BA00004040404040404040303030303030303FD
:101BB000010101010101010101020408102040801E
:101BC0000102040810204080010204081020408017
:101BD0008040201008040201000000010200090AF0
:101BE00000000000040308070000000000000000DF
:101BF00000000000000000007C3C3E5E2B3D3F2FBB
:101C00005B5D3B2C2A225C0050617573652050722D
:101C1000696E74004D6564696120496E7365727404
:101C20006564005072696E742041626F72746564FD
:101C3000004D323500656E7175657565696E67209A
:101C400022006F6B00526573656E643A2000205766
:101C50003A00452025530042656420436F6F6C694C
:101C60006E672E2E2E004265642048656174696E91
:101C7000672E2E2E0023646566696E6520444546F6
:101C800041554C545F004B6420004B6920004B7061
:101C90002000504944204175746F74756E6520664C
:101CA000696E697368656421205075742074686575
:101CB000206C617374204B702C204B6920616E6422
:101CC000204B6420636F6E7374616E747320667250
:101CD0006F6D2062656C6F7720696E746F20436F43
:101CE0006E66696775726174696F6E2E680A00505E
:101CF0004944204175746F74756E65206661696C26
:101D00006564212074696D656F75740A000A20434B
:101D10006C617373696320504944200A00204B644E
:101D20003A2000204B693A2000204B703A200020D6
:101D300054753A2000204B753A2000206D61783AA6
:101D40002000206D696E3A200020643A2000206255
:101D50006961733A2000504944204175746F74756D
:101D60006E652073746172740A0050494420417595
:101D7000746F74756E65206661696C6564212054AA
:101D8000656D706572617475726520746F6F20681F
:101D90006967680A00504944204175746F74756E14
:101DA00065206661696C6564212042616420657804
:101DB000747275646572206E756D6265720A003F9B
:101DC0000043616E63656C004D6F74696F6E005304
:101DD00074617274205072696E740043616E6E6F2C
:101DE0007420656E746572207375626469723A203E
:101DF00000022E2E000152656672657368004D3830
:101E0000340044697361626C652053746570706559
:101E1000727300473238004175746F20486F6D65EA
:101E2000006F70656E206661696C65642C20466980
:101E30006C653A200020453A00205A3A0020593A71
:101E400000436F6E66696775726174696F6E003109
:101E50003235004245443A4550434F5320313030EB
:101E60004B0052756E617761792057617463683AEF
:101E7000204F4E004D61782054656D70003237352B
:101E8000004D696E2054656D700045313A20455013
:101E9000434F53203130304B005053550047656E4F
:101EA000657269630050726F746F636F6C00312EDE
:101EB00030004261756400323530303030004D659D
:101EC0006C7A692028437265616C697479290045D0
:101ED000787472756465727300687474703A2F2F29
:101EE0006D61726C696E66772E6F7267004A526F11
:101EF000636B00323032302D30332D333100322ECF
:101F0000302E352E3300546865726D6973746F72AC
:101F10007300426F61726420496E666F005072698F
:101F20006E74657220496E666F004261636B005388
:101F3000746F70004D323100417474616368204DDC
:101F400065646961004D32320052656C656173658C
:101F5000204D656469610041626F7574205072693B
:101F60006E74657200526573756D65205072696E8E
:101F700074004D656469612052656C6561736564C8
:101F80000054756E650053746F70205072696E74E2
:101F900000496E666F2053637265656E004572720C
:101FA0003A207574663820666F6E74206E6F7420E8
:101FB000696E697469616C697A65642E00000C0D44
:101FC00000FE07022603BC017FFE08FE08FE05088E
:101FD0000806000040F0C8888898781005080806B0
:101FE0000000C0F88888888888F805050506000183
:101FF0002030F830200508080600002070F8202066
:102000002020E00509090600FF2070A8A8B88888EC
:102010007020050606060001E08CEA8C8A0A050994
:10202000090600FFF8A88888888888A8F8050A0AA1
:102030000600FE205050505088A8A8887003030363
:1020400006000340A040FFFFFFFFFFFFFFFFFFFF71
:10205000FFFFFFFFFFFFFFFFFFFFFFFF0000000686
:1020600005FF010707060200808080808000800352
:102070000303060105A0A0A005060606000050F80F
:102080005050F8500509090600FF2070A8A07028DC
:10209000A87020050707060000C8C81020409898BF
:1020A00005070706000040A0A040A89068010303B0
:1020B0000602058080800309090601FF2040408058
:1020C00080804040200309090601FF804040202015
:1020D0002040408005070706000020A8702070A857
:1020E000200505050600012020F820200203030634
:1020F00001FFC04080050101060003F8020202064C
:102100000100C0C00507070600000810102040406D
:1021100080050707060000708898A8C88870030724
:102120000706010040C040404040E00507070600A8
:1021300000708808102040F8050707060000F8081E
:10214000103008887005070706000010305090F81E
:102150001010050707060000F880F00808887005D1
:102160000707060000304080F088887005070706E2
:102170000000F80810102020200507070600007056
:10218000888870888870050707060000708888783E
:10219000081060020505060100C0C000C0C00206AC
:1021A000060601FFC0C000C040800305050601010E
:1021B0002040804020050303060002F800F80305D4
:1021C00005060101804020408005070706000070D9
:1021D0008810202000200507070600007088B8A896
:1021E000B88070050707060000708888F88888881E
:1021F000050707060000F04848704848F005070743
:10220000060000708880808088700507070600003F
:10221000F04848484848F0050707060000F8808065
:10222000F08080F8050707060000F88080F08080C5
:102230008005070706000070888080988870050771
:1022400007060000888888F8888888030707060141
:1022500000E04040404040E005070706000038101D
:1022600010101090600507070600008890A0C0A01D
:102270009088050707060000808080808080F80530
:10228000070706000088D8A88888888805070706F9
:1022900000008888C8A8988888050707060000708D
:1022A000888888888870050707060000F08888F00D
:1022B00080808005070706000070888888A89068DD
:1022C000050707060000F08888F0A090880507073A
:1022D00006000070888070088870050707060000F7
:1022E000F820202020202005070706000088888885
:1022F00088888870050707060000888888885050FD
:102300002005070706000088888888A8A8500507C8
:1023100007060000888850205088880507070600B7
:102320000088885020202020050707060000F808B4
:1023300010204080F80309090601FFE080808080BA
:10234000808080E0050707060000804040201010D4
:10235000080309090601FFE020202020202020E0BA
:102360000503030600052050880501010600FEF85C
:1023700003030306010580402005050506000070E3
:10238000087888780507070600008080F08888882C
:10239000F0050505060000708080887005070706B7
:1023A0000000080878888888780505050600007010
:1023B00088F08070050707060000304840E0404084
:1023C000400507070600FE708888887808700507B2
:1023D000070600008080F0888888880307070601C8
:1023E000004000C0404040E00409090601FE100022
:1023F00030101010109060050707060000808088DC
:1024000090E09088030707060100C040404040402C
:10241000E0050505060000D0A8A8A8A80505050642
:102420000000B0C888888805050506000070888807
:1024300088700507070600FEF0888888F080800510
:1024400007070600FE7888888878080805050506CD
:102450000000B0C880808005050506000078807007
:1024600008F00507070600002020F82020201805A6
:10247000050506000088888898680505050600009F
:1024800088888850200505050600008888A8A8507F
:10249000050505060000885020508805070706003E
:1024A000FE88888850204080050505060000F81049
:1024B0002040F80309090601FF20404040804040C9
:1024C00040200109090602FF808080808080808092
:1024D000800309090601FF804040402040404080C1
:1024E00005030306000248A890FF0000000000005A
:1024F00000000000000000006B4300006B43000080
:102500007A430000A0410000A04100008040020288
:10251000040000A0400000A04000000040FFFFFFBA
:102520005761726E696E673A20486F6D696E6720F9
:1025300042756D702044697669736F72203C20315A
:102540000A0020520048617264636F64656420442D
:10255000656661756C742053657474696E67732069
:102560004C6F616465640A003B20003A0A00202039
:102570004D3835312058005A2D50726F6265204F0A
:1025800066667365740020490020204D3330312089
:1025900050005049442073657474696E67733A0043
:1025A00020460020480020204D3134352053004D76
:1025B0006174657269616C20686561747570207002
:1025C0006172616D65746572733A0020204D32301E
:1025D00036205800486F6D65206F66667365743AE3
:1025E00000204A0020204D323035204200416476E0
:1025F000616E6365643A20423C6D696E5F73656726
:102600006D656E745F74696D655F75733E20533CD4
:102610006D696E5F66656564726174653E20543CE9
:102620006D696E5F74726176656C5F666565647214
:102630006174653E204A3C6A756E635F6465763EF0
:102640000020540020204D3230342050004163637C
:10265000656C65726174696F6E2028756E6974733C
:102660002F7332293A20503C7072696E745F616337
:1026700063656C3E20523C726574726163745F6185
:102680006363656C3E20543C74726176656C5F6177
:102690006363656C3E0020204D3230312058004D80
:1026A0006178696D756D20416363656C65726174F5
:1026B000696F6E2028756E6974732F7332293A0022
:1026C00020204D3230332058004D6178696D756D92
:1026D000206665656472617465732028756E69741F
:1026E000732F73293A0053746570732070657220DC
:1026F000756E69743A0020204D3230302044300A23
:102700000020204D32303020440020446973616243
:102710006C65640A0046696C616D656E7420736552
:102720007474696E67733A0020204D313439204348
:10273000203B20556E69747320696E2043656C736D
:102740006975730A0020286D6D29002020473231F9
:10275000202020203B20556E69747320696E206D07
:102760006D00486F6D696E67204661696C65640035
:102770006F70656E00545249474745524544007A90
:102780005F6D696E00795F6D696E00785F6D696E6F
:10279000005265706F7274696E6720656E64737441
:1027A0006F70207374617475730A000000FA43003F
:1027B00000FA430000A0400000C8410000A0420011
:1027C00000A0420000C8430000BA42F4010000F437
:1027D0000100006400000088130000486F6D652050
:1027E000257325732573204669727374004F6666DE
:1027F00073657473204170706C6965640045727212
:102800003A20546F6F206661722100546F6F20660A
:1028100061722066726F6D207265666572656E63A7
:102820006520706F696E740A004361703A00473228
:102830002F47332062616420706172616D65746539
:1028400072730A004AEB5AE811241FBECFEFD0E49E
:10285000DEBFCDBF12E0A0E0B1E0ECEAF7EF01E0AF
:102860000BBF02C007900D92A632B107D9F722E143
:10287000A6E2B2E001C01D92AD3EB207E1F714E15D
:10288000C3E2D4E104C02197FE010E941AF8C232CB
:10289000D107C9F70E94C4E20C94C9FB0C94000054
:1028A0002F923F924F925F926F927F928F929F9260
:1028B000AF92BF92CF92DF92EF92FF920F931F934E
:1028C000CF93DF93CDB7DEB7C354D1090FB6F894D9
:1028D000DEBF0FBECDBF23968FAF2397209130026E
:1028E00021962FAF219781E0809330028091B6121C
:1028F0008D3409F43DC4843511F40C949E2487343E
:1029000011F00C94B9242091B4123091B5122531F4
:10291000310511F40C94BB247CF4243031053CF4D3
:10292000223031050CF008C137FF2FC01DC4243000
:10293000310509F40FC118C42A35310509F49FC3C4
:102940004CF42C31310509F443C12E31310509F421
:102950004FC10AC42B35310509F495C32C35310517
:1029600009F002C490E6292E91E0392E20E5E22EEE
:1029700022E1F22EA3EDBEE0BDABACAB33EEC32E35
:102980003EE0D32E00E010E0BFC38091EA09813021
:1029900011F00C94BB240E94072A8DE592E10E945D
:1029A0007BC98091F00783FD88C02091DF0E3091B4
:1029B000E00E4091E10E5091E20E6091691270912B
:1029C0006A1280916B1290916C120E9435F18823EB
:1029D00009F473C080913D0381111EC020E030E0F6
:1029E000A9016091C00E7091C10E8091C20E9091AC
:1029F000C30E0E942CF80E9498F920910B0130918F
:102A00000C016217730744F40E94CB2B84ED9AE00B
:102A10000E94A52B11E001C010E02091DF0E309143
:102A2000E00E4091E10E5091E20E609169127091BA
:102A30006A1280916B1290916C120E942BF86B01BC
:102A40007C0120E030E0A9010E948CFA87FF04C0DD
:102A5000F7FAF094F7F8F09420910701309108010B
:102A60004091090150910A01C701B6010E949BF1F2
:102A700020E030E048E453E40E948CFA18163CF45D
:102A80000E94CB2B85EB9AE00E94A52B02C011235C
:102A9000A1F08091691290916A12A0916B12B0918D
:102AA0006C128093DF0E9093E00EA093E10EB09332
:102AB000E20E89E692E10E94EEC52AE037ED43E29C
:102AC0005CE36091410170914201809143019091DA
:102AD00044010E949BF16B017C0160913F01709168
:102AE0004001072E000C880B990B0E943CF19B01C2
:102AF000AC01C701B6010E949BF169837A838B8385
:102B00009C83C12CD12C76018E010F5F1F4F29E6CB
:102B100032E145E652E161E672E18DE592E10E9423
:102B2000164F80E1EDE5F2E1A3EDBEE001900D92DC
:102B30008A95E1F70C94BB248091EA09813011F069
:102B40000C94BB242230310509F080E00E9407D2AA
:102B50000C94BB2480E50E94FA29882329F00E9466
:102B60003A296B017C0103C0C12CD12C760183E58D
:102B70000E94FA29882361F00E947E2920E030E03B
:102B80004AE754E40E949BF10E949FF96B017C018B
:102B90000E9455C380919C0B811105C060E083ECBD
:102BA00092E00E944FA00E942551C60ED71EE81E3B
:102BB000F91E0E942551DC01CB018C199D09AE093B
:102BC000BF09B7FD02C00C94BB240E946A2EF1CF4E
:102BD00080915C128770873011F00C94C82460E0FB
:102BE0008FE40E94CC2A81110C94BB240C94C8243D
:102BF000C090D30ED090D40EE090D50EF090D60EAB
:102C00008090EC0A9090ED0AA090EE0AB090EF0A46
:102C100088E50E94FA29811107C0A5019401C70126
:102C2000B6010E942CF802C00E947E294B015C0173
:102C30006C8F7D8F8E8F9F8F4090D70E5090D80EC7
:102C40006090D90E7090DA0EC090F00AD090F10A20
:102C5000E090F20AF090F30A89E50E94FA298111C6
:102C600007C0A7019601C301B2010E942CF802C05F
:102C70000E947E292B013C0168A379A38AA39BA310
:102C8000BE01605E7F4FCE014C960E94EBAC882364
:102C900011F40C94BB240E9435CA61E085E40E94C3
:102CA000CC2A382ECE0101962CE0DC011D922A950B
:102CB000E9F789829A82AB82BC824D825E826F8202
:102CC0007886BE016B5F7F4F0E94EBAC882309F4CE
:102CD0006DC12091EC0A3091ED0A4091EE0A5091BD
:102CE000EF0AC501B4010E942BF868AF79AF8AAF33
:102CF0009BAF69837A838B839C832091F00A309108
:102D0000F10A4091F20A5091F30AC301B2010E9404
:102D10002BF89B01AC016D837E838F839887E090B5
:102D2000DB0EF090DC0E0091DD0E1091DE0EE986D8
:102D3000FA860B871C878091410190914201A091F6
:102D40004301B09144018CAB9DABAEABBFAB85E50D
:102D500095E5A5E0B3E48093410190934201A093EF
:102D60004301B09344011CA21DA21EA21FA2DE01BA
:102D700094966D0168AD79AD8AAD9BAD0E94C2CAD3
:102D800081E00E94F08981110C94F5288091560809
:102D900082FF13C02091F40A3091F50A4091F60A9F
:102DA0005091F70A60E070E080E090EC0E942BF810
:102DB00068AF79AF8AAF9BAF08C080E090E0A0E237
:102DC000B1EC88AF99AFAAAFBBAFC090F40AD09076
:102DD000F50AE090F60AF090F70A20E030E0A90149
:102DE000C701B6010E9435F187FF0BC0A70196010C
:102DF00060E070E080E791E40E942BF86B017C01B9
:102E000006C0C12CD12C60E7E62E61E4F62EA701A6
:102E100096016091DB0E7091DC0E8091DD0E909139
:102E2000DE0E0E948CFA1816ECF5C8AAD9AAEAAAF6
:102E3000FBAAC12CD12C50E8E52E50E4F52ECCA6EF
:102E4000DDA6EEA6FFA6BE01645D7F4FCE01C09653
:102E50000E9454CA1091E9091092E90982E00E9487
:102E600081CB0E9409CC12FF1DC0C8A6D9A6EAA634
:102E7000FBA620E030E040EA50E46091DB0E709168
:102E8000DC0E8091DD0E9091DE0E0E942CF86CA37A
:102E90007DA38EA39FA3BE01685D7F4FCE01849664
:102EA0000E9454CA88AD99ADAAADBBAD88A799A7B9
:102EB000AAA7BBA780E090E0A0E0B0E48CA39DA30C
:102EC000AEA3BFA3BE016C5D7F4FCE0188960E946A
:102ED00054CA1091E9091092E90982E00E9481CB5D
:102EE0000E9409CC12FF1EC0C090DB0ED090DC0EF9
:102EF000E090DD0EF090DE0E2091F40A3091F50A9C
:102F00004091F60A5091F70A60E070E080E090E4AA
:102F10000E942BF89B01AC01C701B6010E948CFAFC
:102F2000181634F4C12CD12C40ECE42E4FE7F42ECB
:102F30002091F40A3091F50A4091F60A5091F70A6F
:102F4000C701B6010E942CF87B018C019B01AC01EA
:102F50000E941EFB811108C091E0391205C00E9439
:102F6000E8AC81110C94F5288CA99DA9AEA9BFA944
:102F70008093410190934201A0934301B093440197
:102F80009701A801B701C8010E941EFB882391F098
:102F90000E94E8AC60E08CE193E00E944FA00E94A8
:102FA000C72B8CE093E00E94A52B04C0E12CF12CF0
:102FB00000EC1FE79701A801B701C8010E941EFBA2
:102FC000811157C020E030E0A901C501B4010E9481
:102FD00035F187FF05C067E177EB81E598EB04C029
:102FE00067E177EB81E598E3A50194010E942CF855
:102FF000AB01BC0185E393E00E94F72D20E030E0B7
:10300000A901C301B2010E9435F187FF05C067E144
:1030100077EB81E598EB04C067E177EB81E598E316
:10302000A30192010E942CF8AB01BC0180E393E064
:103030000E94F72D20E030E0A901B701C8010E94ED
:1030400035F187FF05C067E177EB81E598EB04C0B8
:1030500067E177EB81E598E39701A8010E942CF8DE
:10306000AB01BC018BE293E00E94F72D8AE00E9445
:103070009E2B0E941CCA0E944BCC0C94BB24109225
:103080002F020C94BB248FE080932F020C94BB245E
:103090000E947E292B013C01133049F0D6012D916D
:1030A0003D914D915C910E942BF82B013C01ECA9C4
:1030B000FDA92081318142815381C301B2010E9467
:1030C0002BF84B015C012DEB37E346E855EB0E94F2
:1030D0008CFA87FD21C02DEB37E346E855E3C501A7
:1030E000B4010E9435F11816BCF01F5FF4E0EF0E3A
:1030F000F11C2CA93DA92C5F3F4F3DAB2CAB34E01C
:10310000C30ED11C143031F1F10181911F010E94D5
:10311000FA29882351F3BCCF133051F44092DF0ECB
:103120005092E00E6092E10E7092E20E01E0DDCF6F
:10313000A5019401D7016D917D918D919C910E9483
:103140002CF8F7016083718382839383812F0E941F
:1031500032C8CBCF002321F08FED9EE00E94EEC558
:103160000E944BCC0C94BB240E94AE4F0C94BB2409
:103170008091B4129091B5128337910509F490C6ED
:103180000CF0DFC08B34910509F456C40CF079C003
:103190008831910509F45EC20CF049C08231910575
:1031A00009F4A4C56CF497FF02C00C949B248230F0
:1031B00091050CF4B8C1419709F412C20C949B24F8
:1031C0008531910509F429C22CF5449711F00C942E
:1031D0009B2488E693E00E94A52B88E49FE00E9450
:1031E000F2978BE1E8E4FFE0DE01119601900D9289
:1031F0008A95E1F760E070E0CE0101960E94127BB3
:10320000CE0101960E94E69989E593E00E94A52BE4
:103210000C94BB248631910509F403C2479711F041
:103220000C949B24E091B212F091B31207C28D313D
:10323000910509F495C2B4F48A31910509F42FC2BD
:103240000CF414C28B31910509F437C24C9711F07C
:103250000C949B248091B2129091B3120E94A77992
:103260000C94BB248F31910509F425C30CF47FC263
:103270008032910509F4DCC28A9709F4C6C30C9424
:103280009B248936910509F40FC464F583359105B3
:1032900009F425C5BCF48D34910509F4E3C30CF49D
:1032A000CEC38135910509F406C58235910511F02B
:1032B0000C949B2480912F028F7D806180932F023C
:1032C0000C94BB248535910509F43DC50CF40EC55D
:1032D0008C35910509F45AC58836910509F4C5C3A2
:1032E0000C949B248E36910509F418C49CF48B36FB
:1032F000910509F40BC40CF4EDC38C36910509F467
:1033000062C48D36910511F00C949B240E9416AA7C
:103310000C94BB248037910509F45AC40CF40FC4F3
:103320008137910509F45EC48237910511F00C9440
:103330009B240E9462B48CE79FE00E945A820C9406
:10334000BB248232A1E09A0711F40C94E2220CF023
:1033500071C0883C910509F4BBC6D4F58937910545
:1033600009F454C6ECF48637910509F412C634F416
:103370008537910509F4FDC50C949B248737910589
:1033800009F441C68837910511F00C949B2481E023
:1033900080935408809353080E94FACC0C94BB2469
:1033A0008139910509F439C634F48C38910509F452
:1033B0003BC40C949B248B39910509F456C48E3B75
:1033C000910511F00C949B240E9441A80C94BB24FD
:1033D0008E3C910509F44AC7ACF48B3C910509F485
:1033E000E7C634F4893C910509F4BCC60C949B24CF
:1033F0008C3C910509F4FBC68D3C910509F428C766
:103400000C949B248C3D910511F40C941A2234F4F5
:10341000833D910509F448C70C949B248D3D91058B
:1034200011F40C944122823E910511F40C949722E0
:103430000C949B24843FE1E09E0711F40C941B2420
:10344000DCF5803921E0920711F40C940D24ECF4A2
:103450008D32A1E09A0711F40C944A233CF48C328B
:10346000914011F40C9435230C949B248E32F1E09E
:103470009F0711F40C94C9238F32914011F00C94E2
:103480009B240E943FA40C94BB24823931E0930713
:1034900011F40C94162414F40C9410248A39B1E01D
:1034A0009B0709F49CC38C3A914011F00C949B2427
:1034B0000E9438D70C94BB248C30F2E09F0711F4A3
:1034C0000C943E24B4F4863F31E0930711F40C943D
:1034D000212414F40C941E24873FB1E09B0711F4BF
:1034E0000C942424883F914011F40C942D240C94C6
:1034F0009B24803AF3E09F0709F4CFC13CF4833565
:10350000934011F40C9446240C949B24873EA3E032
:103510009A0711F40C947724893E934011F40C948B
:1035200085240C949B2480E50E94FA29882329F0A5
:103530000E943A296B017C0103C0C12CD12C760179
:1035400083E50E94FA29882361F00E947E2920E009
:1035500030E04AE754E40E949BF10E949FF96B011E
:103560007C010E9455C38091B2129091B3120097D2
:1035700021F061E00E94C9A005C060E08DE393E006
:103580000E944FA01091300283E08093300281E0CE
:103590008093F20BC114D104E104F10431F00E94D4
:1035A0002551C60ED71EE81EF91E8091F20B882306
:1035B00011F40C94EA26C114D104E104F10411F4CD
:1035C0000C94E6260E942551DC01CB018C199D0943
:1035D000AE09BF09B7FF02C00C94E6260C94EA2698
:1035E0008091AE1284FF02C00C94F1268091B0123B
:1035F00087FF02C00C94F1268091B112837011F004
:103600000C94F12660E080E593E00E944FA05E9864
:103610005E9815985E980C94BB240E9423780C94B5
:10362000BB240E94707780910511877F80930511DC
:103630000C94BB24803209F4108231968081811170
:10364000F9CF60E08091B2129091B3120E94F479A8
:103650000C94BB240E94412B882321F00E947F7789
:103660000E94DD9A0E94744F0C94BB248091051136
:1036700082FF03C08B7F8093051180910F038130FF
:1036800089F782E080930F030E9425516093FE0921
:103690007093FF098093000A9093010AE3CF809111
:1036A000051183FD02C00C94BB2483E50E94FA2916
:1036B00081110C9403270C94BB2483E40E94B1294C
:1036C000882319F183E893E00E94A52B8091F20EE4
:1036D000882391F0BE016F5F7F4F8FEE9EE00E94C6
:1036E000B9968E010F5F1F4FF80181918F018823DA
:1036F00039F00E949E2BF8CF89E793E00E94A52B1A
:103700008AE00E949E2B0C94BB248091051182FFBD
:1037100021C082E993E00E94A52B60910111709174
:10372000021180910311909104114AE00E94A52C8E
:103730008FE20E949E2B6091FD107091FE1080918F
:10374000FF10909100114AE00E94A52C0E94432E88
:103750000C94BB2484EA93E00E94A52B0C94BB2418
:10376000809105118E7F809305110C94BB2480916C
:10377000051183FD02C00C94BB240E94974F8091D9
:10378000051183FD02C00C94BB244091B2125091EC
:10379000B312BE01645E7F4F80E00E94B3B78C011C
:1037A000009711F40C94BB246C8D7D8D19821C82C2
:1037B00022E0AC01CE0101960E94EC99811102C079
:1037C000F12C14C0CE0101960E9421B78823C1F3C9
:1037D00061E0CE0101960E946196009789F325EE83
:1037E000DC012C931C820E94E991F82ECE010196F7
:1037F0000E94E699B801FF2089F08DEC93E00E94C9
:10380000B42B8AE00E949E2B10920111109202119B
:1038100010920311109204110C94BB2485EB93E0D9
:103820000E94B42B8DE29CE00E94A52B0C94BB243B
:103830008091051182FD0E9455C38091051183FD81
:1038400002C00C94BB2460E080E50E94CC2A182FB3
:10385000682F8091B2129091B3120E94F47983E59F
:103860000E94FA29882381F00E944A29AB01BC01F9
:10387000409301115093021160930311709304114E
:103880008FEE9EE00E94DC930E947F7711110C94D2
:10389000BB240E94DD9A0C94BB242091B21230917B
:1038A000B31290910511926090930511C9010E9485
:1038B000A7790C94BB240E947F5C7B018C0120E8DB
:1038C00031E541E050E00E948BF7C9016DE671E0FF
:1038D0000E94D3F74B015C01C801B70120E13EE033
:1038E00040E050E00E948BF7CA01B90128E130E0C6
:1038F00040E050E00E948BF7762E672EC62ED72E22
:103900008CE3282E312C412C512CC801B701A20187
:1039100091010E948BF7F62EE72ECA01B901A20190
:1039200091010E948BF7CB018E010F5F1F4F811415
:10393000910499F0EF92FF927F936F936F927F9231
:10394000BF92AF929F928F928BED93E09F938F9354
:103950001F930F930E94CDF013C0A114B104B1F0D6
:10396000EF92FF927F936F936F927F92BF92AF928D
:103970008FED93E09F938F931F930F930E94CDF051
:103980000FB6F894DEBF0FBECDBF30C0CD2879F0A2
:10399000EF92FF927F936F936F927F9283EE93E00B
:1039A0009F938F931F930F930E94CDF0E9CF892BA4
:1039B00069F0EF92FF927F936F9387EE93E09F936E
:1039C0008F931F930F930E94CDF0DACFEF92FF9267
:1039D0008BEE93E09F938F931F930F930E94CDF0F4
:1039E0000F900F900F900F900F900F9060E0C80114
:1039F0000E94C9A00E94CB2BB8018FEE93E00E94D9
:103A0000B42B8AE00E949E2BB6C76FEF7FEF80E554
:103A10000E94B92A8C0197FDAEC7E82E60E089E4C8
:103A20000E94CC2A81110C941427802F0E9478E2E6
:103A300081119AC50C9414270E94DD9A9CC780912D
:103A40000F03813009F097C782E080930F030E9433
:103A500025516093FE097093FF098093000A9093AB
:103A6000010A89C70E94139B86C78091F00783FDD6
:103A700082C70E94592D87FD7EC783E50E94FA29DF
:103A8000882379F00E947E290E9498F9CB010E9438
:103A9000BD6D0E94F56F811104C00E94139B0E94AE
:103AA000744F0E94948A67C70E94592D182F87FD72
:103AB0000AC082E49CE10E94A52B812F0E94CD6D5B
:103AC0008AE00E949E2B2196EFAD2197E093300271
:103AD0000C94072980E50E94BC4F81114CC781E4FA
:103AE0000E94B129882321F060912C0370E002C06C
:103AF0006FEF70E083E50E940BD78F3F910519F0BF
:103B000010F08FEF90E080932C0335C780E50E9482
:103B1000BC4F811130C710922C032DC78EE40E9438
:103B2000FA29882309F427C70E944A296093990C2F
:103B300070939A0C80939B0C90939C0C1CC783E50C
:103B40000E94B129882329F083E50E94BC4F80930D
:103B5000F0070E94CB2B82E194E00E94A52B80917C
:103B6000F007882369F106E6E02E07E0F02E00E07A
:103B700010E020E08091F00790E0A0E0B0E0002E9F
:103B800004C0B695A795979587950A94D2F780FFBC
:103B90000EC0DD24D394D20E222319F08CE20E94B1
:103BA0009E2BF701859194910E94A52B2D2D0F5FDF
:103BB0001F4FF2E0EF0EF11C05301105D9F6A0CD34
:103BC0008EE094E09BCD1092F20B10921801D3C6B8
:103BD00041E060E070E089E194E00E94CF2B0E9418
:103BE000192BC9C683E50E94FA29882371F00E9427
:103BF0005A29282F30E02D3331051CF48093000121
:103C0000BAC68CE380930001B6C60E94CB2B4091CC
:103C1000000150E060E070E087E294E00E94122D25
:103C20008AE00E949E2BA7C68091F00783FDA3C661
:103C300083E50E94FA29882379F00E947E290E9458
:103C400098F96337710514F063E770E07093480AE0
:103C50006093470A0E946A6B0E94F56F81118BC6C0
:103C60000E94139B0E94744F86C683E50E94FA2926
:103C7000882309F480C60E945A29182F90E0CD9716
:103C80000CF01CE310932A020E9425516B017C0169
:103C9000212F30E0A8EEB3E00E94B8F7C60ED71E81
:103CA000E81EF91EC0922602D0922702E092280256
:103CB000F092290260C60E9408700E94139B0E9425
:103CC00065C30E943E2B68EE73E080E090E00E94A6
:103CD000E12A60E08EE294E00E944FA04CC6809101
:103CE0002F028F7E806280932F0245C683E50E945B
:103CF000FA29882399F00E947E2920E030E04AE7E3
:103D000054E40E949BF10E949FF96093010170931B
:103D1000020180930301909304012DC68091AE129D
:103D200084FF02C00C9451278091B01287FF02C01B
:103D30000C9451278091B112837011F00C9451278B
:103D40000E9465C318C683E50E94B129882309F43F
:103D500012C60E94255160939D0C70939E0C809317
:103D60009F0C9093A00C0E947E2920E030E04AE74F
:103D700054E40E949BF10E949FF960932B02709380
:103D80002C0280932D0290932E02F5C50E94592D8E
:103D900087FDF1C59091AE1294FD04C09091B012D0
:103DA00097FF0AC0B0E6CB2EB1E0DB2E11EFE12E7B
:103DB00017E0F12E10E009C09091B112937091F7C5
:103DC000682F81E00E94082ED6C5D6018D916D0125
:103DD0000E94FA29882309F459C0133009F04FC012
:103DE0000E947E294B015C0120E030E040EA51E472
:103DF0000E9435F187FF3AC0A50194016091110836
:103E00007091120880911308909114080E9426F96D
:103E10002B013C019B01AC016091210870912208AB
:103E200080912308909124080E949BF160932108BF
:103E300070932208809323089093240860912003B4
:103E40007091210380912203909123030E943AF103
:103E5000A30192010E949BF10E949FF960932003AD
:103E6000709321038093220390932303809211087F
:103E700090921208A0921308B092140807C00E94F2
:103E80007E29F701648B758B868B978B1F5FF4E01F
:103E9000EF0EF11C143009F098CF0E94198B6BC5FE
:103EA00086E595E00E94A52B60E086E495E00E94FF
:103EB0001ED760E081E395E00E941ED761E087E1B4
:103EC00092E10E941ED761E086E295E00E941ED733
:103ED00061E086E195E00E941ED760E08DE095E00C
:103EE0000E941ED761E083E095E00E941ED760E04B
:103EF00089EF94E00E941ED761E081EF94E00E9478
:103F00001ED760E083EE94E00E941ED760E085ED4E
:103F100094E00E941ED760E086EC94E00E941ED7D9
:103F200060E088EB94E00E941ED760E082EA94E0B3
:103F30000E941ED760E081E994E00E941ED760E0F5
:103F400082E894E00E941ED760E08DE694E00E9433
:103F50001ED761E08AE594E00E941ED760E08DE400
:103F600094E00E941ED760E089E394E00E941ED78F
:103F700002C58091B2129091B312009709F472CBEE
:103F8000DC012C91222309F46DCB60E00E94C9A0D2
:103F9000F2C40091B2121091B31294E0F12C40E0FF
:103FA000915021F1F8018081282F2B7F213421F4B9
:103FB00021812133D9F407C08035C1F48181805338
:103FC0008A3048F013C0813421F0853421F441E077
:103FD00002C0FF24F39498012E5F3F4F89012F5FA9
:103FE0003F4FF80180818032C9F3DACF41110E943E
:103FF000CB2BFF2021F089E196E00E94A52BC80180
:104000000E94492EB8C40E94DDCCB5C41092540859
:10401000109253080E94FACCAEC460E070E083E5D1
:104020000E94B92A8C011127023011053CF00E9430
:10403000C72B8DE196E00E94A52B9DC488E40E94C9
:10404000FA298823A9F00E944A296A3A71053CF0AE
:104050006530F1E07F072CF064E071E002C06AEAAD
:1040600070E0F801EE0FFF1FED57FD4E7183608386
:1040700086E40E94FA29882381F00E944A2977FD6C
:1040800007C06F3F710529F024F06FEF70E001C0A9
:1040900060E0F801E358FD4E608382E40E94FA2953
:1040A000882309F468C40E944A296530710534F0F8
:1040B000643771052CF063E770E002C065E070E0E2
:1040C000000F111FF801E158FD4E7183608353C446
:1040D0000E94592D182F87FD4EC484E40E94B129F7
:1040E0008823E9F10E947E296B017C0101E020E038
:1040F00030E0A9010E9435F1811101C000E0009378
:104100006D1220E030E0A901C701B6010E9435F12F
:10411000882329F124E01202F0011124EE58FD4E0B
:10412000C082D182E282F38220E030E0A901609176
:1041300072127091731280917412909175120E9494
:1041400035F181110CC080E090E0A0EEBFE38093D8
:10415000721290937312A0937412B09375120E940E
:10416000F0C209C40E94592D87FD05C450E6E52E12
:1041700051E0F52E01EF17E061E0C62E68E0D62E83
:10418000D7018D917D010E94B129882359F00E94A9
:104190007E290E949FF9F801608371838283938353
:1041A0000E94D28A0C5F1F4FC016D10649F7E3C3A5
:1041B0000E94592D87FDDFC340E6E42E41E0F42E36
:1041C00001EF17E0D7018D917D010E94B12988236D
:1041D00039F00E947E29F80164A375A386A397A3F2
:1041E0000C5F1F4FF8E001301F0761F7C4C38091D7
:1041F000AF1287FD7BC68091B0128E7009F076C633
:104200004091250850912608609127087091280850
:104210008FE396E00E94F72D4091290850912A08DB
:1042200060912B0870912C0882E495E20E94F72D92
:1042300040912D0850912E0860912F087091300800
:1042400081E496E20E94F72D8AE00E949E2B93C3A0
:104250008091AE1281FD90C68091AF1281FD8CC617
:104260008091B0128C7009F087C685C338E5E32EC3
:1042700038E0F32E10E088E5810F0E94B1298823F1
:1042800059F00E947E29D7016D937D938D939C9365
:104290001397812F0E9432C81F5FB4E0EB0EF11C10
:1042A000133049F70C94B0184090E30E5090E40E90
:1042B0006090E50E7090E60E209145013091460128
:1042C0004091470150914801C301B2010E942CF86E
:1042D0006CAB7DAB8EAB9FAB8090E70E9090E80E01
:1042E000A090E90EB090EA0E2091490130914A0168
:1042F00040914B0150914C01C501B4010E942CF832
:1043000068AF79AF8AAF9BAFC090EB0ED090EC0E48
:10431000E090ED0EF090EE0E20914D0130914E01A7
:1043200040914F0150915001C701B6010E942CF8F5
:104330006CAF7DAF8EAF9FAF209151013091520194
:104340004091530150915401C301B2010E942CF8D5
:104350002B013C01209155013091560140915701AC
:1043600050915801C501B4010E942CF84B015C0129
:104370002091590130915A0140915B0150915C01AB
:10438000C701B6010E942CF86B017C010E94CB2B67
:104390008EE796E00E94A52B83E50E94B129882331
:1043A00021F00E946E2980935D0180915D01882338
:1043B00019F081E79EE102C082E595E00E94A52BFD
:1043C00086E796E00E94A52B4CA95DA96EA97FA95E
:1043D0008CE996E20E94F72D48AD59AD6AAD7BADF0
:1043E00080E79BE10E94F72D4CAD5DAD6EAD7FADDA
:1043F00089E69BE10E94F72D8BE59EE00E94A52BAC
:104400008EE696E00E94A52BB301A2018CE996E20C
:104410000E94F72DB501A40180E79BE10E94F72DD2
:10442000B701A60189E69BE10E94F72D8AE00E9470
:104430009E2BA1C283E50E94FA29882331F00E94B5
:104440004A297093400160933F018091AE12909190
:10445000AF12A091B012B091B112892B8A2B8B2B85
:1044600009F089C260913F01709140018EE896E0A9
:104470000E944C2D85E20E949E2B8AE00E949E2B7A
:104480007AC20E94592DF82E87FD75C283E50E94DD
:10449000FA290F2D0F2C000C110B882369F10E94B3
:1044A0004A29F801EE0FFF1FE25AFE4F7183608325
:1044B000000F111F000F111FF801E95FFE4F7F0170
:1044C000072E000C880B990B0E943CF12AE037ED77
:1044D00043E25CE30E949BF1F801E259FD4E20812A
:1044E0003181428153810E949BF1D7016D937D936D
:1044F0008D939C9313973FC20E94CB2B85E40E941F
:104500009E2B80E38F0D0E949E2BF801EE0FFF1F64
:10451000E25AFE4F6081718182E996E00E944C2D43
:1045200085E20E949E2B8AE00E949E2B24C280E599
:104530000E94B129882309F41EC260E070E080E582
:104540000E94B92AF82E6FEF7FEF83E50E94B92A07
:104550008C010196039708F00EC2F7FC0CC28F2D58
:104560000E9478E2882339F00E94C72B8AE996E0FE
:104570000E94A52B00C20E9455C360E08F2D0E94AF
:104580004A8F0F3FBFEF1B0731F00130110571F06B
:1045900000E010E00DC08F2D0E94F28E31E020E08F
:1045A000892B09F030E0032F122F02C001E010E048
:1045B0008F2D0E94F28E8017910709F4DCC10E94B2
:1045C0006A2EF6CF8AE50E94FA29811105C083E59B
:1045D0000E94FA298823E9F10E947E2920E030E038
:1045E00040E050EC0E9435F187FD24C50E947E29F1
:1045F00020E030E040E050E40E948CFA18160CF401
:1046000014C50E947E29209156082695269520FFE4
:1046100020C020910D0830910E0840910F08509154
:1046200010080E949BF10E9498F92091A9023091F4
:10463000AA02260F371F3093AA022093A9022091C5
:104640003D0A30913E0A620F731F70933E0A6093D9
:104650003D0A8091B01287FDF2C48091B11283703F
:1046600009F0EDC40E94CB2B86C164E071E083E5C4
:104670000E940BD78C0168EE73E080E50E940BD797
:104680008938E3E19E0710F088E893E1B8010E94C1
:1046900022A071C185E40E94BC4F811173C080E5E6
:1046A0000E94B129882351F00E947E296093C70E91
:1046B0007093C80E8093C90E9093CA0E89E40E942D
:1046C000B129882381F00E947E292CEA35EC47E24B
:1046D0005EE30E949BF16093CB0E7093CC0E8093AF
:1046E000CD0E9093CE0E84E40E94B129882381F0F0
:1046F0000E947E292CEA35EC47E25EE30E9426F90F
:104700006093CF0E7093D00E8093D10E9093D20E03
:104710000E94CB2B4091C70E5091C80E6091C90EDC
:104720007091CA0E83EC96E00E94F72D2CEA35ECCE
:1047300047E25EE36091CB0E7091CC0E8091CD0E7E
:104740009091CE0E0E9426F9AB01BC018FEB96E052
:104750000E94F72D2CEA35EC47E25EE36091CF0E24
:104760007091D00E8091D10E9091D20E0E949BF14B
:10477000AB01BC018BEB96E00E94F72D8AE00E9412
:104780009E2BF9C00E94C72B89EA96E00E94A52BB8
:10479000F2C083E50E94B129182F882371F00E948E
:1047A0007E290E9498F970930C0160930B0121E01F
:1047B000672B09F020E020933D0380E50E94B1299A
:1047C000882359F020910B0130910C01232B11F01B
:1047D0000E946E2980933D03CEC01111CCC00E946F
:1047E000CB2B80EE96E00E94A52B80913D03882381
:1047F00019F08AE99FE102C087EC96E00E94A52BA0
:1048000060910B0170910C018FEC96E00E944C2D91
:104810008BEC96E00E94A52BAEC00E9455C3ABC0A6
:1048200081E00E94F0890E944BCCA5C00E94E8ACB8
:104830000E944BCCA0C00E9409529DC00E9435CE60
:104840009AC00E9417CD97C061E083E50E94CC2AF0
:1048500091E089270E9443CE8EC081E080937C1234
:104860000E94CE5610927C12882309F484C00E94C4
:10487000CB2B83EF96E00E94A52B7DC08091051184
:1048800082FF79C080648093051175C08091B01259
:1048900087FDDBC38091B112837009F0D6C34091CC
:1048A000EC0A5091ED0A6091EE0A7091EF0A8BE3E9
:1048B00097E00E94F72D4091F00A5091F10A609123
:1048C000F20A7091F30A80E79BE10E94F72D409174
:1048D000F40A5091F50A6091F60A7091F70A89E698
:1048E0009BE10E94F72D8AE00E949E2B44C081E04C
:1048F0008093EA091092F10B60E083E50E94CC2AD4
:10490000811139C00E944EAC36C00E947F5C6D336D
:1049100071058105910520F082E697E00E9454D848
:104920008EE597E00E9454D88AE497E00E94A52B78
:104930000E9465C320C00E94AE4F1DC00091B412FA
:104940001091B5120023B9F00E94CB2B84E50E9490
:104950009E2BB8017727072E000C880B990B0E941D
:10496000302D80E20E949E2B89EA96E00E94A52BC2
:1049700002C00E94AE4F2396FFAD2397F11102C0F3
:104980000E943EAC21962FAD2197209330023FC468
:104990000E9455C30E9435CA81E0809354080E944A
:1049A000FACC88E50E94B129182F89E50E94B12927
:1049B000082F8AE50E94B1291013F9C1181711F0C8
:1049C000312EF6C13324339411E031E03CAF80E165
:1049D000E3EDFEE0ADE5B2E101900D928A95E1F7DD
:1049E00082E50E94FA29882369F00E947E296B01E2
:1049F0007C0120E030E0A9010E9435F1882309F410
:104A00003FC006C0C12CD12C70EAE72E70E4F72E0F
:104A1000111103C0332009F419C18091560882FD99
:104A200009C06091DB0E7091DC0E8091DD0E9091DB
:104A3000DE0E03C060E070E0CB01A70196010E948A
:104A40002CF86093651270936612809367129093AE
:104A500068122091DB0E3091DC0E4091DD0E5091FA
:104A6000DE0E0E948CFA18165CF419821A821B82E0
:104A70001C82BE016F5F7F4F85E692E10E9454CA9F
:104A8000112309F4DEC0332009F4D8C01092D30EEC
:104A90001092D40E1092D50E1092D60E1092D70E00
:104AA0001092D80E1092D90E1092DA0E0E9409CCF4
:104AB000EDE1F5E2849124968FAF2497E6EFF4E2DE
:104AC000C590D590E590F490EAEFF4E2859095904A
:104AD000A590B490A5019401C701B6010E948CFA7B
:104AE00018162CF4A7019601C501B40104C0A50154
:104AF0009401C701B6010E9426F92B013C01E6E0B2
:104B0000F5E285919591A591B4918CAB9DABAEAB3F
:104B1000BFABE2E0F5E285919591A591B49188AFA4
:104B200099AFAAAFBBAF9C01AD016CA97DA98EA9BD
:104B30009FA90E948CFA181644F428AC99AD2296CD
:104B40009FAF22970AAD1BAD07C02CA8ADA9229636
:104B5000AFAF22970EA91FA9A3019201C301B20111
:104B60000E949BF120E030E040E85FE30E942CF8D7
:104B70000E94DAFA222D22963FAD2297A8010E94C8
:104B80009BF169837A838B839C83EEE1F5E2149138
:104B90004090DB0E5090DC0E6090DD0E7090DE0ECB
:104BA00020E030E040EC5FE3C501B4010E949BF1DE
:104BB0004B015C01612F110F770B880B990B0E9441
:104BC0003CF19B01AC01C501B4010E949BF14B017A
:104BD0005C0120E030E040EC5FE3C701B6010E94D9
:104BE0009BF16B017C012496BFAD24976B2FBB0F0B
:104BF000770B880B990B0E943CF19B01AC01C7011C
:104C0000B6010E949BF1FE0131966F018301720192
:104C1000A50194010E94C2CA0E9409CD1092D30E30
:104C20001092D40E1092D50E1092D60E1092D70E6E
:104C30001092D80E1092D90E1092DA0E80E00E94D7
:104C400052C8332019F081E00E9452C8FCADFF2306
:104C500009F49FC0809156088370833051F060E062
:104C60008EEF92E00E944FA00E94CB2B8FEE92E03D
:104C7000AAC00E9409CC8091DB0E9091DC0EA0911D
:104C8000DD0EB091DE0E8CAB9DABAEABBFAB209119
:104C9000EC0A3091ED0A4091EE0A5091EF0A60E083
:104CA00070E08AEE92E40E942BF84B015C01609365
:104CB0005D1270935E1280935F1290936012209148
:104CC000F00A3091F10A4091F20A5091F30A60E043
:104CD00070E08AEE92E40E942BF82B013C01609375
:104CE0006112709362128093631290936412209108
:104CF000F40A3091F50A4091F60A5091F70A6CA92E
:104D00007DA98EA99FA90E942BF8609365127093CC
:104D10006612809367129093681227E137EB41ED9A
:104D200058EBC301B2010E948CFA87FD43C027E013
:104D300030E04BE653E4C301B2010E9435F118168E
:104D4000CCF127E137EB41ED58EBC501B4010E94EE
:104D50008CFA87FD2FC027E030E04BE653E4C50115
:104D6000B4010E9435F118162CF119821A821B82A7
:104D70001C82CE0101966C01ECA8FDA80EA91FA90A
:104D8000A3019201C501B4010E94C2CA82E00E943F
:104D900052C80E9409CC80915308809354080E9405
:104DA0001CCA83E080932E010E944BCCE4CD302EB0
:104DB0008CAF0DCE60E08EED92E00E944FA00E947D
:104DC000CB2B8CEC92E00E94A52BE3CF0E946A2EA5
:104DD0000C94D51A1092F20B109330020E94744F6B
:104DE000CACD88E50E94B12981115E9889E50E94AB
:104DF000B12981115E988AE50E94B129882309F4BE
:104E0000BACD1598B8CD0E944A29AB01BC01409398
:104E100001115093021160930311709304118FEEEE
:104E20009EE00E94DC93A7CD8DE40E94FA2988239E
:104E3000D9F00E945A29813069F038F0823079F433
:104E400062E0802F0E944A8F96CD60E0802F0E9402
:104E50004A8F91CD61E0802F0E944A8F8CCD8CEFDC
:104E600093E00E94A52B87CD83E50E94FA29882331
:104E700009F481CD0E945A29F82EB4E0EB1203C048
:104E800080932C0378CD61E0802F0E944A8F6F2D94
:104E9000802F0E941B8F6F2D70E0802F0E94795011
:104EA0006ACD0E9455C388E50E94B129882331F05C
:104EB0005E9A809156088E7F8093560889E50E94FD
:104EC000B129882331F05E9A809156088D7F8093B6
:104ED00056088AE50E94B129882309F44CCD159A19
:104EE000809156088B7F8093560845CD83E50E94BC
:104EF000FA29882391F00E947E29609325087093F7
:104F00002608809327089093280860932D087093B3
:104F10002E0880932F089093300880E50E94FA298C
:104F2000882351F00E947E296093250870932608FB
:104F3000809327089093280882E50E94FA29882305
:104F400051F00E947E296093290870932A0880936B
:104F50002B0890932C0884E50E94FA29882309F4F1
:104F60000ACD0E947E2960932D0870932E088093AD
:104F70002F0890933008FFCC82E40E94B129882347
:104F800051F00E943A2960930108709302088093BF
:104F900003089093040883E50E94B129882351F007
:104FA0000E947E2960933108709332088093330801
:104FB0009093340884E50E94B129882351F00E941F
:104FC0007E29609335087093360880933708909354
:104FD00038088AE40E94B129882309F4CCCC0E94C5
:104FE0007E296B017C012AE037ED43E25CE30E94FD
:104FF0008CFA87FD13C02AE939E949E95EE3C70164
:10500000B6010E9435F118164CF0C0921003D092F0
:105010001103E0921203F0921303ADCC0E94C72B50
:105020008FE496E00E94A52BA6CC60E070E080E0C3
:1050300090E4E9CA60E070E080E090ECE4CA82E5C8
:105040000E94B12981110ECB96CC9091EC0A9CABB9
:105050008090ED0A7090EE0A6090EF0A5090F00A8E
:105060004090F10A3090F20A2090F30AC090F40ABE
:10507000D090F50AE090F60AF090F70A88E50E94D1
:10508000FA29882361F10E947E295B018C0120E0CE
:1050900030E04BE653EC0E948CFA87FD0AC020E01A
:1050A00030E04BE653E4B501C8010E9435F1181613
:1050B00094F46BEE70E088E297E00E944C2D6BEE6A
:1050C00070E083E297E00E944C2D8CE396E00E9412
:1050D000A52B10E005C0ACAA8B2C702E612E11E020
:1050E00089E50E94FA29882381F10E947E29962E63
:1050F000A72EB82E092F20E030E04BE653EC0E949B
:105100008CFA87FD0CC020E030E04BE653E4692DBB
:105110007A2D8B2D902F0E9435F1181694F46BEE9A
:1051200070E080E197E00E944C2D6BEE70E083E22E
:1051300097E00E944C2D8CE396E00E94A52B10E096
:1051400004C0592C4A2C3B2C202E8AE50E94FA29B7
:10515000882339F10E947E296B017C0120E030E038
:1051600040EA51EC0E948CFA87FD0AC020E030E052
:1051700040EA51E4C701B6010E9435F118168CF4DB
:105180006CEE7FEF8EEF96E00E944C2D64E170E0B4
:1051900083E297E00E944C2D8CE396E00E94A52BC1
:1051A000EACB112309F4E7CB8CA9982DA72DB62DB6
:1051B0008093EC0A9093ED0AA093EE0AB093EF0A65
:1051C000852D942DA32DB22D8093F00A9093F10A92
:1051D000A093F20AB093F30AC092F40AD092F50AAF
:1051E000E092F60AF092F70AC6CB8CA99DA9AEA967
:1051F000BFA98093410190934201A0934301B093D2
:105200004401E12CF12C00EC1FE70C94C817CD5B96
:10521000DF4F0FB6F894DEBF0FBECDBFDF91CF9149
:105220001F910F91FF90EF90DF90CF90BF90AF90C4
:105230009F908F907F906F905F904F903F902F90B6
:105240000895282F80912F02233021F485FD0EC070
:1052500084FD0EC090E0A0E0B0E004C0B695A79534
:10526000979587952A95D2F78170089581E00895E2
:1052700080E008958091A7029091A802009731F0F4
:105280004AE050E060E070E00C9452EF60E070E0C3
:10529000CB0108958091A7029091A802009731F068
:1052A0004AE050E060E070E00C9424EE60E070E0D2
:1052B000CB0108950E944A2997FD0CC00E944A29FB
:1052C0006F3F71058105910509F034F40E944A2968
:1052D000862F089580E008958FEF08958091A702AA
:1052E0009091A802892B39F00E945A2991E08111EE
:1052F00003C090E001C091E0892F08950F931F93A0
:10530000CF938091A7029091A8020097F1F0FC0141
:105310008F01C1912C2F2F7D89F0C53411F0C53636
:10532000B9F7F801108260E070E00E94C8ECF80163
:10533000C083562F472F382F292F0BC060E070E015
:10534000CF911F910F910C94C8EC50E040E030E0F9
:1053500020E0652F742F832F922FCF911F910F91F3
:10536000089581548A3108F042C0E82FF0E040915E
:10537000AE125091AF126091B0127091B11204C090
:1053800076956795579547958A95D2F7842F8170C2
:1053900040FF2FC0EC56FD4E9081992309F1E0911A
:1053A000BE02F091BF02E90FF11D908120ED290F9F
:1053B0002A3098F09E3211F491810CC09D3211F088
:1053C0009B3271F4918120ED290F2A3030F09E320A
:1053D00039F4928190539A3018F42E2F9F2F02C0E7
:1053E00020E090E02093A7029093A802089580E027
:1053F000089508950E94B129882341F081E0209109
:10540000A7023091A802232B09F480E008958F921F
:105410009F92AF92BF92CF92DF92EF92FF920F9343
:105420001F93CF938DE5E82E82E1F82E03ED1EE069
:1054300093EEC92E9EE0D92EC0E088E58C0F0E9425
:10544000FA29882311F10E947E294B015C018C2FDF
:105450000E942129882351F0F80120813181428165
:105460005381C501B4010E942CF809C0F6012081C6
:10547000318142815381C501B4010E942BF8F701AB
:1054800060837183828393830AC0F8018081918154
:10549000A281B381F70180839183A283B383CF5F1D
:1054A000F4E0EF0EF11C0C5F1F4F84E0C80ED11C1E
:1054B000C33019F685E40E94FA29882301F10E947D
:1054C0007E296B017C0183E00E942129882371F0F1
:1054D0002091DF0E3091E00E4091E10E5091E20EEE
:1054E000C701B6010E942CF86B017C01C0926912C1
:1054F000D0926A12E0926B12F0926C1210C08091FE
:10550000DF0E9091E00EA091E10EB091E20E80933B
:10551000691290936A12A0936B12B0936C1286E496
:105520000E94FA298823C9F00E947E2920E030E0F9
:10553000A9010E948CFA181684F40E947E2920E0AA
:1055400030E040E752E40E9426F9609341017093F5
:1055500042018093430190934401CF911F910F9199
:10556000FF90EF90DF90CF90BF90AF909F908F9083
:105570000895CF93DF93D62FC72F0E94FA2988234F
:1055800029F00E944A29262F972F02C02D2F9C2FE9
:10559000822FDF91CF910895CF93DF93C82FD62F1D
:1055A0000E94FA29882321F0DF91CF910C946E2973
:1055B0008C2F0E94B129811101C08D2FDF91CF91D5
:1055C0000895CF92DF92EF92FF926B017C0183E30B
:1055D000C816D104E104F10470F082E3C81AD108BE
:1055E000E108F10862E370E080E090E00E94EB5097
:1055F0000E948971ECCFC701B6010E94EB50FF9069
:10560000EF90DF90CF900C9489715E9A809156084C
:105610008E7F809356085E9A809156088D7F809386
:105620005608159A809156088B7F809356085E9A8B
:105630000895CF930E94A3C5C82F8091670F8093D0
:10564000660F8093650F8093640F84E68093630FE9
:105650000E94C48A88EE93E09093EF078093EE0750
:10566000C1110E94B0C581E08093F90A0E9455C320
:105670008EEF0E9481CBCF910C9409CC10922C0319
:1056800008959091051193FB882780F993FF06C038
:1056900081E09091F20E911101C080E00895809117
:1056A0000F03823061F00E94412B882349F08091E2
:1056B000051182FB882780F991E08927089581E010
:1056C00008958F929F92AF92BF92CF92DF92EF9206
:1056D000FF920F93CF93DF931F92CDB7DEB75C019C
:1056E0006B017A014901F501808191810E9465F782
:1056F0008983002311F0F6018083BE016F5F7F4F25
:10570000C4010E944AB4F501808191810196918380
:105710008083FFEFCF1ADF0A81E0E81AF10819F75A
:1057200080E00F90DF91CF910F91FF90EF90DF908D
:10573000CF90BF90AF909F908F9008959091C000B0
:1057400095FFFCCF8093C6000895CF93DF93FC01B3
:105750008491EF012196882321F00E949E2BFE0167
:10576000F7CFDF91CF9108950F931F93CF93DF93DE
:105770008B010E94A52BE8018991882319F00E94D2
:105780009E2BFACFDF91CF911F910F9108958BE659
:1057900099E00C94A52B85E699E00C94A52BEC01DF
:1057A0008B01F42E0E9408700E94C72B85E499E0BB
:1057B0000E94A52B0115110511F40CE11DE12097A4
:1057C00011F4CCE3D9E00E9496631F930F93DF930B
:1057D000CF9385E399E09F938F93D1E0DF930E946D
:1057E000AEA00E943BD9C091AF0FC695C6958DB7AC
:1057F0009EB707960FB6F8949EBF0FBE8DBF8091DF
:10580000E70F811104C0D093E70F0E9496B68091F4
:10581000B00F9091B10F0E946FB6DC2FDD0F1D2FDE
:105820001C0F83E00E94AFC01092E50FC093E60FFB
:105830008CE99BE00E946BC21092E50FD093E60FBB
:1058400086E299E00E94C0C11092E50F1093E60F26
:1058500089E199E00E94C0C18EEA9FE00E9404B5F0
:105860008111DFCF89EE93E030E6019729F0232FF5
:105870002A950000E9F7F9CFF89489EE93E038EE25
:10588000019729F0232F2A950000E9F7F9CF0E940C
:105890000870FF2019F00E94052B01C05E9AA895A0
:1058A000FECF7F928F929F92AF92BF92CF92DF9264
:1058B000EF92FF920F931F93CF93DF931F92CDB779
:1058C000DEB77C0159018B016B01C40ED51E0C158E
:1058D0001D0559F1F70180809180F80171908F01C9
:1058E0007982C4010E9465F7781691F0672DC40192
:1058F0000E946DF7C4010E9465F79981891741F0F4
:105900000E94CB2B80E797E00E94A52B81E00EC080
:10591000BE016F5F7F4FC5010E944AB4F7018081CD
:105920009181019691838083D2CF80E00F90DF91A7
:10593000CF911F910F91FF90EF90DF90CF90BF908C
:10594000AF909F908F907F9008958F929F92AF928B
:10595000BF92EF92FF920F931F93CF93DF93CDB738
:10596000DEB7A0970FB6F894DEBF0FBECDBF6115AE
:1059700071058105910591F100E0842E912CA12CF7
:10598000B12C102FEE24E394F12CEC0EFD1EE00E52
:10599000F11C07FDFA94A50194010E948BF7F70111
:1059A0006083B901CA010F5F611571058105910519
:1059B00041F71F3F31F1E1E0F0E0EC0FFD1FE10F97
:1059C000F11D17FDFA9580818A3010F097E301C030
:1059D00090E3890F0E949E2B1150EBCF80E3A0969D
:1059E0000FB6F894DEBF0FBECDBFDF91CF911F91F0
:1059F0000F91FF90EF90BF90AF909F908F900C947D
:105A00009E2BA0960FB6F894DEBF0FBECDBFDF91E0
:105A1000CF911F910F91FF90EF90BF90AF909F900B
:105A20008F900895CF92DF92EF92FF926A017B01EF
:105A30000E94A52B4AE0C701B601FF90EF90DF90CE
:105A4000CF900C94A52CCF93DF93EB010E94A52B54
:105A5000BE0180E090E04AE0DF91CF910C94A52C4C
:105A6000CF92DF92EF92FF926B017C0197FF0BC008
:105A70008DE20E949E2BF094E094D094C094C11CBF
:105A8000D11CE11CF11C4AE0C701B601FF90EF9068
:105A9000DF90CF900C94A52CCF93DF93EB010E9465
:105AA000A52BBE01DD0F880B990BDF91CF910C94D4
:105AB000302DCF9384E50E94FA29882301F10E94BA
:105AC0005A29C82F1816E4F40E94CB2B8DE40E94AB
:105AD0009E2B6091B4127091B512072E000C880BAA
