:100000000C94F8120C9422130C9422130C942213C7
:100010000C9422130C9422130C9422130C9422138C
:100020000C9422130C9403AD0C9422130C94221301
:100030000C9422130C944C8C0C9422130C942213C9
:100040000C9422130C94C8970C94B9AC0C94221302
:100050000C94DC890C94D2890C9422130C942213F6
:100060000C9422130C9422130C9422130C9422133C
:100070000C9422130C9422130C9422130C9422132C
:100080000C9422130C9422130C942213D5B4D8B4DC
:10009000CBB4CFB4EFB4EFB4DCB4E0B4E6B4EAB4BC
:1000A000DBB6E0B6E5B6EFB61DB71DB7F9B601B7DA
:1000B00009B713B75BBB1ABA51BA97BB51BA51BA59
:1000C00051BA51BA51BA51BA51BA51BA51BA51BAD8
:1000D00051BA51BA51BA51BA51BA51BA51BA51BAC8
:1000E00051BA51BA51BA51BA51BA51BA51BA51BAB8
:1000F00091BB51BA51BA51BA51BA51BA51BA51BA67
:1001000051BA6ABB51BA51BA51BA51BA51BA51BA7D
:1001100051BA51BA51BA51BAAEBB4EBA4E414E491C
:100120004E495459494E46CDCCCC3D0AD7233C17B5
:10013000B7D13877CC2B329595E6241FB14F0A0002
:100140000020410000C84200401C4620BCBE4CCAF2
:100150001B0E5AAEC59D7400407A10F35A00A0726F
:100160004E18090010A5D4E80000E87648170000F2
:10017000E40B54020000CA9A3B000000E1F50500C0
:100180000080969800000040420F000000A0860109
:10019000000000102700000000E8030000000064D9
:1001A00000000000000A0000000000010000000044
:1001B000002C76D888DC674F0823DFC1DFAE59E119
:1001C000B1B796E5E3E453C63AE651997696E8E688
:1001D000C28426EB898C9B62ED407C6FFCEFBC9C5B
:1001E0009F40F2BAA56FA5F490055A2AF75C936B6D
:1001F0006CF9676DC11BFCE0E40D47FEF520E6B528
:1002000000D0ED902E0300943577050080841E0801
:100210000000204E0A000000C80C333333330F981F
:100220006E12831141EF8D2114893BE65516CFFEE6
:10023000E6DB18D1844B381BF77C1D901DA4BBE472
:1002400024203284725E228100C9F124ECA1E53DB4
:1002500027434F4D4D554E49434154494F4E00445D
:10026000525952554E004552524F525300494E4634
:100270004F004543484F00536C6565702E2E2E008D
:100280005A2050726F626520506173742042656419
:100290000A005A2050726F626520506173742042C8
:1002A000656400486F6D65205859206669727374E3
:1002B0000A00486F6D6520585920466972737400B2
:1002C00050726F62696E67204661696C65640A00EE
:1002D00050726F62696E67204661696C65640020C8
:1002E0005A3A200020593A200042656420583A20AA
:1002F000004D65736820706F696E742063616E6E67
:100300006F74206265207265736F6C7665640A0095
:10031000436C69636B20746F20526573756D652E35
:100320002E2E004E6F204D6F76652E0025697920A8
:10033000256964202569682025696D202569730079
:100340005072696E742074696D653A2000496E764A
:10035000616C69642050696E204D6F64650A006F9E
:1003600066660044454255473A004D3131322053CC
:10037000687574646F776E004D3131332053004AD5
:10038000526F636B204F46462E004348414D424515
:10039000525F54454D5045524154555245004D4FC2
:1003A00054494F4E5F4D4F44455300544845524DBC
:1003B000414C5F50524F54454354494F4E004155B4
:1003C000544F5245504F52545F53445F535441541D
:1003D00055530050524F4D50545F535550504F524B
:1003E0005400454D455247454E43595F5041525385
:1003F000455200434153455F4C494748545F425280
:10040000494748544E45535300544F47474C455F66
:100410004C494748545300534F4654574152455F47
:10042000504F574552004255494C445F5045524346
:10043000454E54004C4556454C494E475F44415447
:1004400041005A5F50524F4245004155544F4C4570
:1004500056454C005052494E545F4A4F420050524C
:100460004F4752455353004155544F5245504F52F8
:10047000545F54454D5000564F4C554D45545249CC
:100480004300454550524F4D0042494E4152595F3D
:1004900046494C455F5452414E53464552005345E0
:1004A0005249414C5F584F4E5F584F4646004649AF
:1004B000524D574152455F4E414D453A4D61726C28
:1004C000696E20322E302E352E332028476974482D
:1004D00075622920534F555243455F434F44455F52
:1004E00055524C3A68747470733A2F2F6769746868
:1004F00075622E636F6D2F4D61726C696E46697205
:100500006D776172652F4D61726C696E2050524F2C
:10051000544F434F4C5F56455253494F4E3A312E3C
:1005200030204D414348494E455F545950453A4A61
:10053000526F636B2045585452554445525F434FA8
:10054000554E543A3120555549443A6365646532F5
:100550006132662D343161322D343734382D3962B1
:1005600031322D6335356336326633363766660A87
:10057000002F2F20004D31343520533C696E6465C7
:10058000783E206F7574206F662072616E676520FB
:1005900028302D31290A00416363656C65726174EE
:1005A000696F6E3A2050003F4A206F7574206F6665
:1005B0002072616E67652028302E303120746F20E4
:1005C000302E33290A0020204D61783A2000202067
:1005D0004D696E3A2000536F667420656E647374C3
:1005E0006F70733A200046523A0020466C6F773A9B
:1005F000200050726F7465637465642050696E0AE0
:10060000004D424C2041646A757374205A00496E53
:1006100076616C69642065787472756465720A002D
:1006200020643A0020693A0020703A00646973003F
:1006300043290A0061626C656420286D696E20742C
:10064000656D702000436F6C64206578747275640A
:1006500065732061726520004D34323120696E630C
:100660006F727265637420706172616D657465721A
:100670002075736167650A00486F6D6520257325D5
:10068000732573204669727374004F6666736574D0
:1006900073204170706C696564004572723A205431
:1006A0006F6F206661722100546F6F206661722047
:1006B00066726F6D207265666572656E6365207027
:1006C0006F696E740A00454550524F4D204F4B0ADA
:1006D000003F5A206F7574206F662072616E6765E7
:1006E0002028003F59206F7574206F662072616E5C
:1006F000676520282D0020746F20003F58206F75FB
:1007000074206F662072616E676520282D0050721C
:100710006F6265204F666673657420580072026DC3
:100720000266025F0251025072696E742050617558
:100730007365640020746F6F206C6F6E672065783E
:1007400074727573696F6E2070726576656E74650C
:10075000640A0020636F6C64206578747275736935
:100760006F6E2070726576656E7465640A00220A89
:1007700000556E6B6E6F776E20636F6D6D616E648A
:100780003A2022004A526F636B2052656164792ED1
:10079000005072696E74696E672E2E2E00436F6E64
:1007A00066696775726174696F6E004D6F74696F09
:1007B0006E00426564204C6576656C696E67005416
:1007C0006865726D6973746F727300426F617264F1
:1007D00020496E666F005072696E74657220496EB2
:1007E000666F0041626F7574205072696E74657235
:1007F0000054756E6500496E666F205363726565BF
:100800006E004D38340044697361626C6520537426
:1008100065707065727300473238004175746F20DF
:10082000486F6D65005072656865617420504C4179
:1008300020426564005072656865617420504C41C7
:1008400020456E6400656E7175657565696E67201B
:1008500022004D3330332055312045256920532562
:100860006900504944204175746F74756E65202A83
:10087000005049442D44202A005049442D49202A43
:10088000005049442D50202A0020082046616374FE
:10089000002008204D6178002008204D696E00413D
:1008A00075746F74656D70004573746570732F6D2A
:1008B0006D005A73746570732F6D6D005973746594
:1008C00070732F6D6D005873746570732F6D6D00AC
:1008D00046696C616D656E740053746570732F6D3D
:1008E0006D004C6576656C696E6720446F6E65219E
:1008F000006F6B00526573656E643A200020573AB2
:1009000000452025530042656420436F6F6C696E7B
:10091000672E2E2E004265642048656174696E67FB
:100920002E2E2E0023646566696E6520444546417F
:10093000554C545F004B6420004B6920004B7020E5
:1009400000504944204175746F74756E6520666966
:100950006E69736865642120507574207468652021
:100960006C617374204B702C204B6920616E642085
:100970004B6420636F6E7374616E74732066726F64
:100980006D2062656C6F7720696E746F20436F6EA7
:1009900066696775726174696F6E2E680A005049E6
:1009A00044204175746F74756E65206661696C656D
:1009B00064212074696D656F75740A000A20436CA8
:1009C000617373696320504944200A00204B643AE4
:1009D0002000204B693A2000204B703A2000205420
:1009E000753A2000204B753A2000206D61783A203E
:1009F00000206D696E3A200020643A200020626970
:100A000061733A2000504944204175746F74756ECB
:100A1000652073746172740A0050494420417574F2
:100A20006F74756E65206661696C6564212054651C
:100A30006D706572617475726520746F6F2068697E
:100A400067680A00504944204175746F74756E657B
:100A5000206661696C656421204261642065787458
:100A60007275646572206E756D6265720A0020523F
:100A70000020204D3835312058005A2D50726F62B9
:100A800065204F66667365740020204D3330312039
:100A900050005049442073657474696E67733A005E
:100AA00020460020480020204D3134352053004D91
:100AB0006174657269616C2068656174757020701D
:100AC0006172616D65746572733A00202047323936
:100AD000205334205A0020204732392053332049F4
:100AE0000020204D3432302053004D657368204281
:100AF0006564204C6576656C696E673A0020204D10
:100B0000323036205800486F6D65206F6666736519
:100B1000743A00204A0020204D32303520420041F6
:100B20006476616E6365643A20423C6D696E5F7302
:100B300065676D656E745F74696D655F75733E2082
:100B4000533C6D696E5F66656564726174653E20D5
:100B5000543C6D696E5F74726176656C5F66656545
:100B600064726174653E204A3C6A756E635F6465B9
:100B7000763E0020540020204D3230342050004179
:100B80006363656C65726174696F6E2028756E6948
:100B900074732F7332293A20503C7072696E745FFF
:100BA000616363656C3E20523C726574726163746C
:100BB0005F616363656C3E20543C74726176656C62
:100BC0005F616363656C3E0020204D3230312058F8
:100BD000004D6178696D756D20416363656C657268
:100BE0006174696F6E2028756E6974732F73322972
:100BF0003A0020450020204D3230332058004D610E
:100C000078696D756D2066656564726174657320C1
:100C100028756E6974732F73293A00537465707365
:100C20002070657220756E69743A0020204D323054
:100C3000302044300A0020204D3230302044002043
:100C400044697361626C65640A0046696C616D6534
:100C50006E742073657474696E67733A0020204D5A
:100C60003134392043203B20556E69747320696EFE
:100C70002043656C736975730A0020286D6D290027
:100C80002020473231202020203B20556E6974738C
:100C900020696E206D6D00486F6D696E672046613A
:100CA000696C6564006F70656E0054524947474532
:100CB000524544007A5F6D696E00795F6D696E0020
:100CC000785F6D696E005265706F7274696E67202F
:100CD000656E6473746F70207374617475730A0049
:100CE0004F6666004F6E00416476616E63656420F6
:100CF00053657474696E6773004E65787420506F25
:100D0000696E74002569202F20257500473239202F
:100D1000533100436C69636B20746F2042656769CF
:100D20006E00486F6D696E672058595A0053746F92
:100D300072652053657474696E6773004C6F6164EB
:100D40002053657474696E67730050726F6265201A
:100D50005A204F6666736574004661646520486575
:100D600069676874004C6576656C20426564005262
:100D70006573746F72652044656661756C74730089
:100D8000313235004245443A4550434F53203130CB
:100D9000304B0052756E61776179205761746368DA
:100DA0003A204F4E004D61782054656D7000323707
:100DB00035004D696E2054656D700045313A20450F
:100DC00050434F53203130304B005053550047654E
:100DD0006E657269630050726F746F636F6C00317F
:100DE0002E30004261756400323530303030004DB5
:100DF000656C7A692028437265616C697479290091
:100E00004D657368204C6576656C696E6700457842
:100E10007472756465727300687474703A2F2F6D04
:100E200061726C696E66772E6F7267004A526F63EB
:100E30006B00323032302D30332D333100322E30D2
:100E40002E352E330053657474696E6773205374A6
:100E50006F7265642028006563686F3A004572729E
:100E60006F723A000A4D6561737572656420706F28
:100E7000696E74733A0A00337833206D6573682E97
:100E8000205A206F66667365743A20004F46460A02
:100E900000466164652048656967687420004661A2
:100EA000696C656420746F20656E61626C652042B8
:100EB0006564204C6576656C696E670A004D6573E4
:100EC0006820426564204C6576656C2064617461BD
:100ED0003A0A00496E76616C6964206D6573682E0C
:100EE0000A00206E6F7420656E74657265642E0A48
:100EF00000206F6620004D424C2047323920706F31
:100F0000696E7420004A206F7574206F66207261CC
:100F10006E67652028302D0049206F7574206F663C
:100F20002072616E67652028302D004D6573682042
:100F300070726F62696E6720646F6E652E0A00536F
:100F400074617274206D6573682070726F62696E6F
:100F50006720776974682022473239205331222074
:100F600066697273742E0A004732380A4732392094
:100F7000533200686173206E6F20646174612E0AC1
:100F8000004D65736820426564204C6576656C6928
:100F90006E67200053206F7574206F662072616E3B
:100FA00067652028302D35292E0A00204D39322042
:100FB000580020496E76616C69642065787472759A
:100FC000646572200020436F756E7420583A0045A6
:100FD0003100626564002C2073797374656D207331
:100FE000746F7070656421204865617465725F4933
:100FF000443A200048656174696E67204661696CF7
:1010000065640048656174696E67206661696C6536
:10101000640024F4D43050C38E20C2A24017828BC7
:101020007011127A910D816CD90AA861E108C75834
:101030006607615143061E4B5D05C145A7041A4171
:101040001104093D9803713931034036DB026533E1
:101050009102D4305402802E1D02632CEE01752AB9
:10106000C501B028A001102781018F2564012B2420
:101070004B01E0223401AC211F018D200D01801FA6
:10108000FC00841EED00971DDF00B81CD200E61B9B
:10109000C600201BBC00641AB200B219A8000A19CD
:1010A000A0006A189900D117910040178B00B5165F
:1010B000840031167E00B31579003A157300C71409
:1010C0006F0058146A00EE1366008813630025133E
:1010D0005E00C7125B006C12570015125400C1115C
:1010E000510070114F0021114B00D61049008D1096
:1010F00047004610440002104200C00F4000800F1D
:101100003E00420F3C00060F3B00CB0E3800930E12
:1011100037005C0E3500270E3400F30D3200C10D90
:101120003100900D3000600D2E00320D2D00050DA8
:101130002C00D90C2B00AE0C2900850C29005C0C6E
:101140002700350C27000E0C2600E80B2400C40BEA
:101150002400A00B23007D0B23005A0B2100390B28
:101160002100180B2000F80A1F00D90A1E00BB0A34
:101170001E009D0A1D00800A1D00630A1C00470A0C
:101180001B002C0A1B00110A1A00F7091A00DD09BE
:101190001900C4091900AB091900920917007B094D
:1011A0001800630917004C091600360916002009BB
:1011B00016000A091500F5081500E0081400CC080F
:1011C0001400B8081400A4081400900813007D0847
:1011D00012006B0813005808120046081200340869
:1011E0001100230811001208110001081100F00776
:1011F0001000E0071000D0071000C0071000B00773
:101200000F00A107100091070E0083070F0074075D
:101210000F0065070E0057070E0049070E003B0739
:101220000D002E070E0020070D0013070D00060706
:101230000D00F9060C00ED060D00E0060C00D406CA
:101240000C00C8060C00BC060C00B0060C00A4067E
:101250000B0099060C008D060B0082060B0077062A
:101260000B006C060B0061060A0057060B004C06CB
:101270000A0042060A0038060A002E060A00240662
:101280000A001A060A001006090007060A00FD05F2
:101290000900F4050900EB050900E2050900D9057C
:1012A0000900D0050900C7050900BE050900B505FC
:1012B0000800AD050800A50509009C050800940577
:1012C00008008C050800840508007C0508007405EA
:1012D00008006C050700650508005D050700560558
:1012E00008004E05070047050700400508003805BF
:1012F0000700310507002A050700230507001C0524
:101300000600160507000F05070008050600020580
:101310000700FB040600F5040700EE040600E804DD
:101320000600E2040700DB040600D5040600CF0433
:101330000600C9040600C3040600BD040600B70485
:101340000600B1040500AC040600A6040600A004D3
:1013500005009B04060095040500900406008A041D
:10136000050085040500800406007A040500750464
:101370000500700405006B040500660405006104A7
:1013800005005C04050057040500520405004D04E7
:10139000050048040500430405003E0404003A0427
:1013A000050035040500300404002C040500270462
:1013B0000400230405001E0404001A04040016049B
:1013C0000500110404000D040400090405000404D0
:1013D000040000040400FC030400F8030400F40308
:1013E0000400F0030400EC030400E8030400E40339
:1013F0000400E0030400DC030400D8030400D40369
:101400000400D0030400CC030400C8030300C50398
:10141000030024F404D9201BC40C5C0E9804C409F6
:101420005F0265077101F405F900FB04B30048048D
:101430008700C10369005803550003034500BE023D
:101440003A008402310053022A00290225000402D6
:101450002000E4011C00C8011900AF011700980129
:10146000140084011300710110006101100051018A
:101470000E0043010D0036010B002B010B00200173
:101480000B00150109000C01090003010800FB0015
:101490000800F3000800EB000700E4000600DE008F
:1014A0000600D8000600D2000600CC000500C700E8
:1014B0000500C2000500BD000400B9000400B5002D
:1014C0000400B1000400AD000400A9000400A50060
:1014D0000300A20003009F0004009B00030098008B
:1014E00003009500020093000300900003008D00AC
:1014F00002008B00030088000200860002008400C6
:101500000300810002007F0002007D0002007B00DA
:1015100002007900020077000100760002007400EA
:10152000020072000100710002006F0002006D00F5
:1015300001006C0002006A000100690002006700FF
:101540000100660001006500010064000200620005
:10155000010061000100600001005F0002005D0009
:1015600001005C0001005B0001005A00010059000D
:10157000010058000100570001005600010055000D
:10158000010054000100530000005300010052000C
:10159000010051000100500001004F0001004E0009
:1015A00000004E0001004D0001004C0001004B0006
:1015B00000004B0001004A00010049000100480002
:1015C00000004800010047000100460000004600FE
:1015D00001004500000045000100440001004300F7
:1015E00000004300010042000000420001004100F1
:1015F000000041000100400001003F0000003F00EA
:1016000001003E0000003E0001003D0000003D00E2
:1016100001003C0000003C0000003C0001003B00D9
:1016200000003B0001003A0000003A0001003900D0
:1016300000003900010038000000380000003800C8
:1016400001003700000037000100360000003600BE
:1016500000003600010035000000350000003500B4
:1016600001003400000034000000340001003300A9
:10167000000033000000330001003200000032009F
:101680000000320001003100000031000000310094
:1016900001003000000030000000300001002F0089
:1016A00000002F0000002F0000002F0001002E007E
:1016B00000002E0000002E0001002D0000002D0073
:1016C00000002D0000002D0001002C0000002C0067
:1016D00000002C0000002C0001002B0000002B005B
:1016E00000002B0000002B0001002A0000002A004F
:1016F00000002A0000002A00010029000000290043
:101700000000290000002900000029000100280035
:101710000000280000002800000028000000280029
:10172000010027000000270000002700000027001C
:10173000000027000100260000002600000026000F
:101740000000260000002600010025000000250002
:1017500000002500000025000000250000002500F5
:1017600001002400000024000000240000002400E8
:1017700000002400010023000000230000002300DB
:1017800000002300000023000000230000002300CD
:1017900001002200000022000000220000002200C0
:1017A00000002200000022000100210000002100B2
:1017B00000002100000021000000210000002100A5
:1017C0000000210001002000000020000000200097
:1017D0000000200000002000000020000000200089
:1017E0000000200001001F0000001F0000001F007B
:1017F00000001F0000001F0000001F0000001F006D
:1018000001001E0000001E0000001E0000001E005F
:101810000000043700001E290000511B0000581072
:10182000000010090000CC04000078020000410113
:10183000000054656D706572617475726500426573
:1018400064205A004D61696E00507265686561746C
:101850002041425320456E64005072656865617492
:10186000204142532042656400436F6F6C646F7780
:101870006E00507265686561742041425300507279
:10188000656865617420504C410046616E2053705C
:10189000656564004E6F7A7A6C65004261627973A7
:1018A000746570205A00466C6F77004572726F72D3
:1018B0002077726974696E6720746F2045455052B5
:1018C0004F4D210A00627573793A20706175736516
:1018D0006420666F7220696E7075740A0062757399
:1018E000793A2070617573656420666F7220757334
:1018F00065720A00627573793A2070726F6365735E
:1019000073696E670A002121204B494C4C206361AA
:101910007573656420627920746F6F206D756368DC
:1019200020696E6163746976652074696D65202D28
:101930002063757272656E7420636F6D6D616E6485
:101940003A200053544F505045442E2000507269A5
:101950006E7465722073746F707065642064756551
:1019600020746F206572726F72732E204669782022
:10197000746865206572726F7220616E6420757381
:1019800065204D39393920746F2072657374617226
:10199000742E202854656D706572617475726520AF
:1019A00069732072657365742E20536574206974A1
:1019B0002061667465722072657374617274696EF9
:1019C00067290A004E6F20436865636B73756D204D
:1019D00077697468206C696E65206E756D626572DA
:1019E0002C204C617374204C696E653A200063684A
:1019F00065636B73756D206D69736D617463682CBD
:101A0000204C617374204C696E653A20004C696EFD
:101A100065204E756D626572206973206E6F74204B
:101A20004C617374204C696E65204E756D626572F1
:101A30002B312C204C617374204C696E653A200068
:101A40004D31313000506C656173652052657365AE
:101A500074005052494E5445522048414C5445441C
:101A60000025533A202553004B494C4C45442E2029
:101A7000005072696E7465722068616C7465642EC2
:101A8000206B696C6C28292063616C6C6564210A89
:101A9000000F150E1216170E1303021A1401000E72
:101AA0000C190DFF180C04000100000000000000DC
:101AB000000000000000006B4300006B4300007A50
:101AC000430000A0410000A0410000804002020449
:101AD0000000A0400000A04000000040FFFFFF57B2
:101AE00061726E696E673A20486F6D696E67204259
:101AF000756D702044697669736F72203C20310ADD
:101B000000202D20496E76616C69642065787472BE
:101B100075646572206E756D62657220210A0054CD
:101B20004845524D414C2052554E41574159005461
:101B30006865726D616C2052756E617761790045E0
:101B400072723A204D415854454D50004D41585401
:101B5000454D50207472696767657265640045720F
:101B6000723A204D494E54454D50004D494E544512
:101B70004D502074726967676572656400202F009C
:101B80002042403A0020403A0070012C0190012789
:101B900001B0012201C0011D01F001180110021362
:101BA0000130020E016002090190020401C002FF2F
:101BB000000003FA004003F5008003F000D003EBBF
:101BC000002004E6007004E100E004DC004005D7DA
:101BD00000C005D2004006CD00D006C8008007C373
:101BE000003008BE00F008B900C009B400B00AAF68
:101BF00000B00BAA00D00CA500000EA000500F9B57
:101C000000C01096005012910000148C00C015877F
:101C100000B0178200B0197D00D01B7800001E7341
:101C20000040206E0090226900F024640040275F8D
:101C30000090295A00E02B5500102E500020304B08
:101C40000010324600E033410090353C0010373739
:101C50000070383200A0392D00B03A2800A03B2394
:101C600000603C1E00103D1900903D1400103E0F16
:101C700000703E0A00C03E0500003F0000403FFBF0
:101C8000FF803FF6FFC03FF1FF46696C2E2044699C
:101C9000612E004520696E206D6DC2B300457272E1
:101CA0003A207574663820666F6E74206E6F7420EB
:101CB000696E697469616C697A65642E00000C0D47
:101CC00000FE07022603BC017FFE08FE08FE050891
:101CD0000806000040F0C8888898781005080806B3
:101CE0000000C0F88888888888F805050506000186
:101CF0002030F830200508080600002070F8202069
:101D00002020E00509090600FF2070A8A8B88888EF
:101D10007020050606060001E08CEA8C8A0A050997
:101D2000090600FFF8A88888888888A8F8050A0AA4
:101D30000600FE205050505088A8A8887003030366
:101D400006000340A040FFFFFFFFFFFFFFFFFFFF74
:101D5000FFFFFFFFFFFFFFFFFFFFFFFF0000000689
:101D600005FF010707060200808080808000800355
:101D70000303060105A0A0A005060606000050F812
:101D80005050F8500509090600FF2070A8A07028DF
:101D9000A87020050707060000C8C81020409898C2
:101DA00005070706000040A0A040A89068010303B3
:101DB0000602058080800309090601FF204040805B
:101DC00080804040200309090601FF804040202018
:101DD0002040408005070706000020A8702070A85A
:101DE000200505050600012020F820200203030637
:101DF00001FFC04080050101060003F8020202064F
:101E00000100C0C005070706000008101020404070
:101E100080050707060000708898A8C88870030727
:101E20000706010040C040404040E00507070600AB
:101E300000708808102040F8050707060000F80821
:101E4000103008887005070706000010305090F821
:101E50001010050707060000F880F00808887005D4
:101E60000707060000304080F088887005070706E5
:101E70000000F80810102020200507070600007059
:101E80008888708888700507070600007088887841
:101E9000081060020505060100C0C000C0C00206AF
:101EA000060601FFC0C000C0408003050506010111
:101EB0002040804020050303060002F800F80305D7
:101EC00005060101804020408005070706000070DC
:101ED0008810202000200507070600007088B8A899
:101EE000B88070050707060000708888F888888821
:101EF000050707060000F04848704848F005070746
:101F00000600007088808080887005070706000042
:101F1000F04848484848F0050707060000F8808068
:101F2000F08080F8050707060000F88080F08080C8
:101F30008005070706000070888080988870050774
:101F400007060000888888F8888888030707060144
:101F500000E04040404040E0050707060000381020
:101F600010101090600507070600008890A0C0A020
:101F70009088050707060000808080808080F80533
:101F8000070706000088D8A88888888805070706FC
:101F900000008888C8A89888880507070600007090
:101FA000888888888870050707060000F08888F010
:101FB00080808005070706000070888888A89068E0
:101FC000050707060000F08888F0A090880507073D
:101FD00006000070888070088870050707060000FA
:101FE000F820202020202005070706000088888888
:101FF0008888887005070706000088888888505000
:102000002005070706000088888888A8A8500507CB
:1020100007060000888850205088880507070600BA
:102020000088885020202020050707060000F808B7
:1020300010204080F80309090601FFE080808080BD
:10204000808080E0050707060000804040201010D7
:10205000080309090601FFE020202020202020E0BD
:102060000503030600052050880501010600FEF85F
:1020700003030306010580402005050506000070E6
:10208000087888780507070600008080F08888882F
:10209000F0050505060000708080887005070706BA
:1020A0000000080878888888780505050600007013
:1020B00088F08070050707060000304840E0404087
:1020C000400507070600FE708888887808700507B5
:1020D000070600008080F0888888880307070601CB
:1020E000004000C0404040E00409090601FE100025
:1020F00030101010109060050707060000808088DF
:1021000090E09088030707060100C040404040402F
:10211000E0050505060000D0A8A8A8A80505050645
:102120000000B0C88888880505050600007088880A
:1021300088700507070600FEF0888888F080800513
:1021400007070600FE7888888878080805050506D0
:102150000000B0C88080800505050600007880700A
:1021600008F00507070600002020F82020201805A9
:1021700005050600008888889868050505060000A2
:1021800088888850200505050600008888A8A85082
:102190000505050600008850205088050707060041
:1021A000FE88888850204080050505060000F8104C
:1021B0002040F80309090601FF20404040804040CC
:1021C00040200109090602FF808080808080808095
:1021D000800309090601FF804040402040404080C4
:1021E00005030306000248A890FF1FE020102010FE
:1021F00020101020102020102010303008400480C3
:1022000003001FE03FF03FF03FF01FE01FE03FF012
:102210003FF03FF00FC0078003003FFFF038007031
:1022200030FC3020FC102078102030102C00D02EF4
:1022300031D02F7BD02F7BD02E31D02C00D020302E
:102240001020781020FC1030FC303800703FFFF078
:102250003FFFF03800703186302387102787902F9A
:1022600087D02F03D0203010207810207810203015
:10227000102F03D02F87D0278790238710318630E7
:102280003800703FFFF01FFFF81FFFF804104002F6
:10229000082002082004104008208010410010414E
:1022A000000820800410400000001FFFF81FFFF806
:1022B0002020202020202000022020506C616E6E03
:1022C000657242756666657242797465733A20007C
:1022D0002046726565204D656D6F72793A20004326
:1022E0006F6D70696C65643A2041707220323720DE
:1022F000323032300A00204C6173742055706461B2
:102300007465643A20323032302D30332D33312031
:102310007C20417574686F723A20286A726F636B13
:102320002C20456E6465722D33290A00322E302E22
:10233000352E330A004D61726C696E0020536F6652
:1023400074776172652052657365740A0020576165
:10235000746368646F672052657365740A00204275
:10236000726F776E206F75742052657365740A0002
:102370002045787465726E616C2052657365740ACD
:1023800000506F77657255700A00456E6473746F04
:1023900070730025532025632025632025632025A5
:1023A0006300656E6473746F7073206869743A209B
:1023B000002062797465733B2063726320004E6F66
:1023C00020454550524F4D2E0A00454550524F4D25
:1023D000206461746173697A65206572726F722E10
:1023E0000A002073746F7265642073657474696E7B
:1023F000677320726574726965766564202800458C
:1024000072723A20454550524F4D204352430020AE
:102410002863616C63756C6174656429210A00200E
:10242000213D2000454550524F4D20435243206DE1
:1024300069736D61746368202D202873746F7265F1
:10244000642920004572723A20454550524F4D2074
:10245000496E646578002053697A653A2000496EB8
:102460006465783A20004572723A20454550524FD3
:102470004D2056657273696F6E00204D61726C69F4
:102480006E3D563736290A00454550524F4D20764D
:10249000657273696F6E206D69736D617463682016
:1024A00028454550524F4D3D0048617264636F644A
:1024B00065642044656661756C7420536574746945
:1024C0006E6773204C6F616465640A003B200000F6
:1024D00000FA430000FA430000A0400000C8410099
:1024E00000A0420000A0420000C8430000BA42F42D
:1024F000010000F401000064000000881300004D9A
:102500006F7665205A004D6F76652025736D6D00DE
:102510004D6F766520302E316D6D004D6F766520E4
:10252000316D6D004D6F76652031306D6D004D6FF2
:102530007665204178697300486F74656E64207415
:102540006F6F20636F6C6400457874727564657298
:10255000004D6F76652059004D6F7665205800005C
:10256000002100240027002A000000220025002866
:10257000002B000000200023002600290002020298
:102580000202020202040404040404040403030318
:10259000030303030301010101010101010102041D
:1025A000081020408001020408102040800102042D
:1025B0000810204080804020100804020100000024
:1025C000010200090A0000000004030807000000DF
:1025D0000000000000000000000000000020453A5C
:1025E00000205A3A0020593A004361703A0068C707
:1025F00011241FBECFEFD0E4DEBFCDBF12E0A0E0BC
:10260000B1E0E2EAFCEA01E00BBF02C007900D92E4
:10261000A632B107D9F72EE0A6E2B2E001C01D92C2
:10262000A938B207E1F712E1C8EFD2E104C021975F
:10263000FE010E94E1D3C73FD107C9F70E9455C3ED
:102640000C944FD60C9400002F923F924F925F92C1
:102650006F927F928F929F92AF92BF92CF92DF92B2
:10266000EF92FF920F931F93CF93DF93CDB7DEB717
:10267000EE970FB6F894DEBF0FBECDBF8DAF2091A1
:1026800030022AAF81E08093300280919D078D3423
:1026900009F40BC5843511F40C94B523873411F07B
:1026A0000C94D02380919B0790919C078D319105CC
:1026B00009F431C18CF48430910509F4DEC01CF4B6
:1026C000029790F1EEC48531910511F40C94D22358
:1026D0004C9709F410C1E5C48A35910509F469C322
:1026E00044F48E31910509F41AC18A9709F4D6C3CE
:1026F000D8C48B35910509F460C38C35910509F078
:10270000D0C474E6272E71E0372EEBEDEE2EE9E013
:10271000FE2EABEABCE0BFA7AEA7FBEBCF2EFCE0E2
:10272000DF2E00E010E08AC38091C40A813011F0EE
:102730000C94D22388EEC82E89E0D82E9BEAE92E8D
:102740009CE0F92E2BEBA22E2CE0B22E10E088E5B7
:10275000810F0E94EC6B882319F10E94706B2B0192
:102760003C01812F0E940C6B882351F0D7012D91E1
:102770003D914D915C91C301B2010E94F3D309C018
:10278000F5012081318142815381C301B2010E9450
:10279000F2D3D6016D937D938D939C9313970AC0CA
:1027A000F70180819181A281B381F60180839183B9
:1027B000A283B3831F5FF4E0CF0ED11C24E0E20EAE
:1027C000F11C34E0A30EB11C133009F685E40E941D
:1027D000EC6B882301F10E94706B6B017C0183E03C
:1027E0000E940C6B882371F02091B70C3091B80CCB
:1027F0004091B90C5091BA0CC701B6010E94F3D3B5
:102800006B017C01C092F409D092F509E092F609BF
:10281000F092F70910C08091B70C9091B80CA0917C
:10282000B90CB091BA0C8093F4099093F509A09378
:10283000F609B093F70986E40E94EC6B8823C9F08F
:102840000E94706B20E030E0A9010E9476D5181636
:1028500084F40E94706B20E030E040E752E40E9474
:1028600076D46093290170932A0180932B01909371
:102870002C010E94C44F0C94D22380E50E94EC6B83
:10288000882329F00E94286B6B017C0103C0C12CB6
:10289000D12C760183E50E94EC6B882361F00E94C5
:1028A000706B20E030E04AE754E40E9454CD0E946F
:1028B000EFD46B017C010E942B8E80914B0881111B
:1028C00005C060E087E792E00E94B86A0E94ADAC64
:1028D000C60ED71EE81EF91E0E94ADACDC01CB016E
:1028E0008C199D09AE09BF09B7FD02C00C94D22313
:1028F0000E94FB85F1CF8091E7098770873011F046
:102900000C94E82360E08FE40E94086C81110C9421
:10291000D2230C94E8230E945C6E0C94D223C090C6
:10292000AB0CD090AC0CE090AD0CF090AE0C809065
:10293000360A9090370AA090380AB090390A88E594
:102940000E94EC6B811107C0A5019401C701B6017B
:102950000E94F3D302C00E94706B4B015C016E8B2E
:102960007F8B888F998F4090AF0C5090B00C609007
:10297000B10C7090B20CC0903A0AD0903B0AE09033
:102980003C0AF0903D0A89E50E94EC6B811107C07A
:10299000A7019601C301B2010E94F3D302C00E94B5
:1029A000706B2B013C016A8F7B8F8C8F9D8FBE01DA
:1029B000665E7F4FCE0146960E94ED4C882311F44F
:1029C0000C94D22380E00E942D6C0E945C5361E045
:1029D00085E40E94086C382ECE0101962CE0DC01C3
:1029E0001D922A95E9F789829A82AB82BC824D8238
:1029F0005E826F827886BE016B5F7F4F0E94ED4CD6
:102A0000882309F46DC12091360A3091370A40912C
:102A1000380A5091390AC501B4010E94F2D36AAB59
:102A20007BAB8CAB9DAB69837A838B839C8320913A
:102A30003A0A30913B0A40913C0A50913D0AC30149
:102A4000B2010E94F2D39B01AC016D837E838F8320
:102A50009887E090B30CF090B40C0091B50C1091F5
:102A6000B60CE986FA860B871C8780912901909124
:102A70002A01A0912B01B0912C018EA79FA7A8AB92
:102A8000B9AB85E595E5A5E0B3E480932901909382
:102A90002A01A0932B01B0932C011E8E1F8E18A229
:102AA00019A2DE015E966D016AA97BA98CA99DA978
:102AB0000E94965381E00E94BF8C81110C948E2855
:102AC0008091C20A82FF13C020913E0A30913F0AD2
:102AD0004091400A5091410A60E070E080E090EC43
:102AE0000E94F2D36AAB7BAB8CAB9DAB08C080E09D
:102AF00090E0A0E2B1EC8AAB9BABACABBDABC090BD
:102B00003E0AD0903F0AE090400AF090410A20E04F
:102B100030E0A901C701B6010E94EECC87FF0BC0CF
:102B2000A701960160E070E080E791E40E94F2D393
:102B30006B017C0106C0C12CD12C10E7E12E11E401
:102B4000F12EA70196016091B30C7091B40C8091A5
:102B5000B50C9091B60C0E9476D51816ECF5CAA665
:102B6000DBA6ECA6FDA6C12CD12CB0E8EB2EB0E480
:102B7000FB2ECEA2DFA2E8A6F9A6BE016A5D7F4FBA
:102B8000CE018A960E9455541091550C1092550C06
:102B900082E00E9474540E94045512FF1DC0CAA214
:102BA000DBA2ECA2FDA220E030E040EA50E460911C
:102BB000B30C7091B40C8091B50C9091B60C0E943E
:102BC000F3D36E8F7F8F88A399A3BE016E5D7F4F75
:102BD000CE014E960E9455548AA99BA9ACA9BDA9C5
:102BE0008AA39BA3ACA3BDA380E090E0A0E0B0E4E7
:102BF0008E8F9F8FA8A3B9A3BE01625E7F4FCE01C7
:102C000082960E9455541091550C1092550C82E0FA
:102C10000E9474540E94045512FF1EC0C090B30C51
:102C2000D090B40CE090B50CF090B60C20913E0A18
:102C300030913F0A4091400A5091410A60E070E0B3
:102C400080E090E40E94F2D39B01AC01C701B60181
:102C50000E9476D5181634F4C12CD12CA0ECEA2EA3
:102C6000AFE7FA2E20913E0A30913F0A4091400A88
:102C70005091410AC701B6010E94F3D37B018C0138
:102C80009B01AC010E94F4D5811108C091E039127A
:102C900005C00E94EA4C81110C948E288EA59FA538
:102CA000A8A9B9A98093290190932A01A0932B0187
:102CB000B0932C019701A801B701C8010E94F4D577
:102CC000882391F00E94EA4C60E080ED92E00E943F
:102CD000B86A0E94947080EC92E00E94826D04C0F9
:102CE000E12CF12C00EC1FE79701A801B701C80106
:102CF0000E94F4D5811157C020E030E0A901C50140
:102D0000B4010E94EECC87FF05C067E177EB81E557
:102D100098EB04C067E177EB81E598E3A5019401A6
:102D20000E94F3D3AB01BC0189EE92E00E943E6E9B
:102D300020E030E0A901C301B2010E94EECC87FF80
:102D400005C067E177EB81E598EB04C067E177EBBD
:102D500081E598E3A30192010E94F3D3AB01BC018A
:102D600084EE92E00E943E6E20E030E0A901B701BF
:102D7000C8010E94EECC87FF05C067E177EB81E5D3
:102D800098EB04C067E177EB81E598E39701A80130
:102D90000E94F3D3AB01BC018FED92E00E943E6E26
:102DA0008AE00E94CF840E9443530E9406550C94EF
:102DB000D22310922F020C94D2238FE080932F0203
:102DC0000C94D2230E94706B2B013C01133049F00C
:102DD000D6012D913D914D915C910E94F2D32B0132
:102DE0003C01EEA5FFA52081318142815381C301C1
:102DF000B2010E94F2D34B015C012DEB37E346E8B0
:102E000055EB0E9476D587FD21C02DEB37E346E8D0
:102E100055E3C501B4010E94EECC1816BCF01F5F4B
:102E2000F4E0EF0EF11C2EA53FA52C5F3F4F3FA70E
:102E30002EA734E0C30ED11C143031F1F101819181
:102E40001F010E94EC6B882351F3BCCF133051F467
:102E50004092B70C5092B80C6092B90C7092BA0CB8
:102E600001E0DDCFA5019401D7016D917D918D9198
:102E70009C910E94F3D3F7016083718382839383D3
:102E8000812F0E948C92CBCF002321F087EB9CE016
:102E90000E9403910E9406550C94D2238091C40A8B
:102EA000813011F00C94D22389E40E94EC6BF82E4F
:102EB000882321F00E946C6B182F01C010E08AE477
:102EC0000E94EC6B082F882319F00E946C6B01C0E4
:102ED00080E0FF2011F0133020F4002341F0833014
:102EE00030F081EF92E00E94826D0C94D22390E149
:102EF000EBEAFCE0A8EEB9E001900D929A95E1F7BB
:102F0000FF2091F094E01902F0011124E45AF24FED
:102F100040815181628173814093E8095093E909AE
:102F20006093EA097093EB09002391F0A4E08A0210
:102F3000F0011124E05BF24F80819181A281B38185
:102F40008093EC099093ED09A093EE09B093EF09FB
:102F500060E080E50E94086C8823C1F1FF20D1F079
:102F60002091360A3091370A4091380A5091390A37
:102F70006091E8097091E9098091EA099091EB0963
:102F80000E94F2D36093E8097093E9098093EA09FB
:102F90009093EB090023D1F020913A0A30913B0A3B
:102FA00040913C0A50913D0A6091EC097091ED0905
:102FB0008091EE099091EF090E94F2D36093EC09A1
:102FC0007093ED098093EE099093EF0986E40E94D7
:102FD000EC6B882311F40C94A0280E94706B6B0199
:102FE0007C0120E030E0A9010E9476D5181614F08B
:102FF0000C94A02820E030E040E752E4C701B6017D
:103000000E9476D44B015C01C0902901D0902A0126
:10301000E0902B01F0902C0120E030E0A9010E940B
:10302000EECC882341F08092290190922A01A0924F
:103030002B01B0922C01009127011091280184E608
:1030400090E0909328018093270180900501909053
:103050000601A0900701B090080180E090E0A0E890
:10306000BFE38093050190930601A0930701B093FD
:1030700008010E94C44FC0922901D0922A01E09217
:103080002B01F0922C0110932801009327018092CC
:10309000050190920601A0920701B09208010C94DC
:1030A000D2230E94CC370C94D22380919B0790911D
:1030B0009C078C38910509F4FFC30CF0F7C08836E3
:1030C000910509F407C30CF044C08C34910509F450
:1030D000ECC2FCF48231910509F45AC46CF497FFF8
:1030E00002C00C94B223823091050CF496C1419732
:1030F00009F4F3C10C94B2238A32910509F4B8C2E1
:103100008B34910509F4CDC24F9711F00C94B22382
:1031100001C28335910509F434C47CF481359105ED
:1031200009F414C40CF026C48D34910511F00C94EC
:10313000B2230E9449650C94D2238535910509F488
:1031400054C40CF425C48C35910509F471C40C9455
:10315000B2238037910509F47EC3B4F48C3691050F
:1031600009F474C33CF48A36910509F4EBC20CF4FB
:10317000D5C206C38E36910509F40CC30CF01DC3ED
:103180000E94844A0C94D2238537910509F4E1C446
:103190000CF075C08237910509F4D4C40CF465C3F2
:1031A0008337910511F00C94B2238EEA94E00E94CB
:1031B000826D60E08EE994E00E94EFC260E089E8F1
:1031C00094E00E94EFC261E082E894E00E94EFC2C6
:1031D00061E087E794E00E94EFC261E087E694E057
:1031E0000E94EFC260E08EE594E00E94EFC261E0D1
:1031F00084E594E00E94EFC260E08AE494E00E94DB
:10320000EFC261E082E494E00E94EFC261E084E3F7
:1032100094E00E94EFC260E086E294E00E94EFC278
:1032200060E087E194E00E94EFC260E089E094E012
:103230000E94EFC260E083EF93E00E94EFC260E083
:1032400082EE93E00E94EFC260E083ED93E00E9483
:10325000EFC260E08EEB93E00E94EFC261E08BEA88
:1032600093E00E94EFC260E08EE993E00E94EFC21B
:1032700060E08AE893E00E94EFC20C94D223873783
:10328000910509F4B4C40CF478C48837910509F4A5
:10329000B1C48937910511F00C94B2231092C00A81
:1032A0001092BF0A0E94B5550C94D2238D32B1E022
:1032B0009B0711F40C9449210CF04CC08D3C9105F6
:1032C00009F4BBC5FCF4883C910509F4F6C474F418
:1032D0008B39910509F414C38E3B910509F40DC394
:1032E0008139910511F00C94B2238CC48B3C91056B
:1032F00009F450C50CF070C5893C910509F427C547
:103300000C94B2238D3D910509F4ABC69CF4833D2A
:10331000910509F4B9C58C3D910509F47BC68E3C35
:10332000910511F00C94B22375ECE72E7AE0F72E9C
:1033300010E098C58232F1E09F0709F433C78C3260
:1033400021E0920709F490C7823E910511F00C9498
:10335000B223DDC6853A31E0930711F40C941822AC
:103360007CF58139B1E09B0711F40C940F2294F4A1
:103370008F32F1E09F0711F40C940C2214F40C949A
:10338000C8218039914011F00C94B2230E942B8EF9
:103390000C94D2238A39A1E09A0709F463C2843AD3
:1033A000B1E09B0711F40C9415228239914011F081
:1033B0000C94B2230E94EA4C0E9406550C94D2232E
:1033C000863FF1E09F0711F40C94562384F4843F68
:1033D00031E0930711F40C94502314F00C94532310
:1033E0008C3A914011F40C94E9220C94B223883F5A
:1033F000E1E09E0711F40C94622314F40C94592319
:10340000833523E0920711F40C947323873E934095
:1034100011F40C94A4230C94B22380E50E94EC6B6D
:10342000882329F00E94286B6B017C0103C0C12C0A
:10343000D12C760183E50E94EC6B882361F00E9419
:10344000706B20E030E04AE754E40E9454CD0E94C3
:10345000EFD46B017C010E942B8E80919907909193
:103460009A07009739F020914908211108C00E945D
:10347000976A05C060E080E193E00E94B86A10910D
:10348000300283E08093300281E080936D0EC1149E
:10349000D104E104F10431F00E94ADACC60ED71E98
:1034A000E81EF91E80916D0E882311F40C940826F5
:1034B000C114D104E104F10411F40C9404260E9417
:1034C000ADACDC01CB018C199D09AE09BF09B7FF7A
:1034D00002C00C9404260C9408268091950784FF62
:1034E00002C00C940F268091970787FF02C00C94AE
:1034F0000F2680919807837011F00C940F2660E0DE
:1035000083E293E00E94B86A5E985E9815985E9890
:103510000C94D2230E94D6647B018C0120E831E513
:1035200041E050E00E9444D3C9016DE671E00E9481
:103530009AD34B015C01C801B70120E13EE040E0B5
:1035400050E00E9444D3CA01B90128E130E040E0D4
:1035500050E00E9444D3762E672EC62ED72E6CE301
:10356000262E312C412C512CC801B701A20191010A
:103570000E9444D3F62EE72ECA01B901A20191019F
:103580000E9444D3CB018E010F5F1F4F8114910421
:1035900099F0EF92FF927F936F936F927F92BF9219
:1035A000AF929F928F928CE293E09F938F931F93A1
:1035B0000F930E9486CC13C0A114B104B1F0EF9216
:1035C000FF927F936F936F927F92BF92AF9280E34F
:1035D00093E09F938F931F930F930E9486CC0FB617
:1035E000F894DEBF0FBECDBF30C0CD2879F0EF928A
:1035F000FF927F936F936F927F9284E393E09F9308
:103600008F931F930F930E9486CCE9CF892B69F08B
:10361000EF92FF927F936F9388E393E09F938F9352
:103620001F930F930E9486CCDACFEF92FF928CE328
:1036300093E09F938F931F930F930E9486CC0F90DC
:103640000F900F900F900F900F908091490881116B
:1036500003C0C8010E94976A0E949870B80180E474
:1036600093E00E9481708AE00E94CF840C94D22360
:103670006FEF7FEF80E50E94F96B8C0197FF02C02E
:103680000C94D223E82E60E089E40E94086C81113A
:103690000C942126802F0E9430C3811155C50C94B3
:1036A00021260E9425650C94D2238091340281301A
:1036B00011F00C94D22382E0809334020E94ADACCE
:1036C0006093A8087093A9088093AA089093AB0808
:1036D0000C94D2238091150783FF02C00C94D2234F
:1036E0000E949C7087FF02C00C94D22383E50E9445
:1036F000EC6B882379F00E94706B0E94E8D4CB01B8
:103700000E94D0950E940098811104C00E944965D2
:103710000E94BB370E94908D0C94D2230E949C7013
:10372000182F87FD0AC081EF98E00E94826D812FDB
:103730000E94E0958AE00E94CF848AAD8093300297
:103740000C94AA2880E50E94DA3781110C94D223C8
:1037500081E40E94A36B882321F06091510270E004
:1037600002C06FEF70E083E50E94994F8F3F910593
:1037700019F010F08FEF90E0809351020C94D22357
:1037800080E50E94DA3781110C94D2231092510205
:103790000C94D2238EE40E94EC6B882311F40C94D9
:1037A000D2230E94386B6093220870932308809381
:1037B0002408909325080C94D22383E50E94A36BE0
:1037C000882329F083E50E94DA37809315070E9449
:1037D000987083E693E00E94826D8091150788239C
:1037E00069F15DE1E52E57E0F52E00E010E020E004
:1037F0008091150790E0A0E0B0E0002E04C0B695DF
:10380000A795979587950A94D2F780FF0EC0DD247F
:10381000D394D20E222319F08CE20E94CF84F701B8
:10382000859194910E94826D2D2D0F5F1F4F92E024
:10383000E90EF11C05301105D9F604C08FE593E0BF
:103840000E94826D8AE00E94CF84ACC710926D0EF8
:1038500010920D01A7C741E060E070E08AE693E0B6
:103860000E9497830E9419849DC783E50E94EC6B98
:10387000882371F00E94486B282F30E02D333105EA
:103880001CF4809300018EC78CE3809300018AC7EB
:103890000E949870C0900001D12CE12CF12C88E797
:1038A00093E00E94826D4AE0C701B6010E94D6846F
:1038B0008AE00E94CF8476C78091150783FD72C786
:1038C00083E50E94EC6B882379F00E94706B0E9464
:1038D000E8D46337710514F063E770E07093550A1C
:1038E0006093540A0E9431940E94009881115AC733
:1038F0000E9449650E94BB3755C70E94AF4852C716
:1039000083E50E94EC6B882309F44CC70E94486B46
:10391000182F90E0CD970CF01CE310932A020E9420
:10392000ADAC6B017C01212F30E0A8EEB3E00E942A
:1039300071D3C60ED71EE81EF91EC0922602D09281
:103940002702E0922802F09229022CC70E941398C5
:103950000E9449650E943B8E0E94256B68EE73E0D1
:1039600080E090E00E945E6D60E08FE793E00E944F
:10397000B86A18C780912F028F7D806180932F02D3
:1039800011C780912F028F7E806280932F020AC719
:1039900083E50E94EC6B882399F00E94706B20E015
:1039A00030E04AE754E40E9454CD0E94EFD4609383
:1039B0000101709302018093030190930401F2C608
:1039C0008091950784FF02C00C945E268091970732
:1039D00087FF02C00C945E2680919807837011F0D7
:1039E0000C945E260E943B8EDDC683E50E94A36B8D
:1039F000882309F4D7C60E94ADAC60932608709363
:103A0000270880932808909329080E94706B20E073
:103A100030E04AE754E40E9454CD0E94EFD4609312
:103A20002B0270932C0280932D0290932E02BAC623
:103A30000E949C7087FDB6C69091950794FD04C0C6
:103A40009091970797FF0AC034E6C32E31E0D32E3A
:103A500046E1E42E47E0F42E10E009C0909198076B
:103A6000937091F7682F81E00E94C5709BC6D601C4
:103A70008D916D010E94EC6B882309F459C01330BD
:103A800009F04FC00E94706B4B015C0120E030E0F8
:103A900040EA51E40E94EECC87FF3AC0A5019401B0
:103AA00060913607709137078091380790913907F8
:103AB0000E9476D42B013C019B01AC01609146072A
:103AC0007091470780914807909149070E9454CD13
:103AD0006093460770934707809348079093490780
:103AE0006091450270914602809147029091480290
:103AF0000E94F3CCA30192010E9454CD0E94EFD406
:103B00006093450270934602809347029093480267
:103B10008092360790923707A0923807B092390703
:103B200007C00E94706BF701648B758B868B978B37
:103B30001F5FF4E0EF0EF11C143009F098CF0E94E3
:103B4000078E30C60E9468BD80EE9CE00E945F76C2
:103B500029C68091990790919A07009759F0DC0146
:103B60002C91222339F02091490821111BC60E9473
:103B7000976A18C60E94BB3715C600919907109125
:103B80009A0794E0F12C40E0915021F1F8018081F6
:103B9000282F2B7F213421F421812133D9F407C030
:103BA0008035C1F4818180538A3048F013C081345C
:103BB00021F0853421F441E002C0FF24F394980100
:103BC0002E5F3F4F89012F5F3F4FF8018081803288
:103BD000C9F3DACF41110E949870FF2021F081E7EC
:103BE00095E00E94826DC8010E94DA85DBC50E94C3
:103BF0009855D8C581E08093C00A8093BF0A0E947F
:103C0000B555D0C560E070E083E50E94F96B8C018A
:103C10001127023011053CF00E94947085E795E071
:103C20000E94826DBFC588E40E94EC6B8823A9F0D6
:103C30000E946C6B8A3A91053CF08530F1E09F0759
:103C40002CF084E091E002C08AEA90E0F801EE0FE7
:103C5000FF1FE05DF74F9183808386E40E94EC6B49
:103C6000882381F00E946C6B97FD07C08F3F910500
:103C700029F024F08FEF90E001C080E0F801E65DCC
:103C8000F74F808382E40E94EC6B882309F48AC595
:103C90000E946C6B8530910534F0843791052CF0CF
:103CA00083E790E002C085E090E0F801EE0FFF1F8F
:103CB000E45DF74F9183808375C50E949C70182F37
:103CC00087FD70C584E40E94A36B8823E9F10E94FC
:103CD000706B6B017C0101E020E030E0A9010E94E3
:103CE000EECC811101C000E000932C0A20E030E00E
:103CF000A901C701B6010E94EECC882329F124E076
:103D00001202F0011124EF5CF54FC082D182E282F1
:103D1000F38220E030E0A9016091310A7091320A0B
:103D20008091330A9091340A0E94EECC81110CC02C
:103D300080E090E0A0EEBFE38093310A9093320AD6
:103D4000A093330AB093340A0E94068A2BC50E94BE
:103D50009C7087FD27C5A4E6EA2EA1E0FA2E06E1B5
:103D600017E0D7018D917D010E94A36B882359F044
:103D70000E94706B0E94EFD4F8016083718382838C
:103D800093830E94C08D0C5F1F4FF7E006321F0720
:103D900041F708C50E949C7087FD04C5E4E6EE2E3D
:103DA000E1E0FE2E06E117E0F6E2CF2EF7E0DF2E8F
:103DB000D7018D917D010E94A36B882339F00E9469
:103DC000706BF80164A375A386A397A30C5F1F4FC4
:103DD000C016D10669F7E6C48091960787FD93C7A0
:103DE000809197078E7009F08EC740914A075091D5
:103DF0004B0760914C0770914D0787E995E00E9451
:103E00003E6E40914E0750914F0760915007709160
:103E100051078EE69AE00E943E6E40915207509103
:103E20005307609154077091550783E79BE00E9408
:103E30003E6E8AE00E94CF84B5C48091950781FDD3
:103E4000A8C78091960781FDA4C7809197078C70C1
:103E500009F09FC7A7C41F5FB4E0EB0EF11C13303D
:103E600009F418C888E5810F0E94A36B882399F391
:103E70000E94706BD7016D937D938D939C931397E4
:103E8000812F0E948C92E7CF4090BB0C5090BC0CCD
:103E90006090BD0C7090BE0C20910E0130910F010E
:103EA0004091100150911101C301B2010E94F3D35E
:103EB0006EA77FA788AB99AB8090BF0C9090C00C89
:103EC000A090C10CB090C20C20911201309113014E
:103ED0004091140150911501C501B4010E94F3D322
:103EE0006AAB7BAB8CAB9DABC090C30CD090C40CC9
:103EF000E090C50CF090C60C20911601309117018E
:103F00004091180150911901C701B6010E94F3D3E5
:103F10006EAB7FAB88AF99AF20911A0130911B0136
:103F200040911C0150911D01C301B2010E94F3D3C5
:103F30002B013C0120911E0130911F014091200175
:103F400050912101C501B4010E94F3D34B015C01E2
:103F500020912201309123014091240150912501AB
:103F6000C701B6010E94F3D36B017C010E949870D7
:103F700086ED95E00E94826D83E50E94A36B882305
:103F800021F00E945C6B809326018091260188239A
:103F900019F082EA9DE002C08AEA94E00E94826DF4
:103FA0008EEC95E00E94826D4EA55FA568A979A967
:103FB0008EEC9BE00E943E6E4AA95BA96CA97DA98C
:103FC00085E595E20E943E6E4EA95FA968AD79AD88
:103FD00083ED9AE00E943E6E86EB92E20E94826D33
:103FE00086EC95E00E94826DB301A2018EEC9BE00D
:103FF0000E943E6EB501A40185E595E20E943E6EE9
:10400000B701A60183ED9AE00E943E6E8AE00E940D
:10401000CF84C8C383E50E94EC6B882331F00E94F3
:104020006C6B909328018093270180919507909164
:104030009607A0919707B0919807892B8A2B8B2B15
:1040400009F0B0C3609127017091280186EE95E0D8
:104050000E944F6E85E20E94CF848AE00E94CF8446
:10406000A1C30E949C70F82E87FD9CC383E50E942B
:10407000EC6B0F2D0F2C000C110B882369F10E94A3
:104080006C6BF801EE0FFF1FE95CFE4F918380839C
:10409000000F111F000F111FF801EB5FFE4F7F0192
:1040A000BC01990F880B990B0E94F5CC2AE037EDE3
:1040B00043E25CE30E9454CDF801E35DF54F2081BB
:1040C0003181428153810E9454CDD7016D937D93FC
:1040D0008D939C93139766C30E94987085E40E9409
:1040E000CF8480E38F0D0E94CF84F801EE0FFF1F75
:1040F000E95CFE4F608171818AEE95E00E944F6E0F
:1041000085E20E94CF848AE00E94CF844BC380E581
:104110000E94A36B882309F445C360E070E080E54A
:104120000E94F96BF82E6FEF7FEF83E50E94F96B29
:104130008C010196039708F035C3F7FC33C38F2D2C
:104140000E9430C3882339F00E94947082EF95E07A
:104150000E94826D27C30E942B8E60E08F2D0E94EB
:1041600078B60F3FBFEF1B0731F00130110571F03A
:1041700000E010E00DC08F2D0E9420B631E020E05D
:10418000892B09F030E0032F122F02C001E010E06C
:104190008F2D0E9420B68017910709F403C30E9457
:1041A000FB85F6CF8AE50E94EC6B811105C083E5A3
:1041B0000E94EC6B8823E9F10E94706B20E030E0F4
:1041C00040E050EC0E94EECC87FD41C60E94706B2F
:1041D00020E030E040E050E40E9476D518160CF460
:1041E00031C60E94706B2091C20A2695269520FF49
:1041F00020C020913207309133074091340750910D
:1042000035070E9454CD0E94E8D420915F09309177
:104210006009260F371F3093600920935F092091B2
:104220004A0A30914B0A620F731F70934B0A6093D6
:104230004A0A8091970787FD0FC68091980783707F
:1042400009F00AC60E9498704091040A5091050A2C
:104250006091060A7091070A81E096E00E943E6E26
:104260008AE00E94CF849EC264E071E083E50E94F0
:10427000994F8C0168EE73E080E50E94994F893870
:10428000E3E19E0710F088E893E1B8010E946A6AB2
:1042900089C285E40E94DA37811173C080E50E94EB
:1042A000A36B882351F00E94706B60939F0C7093F6
:1042B000A00C8093A10C9093A20C89E40E94A36BA4
:1042C000882381F00E94706B2CEA35EC47E25EE3B4
:1042D0000E9454CD6093A30C7093A40C8093A50C02
:1042E0009093A60C84E40E94A36B882381F00E9423
:1042F000706B2CEA35EC47E25EE30E9476D4609363
:10430000A70C7093A80C8093A90C9093AA0C0E9400
:10431000987040919F0C5091A00C6091A10C7091ED
:10432000A20C88E296E00E943E6E2CEA35EC47E251
:104330005EE36091A30C7091A40C8091A50C909108
:10434000A60C0E9476D4AB01BC0184E296E00E94E8
:104350003E6E2CEA35EC47E25EE36091A70C70916B
:10436000A80C8091A90C9091AA0C0E9454CDAB018D
:10437000BC0180E296E00E943E6E8AE00E94CF84FB
:1043800011C20E9494708EE096E00E94826D0AC273
:1043900083E50E94A36B182F882371F00E94706B35
:1043A0000E94E8D470930A016093090121E0672B11
:1043B00009F020E02093620280E50E94A36B88232D
:1043C00059F02091090130910A01232B11F00E942C
:1043D0005C6B80936202E6C11111E4C10E94987087
:1043E00085E496E00E94826D80916202882319F034
:1043F0008FEF97E002C08CE296E00E94826D6091A0
:10440000090170910A0184E396E00E944F6E80E3F7
:1044100096E00E94826DC6C10E94AD44C3C181E096
:104420000E94BF8C0E940655BDC10E940071BAC196
:1044300088E50E94A36BD82E89E40E94A36BC82E46
:10444000882321F00E946C6BA82E28C0DD2011F17A
:104450000E94706B2091BB0C3091BC0C4091BD0C44
:104460005091BE0C0E94F2D320E030E040E251E4D3
:104470000E94F2D320E030E047E552E40E94F3D3FB
:1044800028EC38E648E15CE30E9454CD0E94E8D471
:10449000633018F0AA24AA9401C0A62E89E50E94D0
:1044A000A36BF82E8AE40E94A36B182F882321F0B7
:1044B0000E946C6BB82E28C0FF2011F10E94706B17
:1044C0002091BF0C3091C00C4091C10C5091C20C96
:1044D0000E94F2D320E030E040E251E40E94F2D3A7
:1044E00020E030E047E552E40E94F3D328EC38E6C0
:1044F00048E15CE30E9454CD0E94E8D4633018F098
:10450000BB24BA9401C0B62E8AE50E94A36BE82EA4
:10451000811105C081E50E94A36B082F01C000E056
:10452000C11001C010E0212F30E0D11001C0F12CEA
:104530002F0D311D2130310521F4E11009C0011189
:1045400007C00E94947088E596E00E94826D2AC19F
:10455000A7FC02C0B7FE07C00E94947081EF92E0F2
:104560000E94826D1FC10E94706BEA2CAA0CFF088A
:10457000AB2DBB0CBB0B002391F0F701EE0FFF1F1F
:10458000EE0DFF1DEA0FFB1FEE0FFF1FEE0FFF1FCB
:10459000E85FF54F208131814281538103C020E0E3
:1045A00030E0A901F701EE0FFF1FEE0DFF1DEA0F2E
:1045B000FB1FEE0FFF1FEE0FFF1F8F01085F154F50
:1045C0000E94F3D3D8016D937D938D939C931397A1
:1045D000E9C09091E70990FD02C087E001C086E044
:1045E00091FD8D7FFE0131961F0192FF3BC48B7FB1
:1045F00009F06DC409EA1AE18BEA9CE09FA78EA737
:104600009CEDC92E9AE1D92E7F01F8016591759133
:1046100085919491AEA5BFA58D909D90AD90BD90D4
:10462000BFA7AEA7A50194010E94F2D32B013C01C4
:10463000F701608371838283938320E030E040EA56
:1046400051EC0E9476D587FD0AC020E030E040EAB8
:1046500051E4C301B2010E94EECC18162CF4F6010D
:10466000849118160CF436C4D7018D909D90AD90AE
:10467000BD907D0120E030E040EA51ECC501B4017D
:104680000E9476D587FD31C420E030E040EA51E455
:10469000C501B4010E94EECC18160CF03AC425C432
:1046A0000E9402607FC00E94B3B47CC00E943CAEF6
:1046B00079C061E083E50E94086C91E089270E943F
:1046C0008D5670C081E08093620C0E9467AF10929B
:1046D000620C882309F466C00E94987086EC96E00C
:1046E0000E94826D5FC08091970787FD47C48091CB
:1046F0009807837009F042C44091360A5091370AF6
:104700006091380A7091390A8EE097E00E943E6EFF
:1047100040913A0A50913B0A60913C0A70913D0ADF
:1047200085E595E20E943E6E40913E0A50913F0A17
:104730006091400A7091410A83ED9AE00E943E6EBA
:104740008AE00E94CF842EC081E08093C40A109238
:10475000490860E083E50E94086C811123C00E9433
:10476000824C20C00E94CC371DC000919B07109145
:104770009C070023B9F00E94987084E50E94CF84C2
:10478000B8017727072E000C880B990B0E944385F0
:1047900080E20E94CF848EE096E00E94826D02C08B
:1047A0000E94CC37FDADF1110FC0E091530CF0E049
:1047B000E45BF24F8081882339F081EF98E00E941A
:1047C000826D8AE00E94CF842AAD20933002C2C459
:1047D0000E942B8E3091350A3CAF80E00E942D6CF8
:1047E0000E945C5381E08093C00A0E94B55588E521
:1047F0000E94A36B182F89E50E94A36B082F8AE5FE
:104800000E94A36B1013F2C1181711F0312E04C0CF
:104810003324339411E081E08EAB80E1EBEAFCE0DD
:10482000A8EEB9E001900D928A95E1F782E50E9429
:10483000EC6B882369F00E94706B6B017C0120E0B7
:1048400030E0A9010E94EECC882309F43FC006C0E5
:10485000C12CD12C00EAE02E00E4F02E111103C08F
:10486000332009F40FC18091C20A82FD09C0609112
:10487000B30C7091B40C8091B50C9091B60C03C040
:1048800060E070E0CB01A70196010E94F3D3609332
:10489000F0097093F1098093F2099093F309209144
:1048A000B30C3091B40C4091B50C5091B60C0E94F1
:1048B00076D518165CF419821A821B821C82BE01FE
:1048C0006F5F7F4F80EF99E00E945554112309F4E8
:1048D000D4C0332009F4CEC01092AB0C1092AC0CB3
:1048E0001092AD0C1092AE0C1092AF0C1092B00C56
:1048F0001092B10C1092B20C0E940455ECEDFAE14A
:1049000094919EAFE5EBFAE1C590D590E590F490D7
:10491000E9EBFAE185909590A590B490A5019401FA
:10492000C701B6010E9476D518162CF4A70196018E
:10493000C501B40104C0A5019401C701B6010E94DC
:1049400076D42B013C01E5ECFAE185919591A59196
:10495000B4918EA79FA7A8ABB9ABE1ECFAE1859122
:104960009591A591B4918AAB9BABACABBDAB9C01CF
:10497000AD016EA57FA588A999A90E9476D51816C4
:1049800034F42AA89BA99BAF0CA91DA905C02EA48D
:10499000AFA5ABAF08A919A9A3019201C301B20148
:1049A0000E9454CD20E030E040E85FE30E94F3D362
:1049B0000E94B4D5222D3BADA8010E9454CD69833D
:1049C0007A838B839C83EDEDFAE114914090B30CD4
:1049D0005090B40C6090B50C7090B60C20E030E0B4
:1049E00040EC5FE3C501B4010E9454CD4B015C0172
:1049F000612F110F770B880B990B0E94F5CC9B014F
:104A0000AC01C501B4010E9454CD4B015C0120E012
:104A100030E040EC5FE3C701B6010E9454CD6B016A
:104A20007C01BEAD6B2FBB0F770B880B990B0E94DF
:104A3000F5CC9B01AC01C701B6010E9454CDFE012B
:104A400031966F0183017201A50194010E94965372
:104A50000E94C4551092AB0C1092AC0C1092AD0C8D
:104A60001092AE0C1092AF0C1092B00C1092B10CD0
:104A70001092B20C80E00E94AC92332019F081E0D9
:104A80000E94AC92FEA9FF2309F49FC08091C20A44
:104A90008370833051F060E082EB92E00E94B86A4C
:104AA0000E94987083EA92E0ACC00E940455809105
:104AB000B30C9091B40CA091B50CB091B60C8EA72C
:104AC0009FA7A8ABB9AB2091360A3091370A409125
:104AD000380A5091390A60E070E08AEE92E40E9450
:104AE000F2D34B015C016093E8097093E90980936C
:104AF000EA099093EB0920913A0A30913B0A4091E0
:104B00003C0A50913D0A60E070E08AEE92E40E9417
:104B1000F2D32B013C016093EC097093ED09809373
:104B2000EE099093EF0920913E0A30913F0A40919F
:104B3000400A5091410A6EA57FA588A999A90E94B3
:104B4000F2D36093F0097093F1098093F209909386
:104B5000F30927E137EB41ED58EBC301B2010E94A5
:104B600076D587FD45C027E030E04BE653E4C3012E
:104B7000B2010E94EECC1816DCF127E137EB41EDD3
:104B800058EBC501B4010E9476D587FD31C027E0FE
:104B900030E04BE653E4C501B4010E94EECC181698
:104BA0003CF119821A821B821C82CE0101966C0193
:104BB000EEA4FFA408A919A9A3019201C501B4019B
:104BC0000E94965382E00E94AC920E94045580910C
:104BD000BF0A8093C00A8CAD0E942D6C0E94435383
:104BE00083E0809353010E940655DCCD302E14CE15
:104BF00060E082E992E00E94B86A0E94987080E8C2
:104C000092E00E94826DE1CF0E94FB850C94521AC3
:104C100010926D0E109330020E94BB37C3CD88E511
:104C20000E94A36B81115E9889E50E94A36B81119C
:104C30005E988AE50E94A36B882309F4B3CD15988A
:104C4000B1CD8DE40E94EC6B8823D9F00E94486BB3
:104C5000813069F038F0823079F462E0802F0E9470
:104C600078B6A0CD60E0802F0E9478B69BCD61E041
:104C7000802F0E9478B696CD8DE493E00E94826DDD
:104C800091CD83E50E94EC6B882309F48BCD0E94C3
:104C9000486BF82E34E0E31203C08093510282CDBA
:104CA00061E0802F0E9478B66F2D802F0E9449B658
:104CB0006F2D70E0802F0E94B4B674CD0E942B8EB1
:104CC00088E50E94A36B882331F05E9A8091C20A26
:104CD0008E7F8093C20A89E50E94A36B882331F0FE
:104CE0005E9A8091C20A8D7F8093C20A8AE50E94F3
:104CF000A36B882309F456CD159A8091C20A8B7F45
:104D00008093C20A4FCD83E50E94EC6B882391F01B
:104D10000E94706B60934A0770934B0780934C0717
:104D200090934D07609352077093530780935407F5
:104D30009093550780E50E94EC6B882351F00E9408
:104D4000706B60934A0770934B0780934C07909366
:104D50004D0782E50E94EC6B882351F00E94706B36
:104D600060934E0770934F078093500790935107BD
:104D700084E50E94EC6B882309F414CD0E94706BCB
:104D8000609352077093530780935407909355078D
:104D900009CD82E40E94A36B882351F00E94286B06
:104DA000609326077093270780932807909329071D
:104DB00083E50E94A36B882351F00E94706B60937F
:104DC000560770935707809358079093590784E5C7
:104DD0000E94A36B882351F00E94706B60935A0766
:104DE00070935B0780935C0790935D078AE40E9451
:104DF000A36B882309F4D6CC0E94706B6B017C01F5
:104E00002AE037ED43E25CE30E9476D587FD13C0CC
:104E10002AE939E949E95EE3C701B6010E94EECC0F
:104E200018164CF0C0923502D0923602E09237024A
:104E3000F0923802B7CC0E94947087EA95E00E9405
:104E4000826DB0CC60E070E080E090E4CCC960E0BE
:104E500070E080E090ECC7C982E50E94A36B8111ED
:104E6000F1C9A0CC29E032E081FF03C04BE052E061
:104E700002C041E252E080FF03C08DE092E002C038
:104E800081E292E03F932F935F934F939F938F9391
:104E900088E796E09F938F933F922F920E9486CC53
:104EA0000E949870C1010E94DA850FB6F894DEBFA7
:104EB0000FBECDBF80914908811103C0C1010E947E
:104EC000976A0FB6F894DEBF0FBECDBF6BCC21E260
:104ED00032E0CACFB7FAB094B7F8B094D7018D9248
:104EE0009D92AD92BC921397BFCB0E94947088EABA
:104EF00096E00E94826D61E08AE996E00E94B86ABD
:104F00000E94B69C68E270E088EC90E00E946A6AB9
:104F100049CC0C5F1F4FBFEFCB1ADB0AEAE1053B20
:104F20001E0709F072CB85ECE82E8AE0F82E10E01F
:104F3000F10181919191A191B1911F01F7018193AB
:104F40009193A193B1937F01812F0E948C921F5F57
:104F5000133071F70E94065560E08AE896E00E94DF
:104F6000B86A63E972E084E690E00E946A6A6AEBDC
:104F700072E084E690E00E946A6A14CCF091360AEE
:104F8000FEA78090370A7090380A6090390A5090D6
:104F90003A0A40903B0A30903C0A20903D0AC0906B
:104FA0003E0AD0903F0AE090400AF090410A88E51E
:104FB0000E94EC6B882361F10E94706B5B018C0195
:104FC00020E030E04BE653EC0E9476D587FD0AC026
:104FD00020E030E04BE653E4B501C8010E94EECC7E
:104FE000181694F46BEE70E08BEF96E00E944F6E13
:104FF0006BEE70E086EF96E00E944F6E84E995E0DC
:105000000E94826D10E005C0AEA68B2C702E612E22
:1050100011E089E50E94EC6B882381F10E94706B9E
:10502000962EA72EB82E092F20E030E04BE653EC49
:105030000E9476D587FD0CC020E030E04BE653E4BB
:10504000692D7A2D8B2D902F0E94EECC181694F49A
:105050006BEE70E083EE96E00E944F6E6BEE70E0B8
:1050600086EF96E00E944F6E84E995E00E94826D83
:1050700010E004C0592C4A2C3B2C202E8AE50E94BB
:10508000EC6B882339F10E94706B6B017C0120E08E
:1050900030E040EA51EC0E9476D587FD0AC020E05E
:1050A00030E040EA51E4C701B6010E94EECC181688
:1050B0008CF46CEE7FEF81ED96E00E944F6E64E120
:1050C00070E086EF96E00E944F6E84E995E00E94C2
:1050D000826D68CB112309F465CB8EA5982DA72D81
:1050E000B62D8093360A9093370AA093380AB0936E
:1050F000390A852D942DA32DB22D80933A0A9093D1
:105100003B0AA0933C0AB0933D0AC0923E0AD0925B
:105110003F0AE092400AF092410A44CB8EA59FA537
:10512000A8A9B9A98093290190932A01A0932B01E2
:10513000B0932C01E12CF12C00EC1FE70C946216CB
:10514000C0902901D0902A01E0902B01F0902C0111
:105150000C941B18EE960FB6F894DEBF0FBECDBFB1
:10516000DF91CF911F910F91FF90EF90DF90CF9043
:10517000BF90AF909F908F907F906F905F904F9077
:105180003F902F9008952F923F924F925F926F928F
:105190007F928F929F92AF92BF92CF92DF92EF92C7
:1051A000FF920F931F93CF93DF93CDB7DEB7CB560C
:1051B000D1090FB6F894DEBF0FBECDBF4B015A0127
:1051C00069012D96FFAEEEAE2D9720912A07309102
:1051D0002B0740912C0750912D07DC016D917D919B
:1051E0008D919C910E9454CD0E947BD5A3966CAF6B
:1051F0007DAF8EAF9FAFA39720912E0730912F07E1
:105200004091300750913107F401608171818281B2
:1052100093810E9454CD0E947BD5A7966CAF7DAF41
:105220008EAF9FAFA79720913207309133074091FF
:10523000340750913507D5016D917D918D919C91E9
:105240000E9454CD0E947BD5AB966CAF7DAF8EAFE4
:105250009FAFAB97209136073091370740913807C1
:1052600050913907F60160817181828193810E949A
:1052700054CD0E947BD567966CAF7DAF8EAF9FAF4C
:1052800067978091150783FF0EC067962CAD3DADE3
:105290004EAD5FAD67972093EC0C3093ED0C4093CF
:1052A000EE0C5093EF0C8091130790911407892B0B
:1052B00011F00C94CF35D801BC91B9ABF801F18154
:1052C000F9AFD80112962C90129713963C908091CA
:1052D000CA0C9091CB0C891B8F708F3019F40E94EF
:1052E000FB85F5CFB091CA0CAC96BFAFAC9780915F
:1052F000CA0CE82FF0E0F8A7EFA3FBE48F9FC001F2
:1053000011249C012D593D4F23963FAF2EAF23977B
:105310008091E00C9091E10CA091E20CB091E30C33
:10532000A3968CAC9DACAEACBFACA397881A990A7F
:10533000AA0ABB0A8091E40C9091E50CA091E60CBE
:10534000B091E70CA7962CAD3DAD4EAD5FADA797E4
:10535000281B390B4A0B5B0B2BA33CA34DA35EA36D
:105360008091E80C9091E90CA091EA0CB091EB0CC3
:10537000AB962CAD3DAD4EAD5FADAB97281B390B59
:105380004A0B5B0B29A73AA74BA75CA78091EC0CB3
:105390009091ED0CA091EE0CB091EF0C6796CCAC17
:1053A000DDACEEACFFAC6797C81AD90AEA0AFB0A73
:1053B00009F477C08091620281112DC020E030E0B5
:1053C000A9016091980C7091990C80919A0C909120
:1053D0009B0C0E94F3D30E94E8D4209109013091E4
:1053E0000A0162177307BCF467968CAD9DADAEAD34
:1053F000BFAD67978093EC0C9093ED0CA093EE0CEF
:10540000B093EF0C0E94987083E597E00E94826D44
:10541000C12CD12C7601C701B6010E94F5CC209198
:1054200005013091060140910701509108010E9449
:1054300054CD2B013C0120E030E0A9010E9476D53B
:1054400087FF04C077FA709477F8709420E030E01A
:1054500048E453E46091360770913707809138072C
:10546000909139070E9454CDA30192010E94EECC85
:1054700087FF17C067962CAD3DAD4EAD5FAD67970A
:105480002093EC0C3093ED0C4093EE0C5093EF0C0A
:105490000E94987084E397E00E94826DC12CD12C09
:1054A0007601D501C4018827B7FD83959927AA27DE
:1054B000BB27182F2BA13CA14DA15EA157FD126067
:1054C00089A59AA5ABA5BCA5B7FD1460F7FC18602B
:1054D000C701B6010E94F5CC20910501309106016B
:1054E00040910701509108010E9454CD6B017C014D
:1054F00020E030E0A9010E9476D587FF04C0C701F3
:10550000B601905802C0C701B60120E030E040E08B
:105510005FE30E94F3D30E94EFD46DAB7EAB8FAB01
:1055200098AF8BE4AFA1B8A58A9FF0018B9FF00DD7
:105530001124ED59FD4F108215AB29A53AA54BA5B5
:105540005CA52B962CAF3DAF4EAF5FAF2B9757FFAF
:105550000DC050954095309521953F4F4F4F5F4F6F
:105560002B962CAF3DAF4EAF5FAF2B978BA19CA17D
:10557000ADA1BEA18DA79EA7AFA7B8ABB7FF0BC0CB
:10558000B095A095909581959F4FAF4FBF4F8DA738
:105590009EA7AFA7B8AB24013501B7FE07C04424CE
:1055A00055243201481859086A087B082396AEAD85
:1055B000BFAD239755964D925D926D927C92589710
:1055C0002DA53EA54FA558A959962D933D934D93D2
:1055D0005C935C972B962CAD3DAD4EAD5FAD2B979C
:1055E0005D962D933D934D935C939097C501B401C7
:1055F0000E94F5CC20915202309153024091540206
:10560000509155020E9454CD21966CAF7DAF8EAF64
:105610009FAF2197698B7A8B8B8B9C8B6BA17CA125
:105620008DA19EA10E94F5CC209156023091570287
:1056300040915802509159020E9454CD6BA37CA313
:105640008DA39EA36D8B7E8B8F8B988F69A57AA57A
:105650008BA59CA50E94F5CC20915A0230915B024B
:1056600040915C0250915D020E9454CD4B015C015F
:10567000698F7A8F8B8F9C8F20915E0230915F02B1
:105680004091600250916102C701B6010E9454CD61
:105690006B017C016D8F7E8F8F8F98A3B6E04B16C8
:1056A0005104610471049CF52DA53EA54FA558A990
:1056B000263031054105510554F52B968CAD9DAD35
:1056C000AEADBFAD2B970697A105B10504F520E05F
:1056D00030E0A901C701B6010E9476D587FF04C05A
:1056E000F7FAF094F7F8F0948BE4AFA1B8A58A9F8D
:1056F00080018B9F100D11240D591D4F20E030E0CB
:10570000A901C701B6010E94F3D3F80154C02D9638
:10571000AEADBFAD2D97CD90DD90ED90FC9020E02B
:1057200030E0A901C701B6010E94EECC882379F0D0
:105730008BE42FA138A5829FF001839FF00D1124E7
:10574000ED59FD4FC586D686E786F08A38C021968A
:105750002CAD3DAD4EAD5FAD2197CA01B9010E94A0
:1057600054CD6B017C012BA13CA14DA15EA1CA01CE
:10577000B9010E9454CD9B01AC01C701B6010E9442
:10578000F3D36B017C01A5019401C501B4010E9412
:1057900054CD9B01AC01C701B6010E94F3D30E9416
:1057A000B4D52BE44FA158A5249FF001259FF00DFF
:1057B0001124ED59FD4F658776878787908B8BE4A1
:1057C000AFA1B8A58A9FF0018B9FF00D1124ED5970
:1057D000FD4F2DA93EA94FA958AD21A332A343A344
:1057E00054A32B968CAD9DADAEADBFAD2B972DA523
:1057F0003EA54FA558A982179307A407B50710F433
:10580000DA01C90184159505A605B70510F4D30181
:10581000C2012DA93EA94FA958AD82179307A4072D
:10582000B50710F4DA01C9012BE44FA158A5249F54
:10583000F001259FF00D1124ED59FD4F85A396A38E
:10584000A7A3B0A70697A105B10510F40C947D3667
:10585000EA5BFF4F80915102808345284628472804
:1058600009F05E988BE4AFA1B8A58A9FF0018B9FE9
:10587000F00D1124ED59FD4F818D928DA38DB48DC6
:10588000892B8A2B8B2B09F05E988BE42FA138A5EE
:10589000829FF001839FF00D1124ED59FD4F858DFE
:1058A000968DA78DB0A1892B8A2B8B2B09F015988B
:1058B0008DA99EA9AFA9B8AD892B8A2B8B2B11F48A
:1058C0000C94D1355E98E0905607F0905707009100
:1058D0005807109159079701A80169A979ADC1012D
:1058E0000E94EECC87FF03C0E9AAF9AE18018BE451
:1058F000AFA1B8A58A9FF0018B9FF00D1124ED593F
:10590000FD4F258536854785508960E070E080E849
:105910009FE30E9476D46DA77EA78FA798AB29A995
:1059200039ADA1010E9454CD6B017C018091CA0C5C
:105930009091C80C891B8F7089AFA701960160E018
:1059400074E284E799E40E9476D40E947BD54B01EF
:105950005C0189AD82508630C0F580912607909118
:105960002707A0912807B091290788169906AA064B
:10597000BB0658F588199909AA09BB09BC01CD01D4
:10598000660F771F881F991FB9AD0B2F10E020E01D
:1059900030E0A90198010E9444D3CA01B9010E94D4
:1059A000F3CC0E947BD5860E971EA81EB91EC5019A
:1059B000B4010E94F3CC9B01AC0160E074E284E787
:1059C00099E40E9476D46B017C010E945290409130
:1059D0004D0250914E0260914F0270915002480D5D
:1059E000591D6A1D7B1D40934D0250934E026093DA
:1059F0004F02709350029BE42FA138A5929FF001B3
:105A0000939FF00D1124E655FD4F80829182A28272
:105A1000B38281110E945F908BE44FA158A5849FAF
:105A20008001859F100D11240D591D4FD8011D9621
:105A30008D919D910D90BC91A02D2B968CAF9DAF1B
:105A4000AEAFBFAF2B97A7019601BC01CD010E945D
:105A500054CD9B01AC010E9454CD2F966CAF7DAF0D
:105A60008EAF9FAF2F97F8016183728383839483F6
:105A700045A056A067A070A4C301B2010E94F3CC58
:105A800069AB7AAB8BAB9CAB9B01AC01C701B60198
:105A90000E9454CD0E945FD40E94EFD463966CAFF5
:105AA0007DAF8EAF9FAF6397D801D6966D937D93F0
:105AB0008D939C93D997FE017196FEAFEDAF2AE3CB
:105AC00037E069963FAF2EAF6997AE01435E5F4FF7
:105AD0005AA349A3212C312C50E85BA38FE389A75B
