:100000000C94AC120C94D6120C94D6120C94D612FA
:100010000C94D6120C94D6120C94D6120C94D612C0
:100020000C94D6120C947CAE0C94D6120C94D6126E
:100030000C94D6120C94BC9C0C94D6120C94D61230
:100040000C94D6120C94C0990C9432AE0C94D61227
:100050000C9478330C946E330C94D6120C94D61204
:100060000C94D6120C94D6120C94D6120C94D61270
:100070000C94D6120C94D6120C94D6120C94D61260
:100080000C94D6120C94D6120C94D61265A468A4C3
:100090005BA45FA47FA47FA46CA470A476A47AA4BC
:1000A00025A72AA72FA739A767A767A743A74BA705
:1000B00053A75DA790B84FB786B7CCB886B786B7B9
:1000C00086B786B786B786B786B786B786B786B748
:1000D00086B786B786B786B786B786B786B786B738
:1000E00086B786B786B786B786B786B786B786B728
:1000F000C6B886B786B786B786B786B786B786B7D7
:1001000086B79FB886B786B786B786B786B786B7ED
:1001100086B786B786B786B7E3B883B74E414E49F0
:100120004E495459494E46CDCCCC3D0AD7233C17B5
:10013000B7D13877CC2B329595E6241FB14F0A0002
:100140000020410000C84200401C4620BCBE4CCAF2
:100150001B0E5AAEC59D7400407A10F35A00A0726F
:100160004E18090010A5D4E80000E87648170000F2
:10017000E40B54020000CA9A3B000000E1F50500C0
:100180000080969800000040420F000000A0860109
:10019000000000102700000000E8030000000064D9
:1001A00000000000000A0000000000010000000044
:1001B000002C76D888DC674F0823DFC1DFAE59E119
:1001C000B1B796E5E3E453C63AE651997696E8E688
:1001D000C28426EB898C9B62ED407C6FFCEFBC9C5B
:1001E0009F40F2BAA56FA5F490055A2AF75C936B6D
:1001F0006CF9676DC11BFCE0E40D47FEF520E6B528
:1002000000D0ED902E0300943577050080841E0801
:100210000000204E0A000000C80C333333330F981F
:100220006E12831141EF8D2114893BE65516CFFEE6
:10023000E6DB18D1844B381BF77C1D901DA4BBE472
:1002400024203284725E228100C9F124ECA1E53DB4
:100250002700000000000000000000000000006B0C
:100260004300006B4300007A43A702A2029B029462
:100270000286020000A0410000A04100008040FF73
:10028000FFFF20573A00434F4D4D554E49434154CF
:10029000494F4E0044525952554E004552524F520A
:1002A0005300494E464F004543484F006F6B003F97
:1002B0005A206F7574206F662072616E6765202802
:1002C000003F59206F7574206F662072616E6765FC
:1002D00020282D0020746F20003F58206F75742057
:1002E0006F662072616E676520282D0050726F6204
:1002F00065204F6666736574205800454550524F1F
:100300004D204F4B0A004F66667365747320417031
:10031000706C696564004572723A20546F6F206694
:1003200061722100546F6F206661722066726F6D7A
:10033000207265666572656E636520706F696E74A4
:100340000A004D34323120696E636F7272656374D6
:1003500020706172616D6574657220757361676587
:100360000A006469730043290A0061626C656420B5
:10037000286D696E2074656D702000436F6C642079
:100380006578747275646573206172652000496ECA
:1003900076616C69642065787472756465720A00B0
:1003A00020643A0020693A0020703A0020466C6FC1
:1003B000773A200046523A0020204D61783A2000DA
:1003C00020204D696E3A2000536F667420656E647C
:1003D00073746F70733A20003F4A206F7574206FFA
:1003E000662072616E67652028302E303120746F70
:1003F00020302E33290A002054002052004163632C
:10040000656C65726174696F6E3A2050004D3134CD
:100410003520533C696E6465783E206F7574206F9B
:10042000662072616E67652028302D31290A002F01
:100430002F20004348414D4245525F54454D5045A1
:10044000524154555245004D4F54494F4E5F4D4F08
:1004500044455300544845524D414C5F50524F540F
:10046000454354494F4E004155544F5245504F5209
:10047000545F53445F5354415455530050524F4DB1
:1004800050545F535550504F525400454D455247BC
:10049000454E43595F5041525345520043415345E5
:1004A0005F4C494748545F4252494748544E455370
:1004B0005300544F47474C455F4C494748545300FD
:1004C000534F4654574152455F504F574552004293
:1004D00055494C445F50455243454E54004C455697
:1004E000454C494E475F44415441005A5F50524F7A
:1004F0004245004155544F4C4556454C00505249D9
:100500004E545F4A4F420050524F4752455353009A
:100510004155544F5245504F52545F54454D500031
:10052000564F4C554D455452494300454550524F46
:100530004D0042494E4152595F46494C455F545225
:10054000414E534645520053455249414C5F584F26
:100550004E5F584F4646004649524D574152455FFF
:100560004E414D453A4D61726C696E20322E302EEF
:10057000352E3320284769744875622920534F551A
:100580005243455F434F44455F55524C3A6874743B
:1005900070733A2F2F6769746875622E636F6D2FC1
:1005A0004D61726C696E4669726D776172652F4D2F
:1005B00061726C696E2050524F544F434F4C5F56DE
:1005C000455253494F4E3A312E30204D4143484910
:1005D0004E455F545950453A4A526F636B20455817
:1005E0005452554445525F434F554E543A3120556D
:1005F0005549443A63656465326132662D34316130
:10060000322D343734382D396231322D633535632C
:1006100036326633363766660A004A526F636B209D
:100620004F46462E0042656420436F6F6C696E67CB
:100630002E2E2E004265642048656174696E672E17
:100640002E2E004D3131332053004D3131322053A5
:10065000687574646F776E006F6666004445425536
:10066000473A0050726F7465637465642050696E18
:100670000A00496E76616C69642050696E204D6F86
:1006800064650A0025697920256964202569682048
:1006900025696D20256973005072696E7420746934
:1006A0006D653A20004E6F204D6F76652E00436CCD
:1006B00069636B20746F20526573756D652E2E2EE5
:1006C000004D65736820706F696E742063616E6E93
:1006D0006F74206265207265736F6C7665640A00C2
:1006E0005A2050726F6265205061737420426564B5
:1006F0000A005A2050726F62652050617374204264
:10070000656400486F6D652058592066697273747E
:100710000A00486F6D65205859204669727374004D
:10072000536C6565702E2E2E004572726F722077A5
:10073000726974696E6720746F20454550524F4D41
:10074000210A00627573793A2070617573656420BF
:10075000666F7220696E7075740A00627573793AFB
:100760002070617573656420666F722075736572A1
:100770000A00627573793A2070726F6365737369EA
:100780006E670A002121204B494C4C206361757330
:10079000656420627920746F6F206D7563682069CD
:1007A0006E6163746976652074696D65202D2063C0
:1007B000757272656E7420636F6D6D616E643A2040
:1007C0000053544F505045442E20005072696E74AF
:1007D00065722073746F7070656420647565207431
:1007E0006F206572726F72732E204669782074686C
:1007F00065206572726F7220616E6420757365206A
:100800004D39393920746F20726573746172742E9A
:10081000202854656D706572617475726520697306
:100820002072657365742E2053657420697420618D
:10083000667465722072657374617274696E67297B
:100840000A004E6F20436865636B73756D2077698E
:100850007468206C696E65206E756D6265722C20FF
:100860004C617374204C696E653A2000636865635F
:100870006B73756D206D69736D617463682C204CAA
:10088000617374204C696E653A20004C696E652076
:100890004E756D626572206973206E6F74204C61B5
:1008A0007374204C696E65204E756D6265722B31D4
:1008B0002C204C617374204C696E653A20004D31D8
:1008C000313000506C65617365205265736574004A
:1008D0005052494E5445522048414C5445440025FD
:1008E000533A202553004B494C4C45442E20005090
:1008F00072696E7465722068616C7465642E206B19
:10090000696C6C28292063616C6C6564210A006540
:1009100063686F3A004572726F723A0042696C699F
:100920006E656172204C6576656C696E67204772F2
:1009300069643A0A000F150E1216170E1303021AF5
:100940001401000E0C190DFF180C040001536574FE
:1009500074696E67732053746F7265642028004356
:100960006F6E66696775726174696F6E004D6F7442
:10097000696F6E004175746F20486F6D6500546833
:1009800065726D6973746F727300426F6172642077
:10099000496E666F005072696E74657220496E66AA
:1009A0006F0041626F7574205072696E74657200D9
:1009B00054756E6500496E666F2053637265656E8F
:1009C000004D38340044697361626C65205374656E
:1009D00070706572730047323800507265686561E7
:1009E0007420504C41204265640050726568656116
:1009F0007420504C4120456E64001FE020102010F0
:100A000020101020102020102010303008400480CA
:100A100003001FE03FF03FF03FF01FE01FE03FF01A
:100A20003FF03FF00FC0078003003FFFF038007039
:100A300030FC3020FC102078102030102C00D02EFC
:100A400031D02F7BD02F7BD02E31D02C00D0203036
:100A50001020781020FC1030FC303800703FFFF080
:100A60003FFFF03800703186302387102787902FA2
:100A700087D02F03D020301020781020781020301D
:100A8000102F03D02F87D0278790238710318630EF
:100A90003800703FFFF01FFFF81FFFF804104002FE
:100AA0000820020820041040082080104100104156
:100AB000000820800410400000001FFFF81FFFF80E
:100AC000202020202020200046696C2E20446961CF
:100AD0002E004520696E206D6DC2B300656E717584
:100AE000657565696E672022004D333033205531BE
:100AF00020452569205325690050494420417574DB
:100B00006F74756E65202A005049442D44202A00D8
:100B10005049442D49202A005049442D50202A0094
:100B200020082046616374002008204D6178002071
:100B300008204D696E004175746F74656D700045D5
:100B400073746570732F6D6D005A73746570732FB5
:100B50006D6D005973746570732F6D6D00587374EB
:100B60006570732F6D6D004F6666004F6E004164B7
:100B700076616E6365642053657474696E67730093
:100B800046696C616D656E740053746570732F6D8A
:100B90006D0053746F72652053657474696E67736A
:100BA000004C6F61642053657474696E6773005004
:100BB000726F6265205A204F6666736574004661E5
:100BC000646520486569676874004732380A4732AF
:100BD00039004C6576656C2042656400526573741B
:100BE0006F72652044656661756C747300313235CF
:100BF000004245443A4550434F53203130304B007A
:100C000052756E617761792057617463683A204F3D
:100C10004E004D61782054656D7000323735004DBF
:100C2000696E2054656D700045313A204550434F40
:100C300053203130304B005053550047656E65727C
:100C400069630050726F746F636F6C00312E3000F7
:100C50004261756400323530303030004D656C7A59
:100C6000692028437265616C697479290042696C56
:100C7000696E656172204C6576656C696E670045CA
:100C8000787472756465727300687474703A2F2F8B
:100C90006D61726C696E66772E6F7267004A526F73
:100CA000636B00323032302D30332D333100322E31
:100CB000302E352E33005072696E7420506175737A
:100CC00065640020746F6F206C6F6E6720657874A8
:100CD000727573696F6E2070726576656E74656487
:100CE0000A0020636F6C6420657874727573696F95
:100CF0006E2070726576656E7465640A00220A0063
:100D0000556E6B6E6F776E20636F6D6D616E643ABA
:100D10002022004A526F636B2052656164792E0075
:100D20005072696E74696E672E2E2E0020204D3829
:100D300035312058005A2D50726F6265204F66661B
:100D40007365740020204D333031205000504944E9
:100D50002073657474696E67733A002046002048FA
:100D60000020204D3134352053004D617465726987
:100D7000616C2068656174757020706172616D6569
:100D8000746572733A002020473239205720490099
:100D900020204D3432302053004175746F2042655D
:100DA00064204C6576656C696E673A0020204D3290
:100DB0003036205800486F6D65206F666673657425
:100DC0003A00204A0020204D323035204200416454
:100DD00076616E6365643A20423C6D696E5F73654F
:100DE000676D656E745F74696D655F75733E2053E2
:100DF0003C6D696E5F66656564726174653E205422
:100E00003C6D696E5F74726176656C5F6665656482
:100E1000726174653E204A3C6A756E635F646576F4
:100E20003E0020204D323034205000416363656C19
:100E300065726174696F6E2028756E6974732F73A3
:100E400032293A20503C7072696E745F6163636549
:100E50006C3E20523C726574726163745F616363BF
:100E6000656C3E20543C74726176656C5F616363AF
:100E7000656C3E0020204D3230312058004D6178A5
:100E8000696D756D20416363656C65726174696F2E
:100E90006E2028756E6974732F7332293A002045CD
:100EA0000020204D3230332058004D6178696D7537
:100EB0006D206665656472617465732028756E695E
:100EC00074732F73293A00537465707320706572C0
:100ED00020756E69743A0020204D32303020443045
:100EE0000A0020204D3230302044002044697361D4
:100EF000626C65640A0046696C616D656E7420738E
:100F0000657474696E67733A0020204D313439205E
:100F100043203B20556E69747320696E2043656CD5
:100F2000736975730A0020286D6D290020204732EF
:100F300031202020203B20556E69747320696E207B
:100F40006D6D00486F6D696E67204661696C656400
:100F5000006F70656E005452494747455245440042
:100F60007A5F6D696E00795F6D696E00785F6D699B
:100F70006E005265706F7274696E6720656E64737F
:100F8000746F70207374617475730A0020436F75F9
:100F90006E7420583A00453100626564002C20735D
:100FA000797374656D2073746F7070656421204867
:100FB00065617465725F49443A20004865617469EF
:100FC0006E67204661696C65640048656174696E8E
:100FD00067206661696C65640024F4D43050C38E68
:100FE00020C2A24017828B7011127A910D816CD9A8
:100FF0000AA861E108C7586607615143061E4B5DA8
:1010000005C145A7041A411104093D9803713931FE
:10101000034036DB0265339102D4305402802E1D2A
:1010200002632CEE01752AC501B028A001102781AA
:10103000018F2564012B244B01E0223401AC211FD8
:10104000018D200D01801FFC00841EED00971DDF27
:1010500000B81CD200E61BC600201BBC00641AB2FC
:1010600000B219A8000A19A0006A189900D11791B6
:101070000040178B00B516840031167E00B3157939
:10108000003A157300C7146F0058146A00EE136617
:10109000008813630025135E00C7125B006C1257B3
:1010A0000015125400C111510070114F0021114B55
:1010B00000D61049008D104700461044000210422F
:1010C00000C00F4000800F3E00420F3C00060F3B67
:1010D00000CB0E3800930E37005C0E3500270E341F
:1010E00000F30D3200C10D3100900D3000600D2E67
:1010F00000320D2D00050D2C00D90C2B00AE0C2953
:1011000000850C29005C0C2700350C27000E0C26EE
:1011100000E80B2400C40B2400A00B23007D0B234C
:10112000005A0B2100390B2100180B2000F80A1F70
:1011300000D90A1E00BB0A1E009D0A1D00800A1D60
:1011400000630A1C00470A1B002C0A1B00110A1A24
:1011500000F7091A00DD091900C4091900AB0919C3
:1011600000920917007B091800630917004C091643
:101170000036091600200916000A091500F50815A1
:1011800000E0081400CC081400B8081400A40814E7
:1011900000900813007D0812006B08130058081215
:1011A000004608120034081100230811001208112B
:1011B0000001081100F0071000E0071000D0071030
:1011C00000C0071000B0070F00A107100091070E24
:1011D0000083070F0074070F0065070E0057070E06
:1011E0000049070E003B070D002E070E0020070DDB
:1011F0000013070D0006070D00F9060C00ED060DA3
:1012000000E0060C00D4060C00C8060C00BC060C5E
:1012100000B0060C00A4060B0099060C008D060B0E
:101220000082060B0077060B006C060B0061060AB5
:101230000057060B004C060A0042060A0038060A50
:10124000002E060A0024060A001A060A00100609E3
:101250000007060A00FD050900F4050900EB050971
:1012600000E2050900D9050900D0050900C70509F4
:1012700000BE050900B5050800AD050800A5050973
:10128000009C050800940508008C050800840508EA
:10129000007C050800740508006C0507006505085A
:1012A000005D050700560508004E050700470507C5
:1012B000004005080038050700310507002A05072A
:1012C00000230507001C050600160507000F05078B
:1012D000000805060002050700FB040600F50407E8
:1012E00000EE040600E8040600E2040700DB040642
:1012F00000D5040600CF040600C9040600C3040696
:1013000000BD040600B7040600B1040500AC0406E5
:1013100000A6040600A00405009B04060095040531
:1013200000900406008A0405008504050080040678
:10133000007A04050075040500700405006B0405BF
:101340000066040500610405005C040500570405FF
:1013500000520405004D040500480405004304053F
:10136000003E0404003A040500350405003004047E
:10137000002C04050027040400230405001E0404B7
:10138000001A04040016040500110404000D0404EE
:1013900000090405000404040000040400FC030424
:1013A00000F8030400F4030400F0030400EC030459
:1013B00000E8030400E4030400E0030400DC030489
:1013C00000D8030400D4030400D0030400CC0304B9
:1013D00000C8030300C503030024F404D9201BC480
:1013E0000C5C0E9804C4095F0265077101F405F9ED
:1013F00000FB04B30048048700C10369005803558B
:101400000003034500BE023A008402310053022A61
:10141000002902250004022000E4011C00C8011973
:1014200000AF01170098011400840113007101102E
:10143000006101100051010E0043010D0036010B47
:10144000002B010B0020010B00150109000C010904
:101450000003010800FB000800F3000800EB000790
:1014600000E4000600DE000600D8000600D20006F8
:1014700000CC000500C7000500C2000500BD000447
:1014800000B9000400B5000400B1000400AD000480
:1014900000A9000400A5000300A20003009F0004AF
:1014A000009B0003009800030095000200930003D6
:1014B00000900003008D0002008B000300880002F2
:1014C000008600020084000300810002007F000209
:1014D000007D0002007B000200790002007700011D
:1014E0000076000200740002007200010071000228
:1014F000006F0002006D0001006C0002006A000134
:10150000006900020067000100660001006500013B
:10151000006400020062000100610001006000013F
:10152000005F0002005D0001005C0001005B000143
:10153000005A000100590001005800010057000145
:101540000056000100550001005400010053000046
:101550000053000100520001005100010050000141
:10156000004F0001004E0000004E0001004D000140
:10157000004C0001004B0000004B0001004A00013C
:101580000049000100480000004800010047000138
:101590000046000000460001004500000045000133
:1015A000004400010043000000430001004200002D
:1015B0000042000100410000004100010040000124
:1015C000003F0000003F0001003E0000003E00011F
:1015D000003D0000003D0001003C0000003C000018
:1015E000003C0001003B0000003B0001003A00000D
:1015F000003A000100390000003900010038000005
:1016000000380000003800010037000000370001FA
:1016100000360000003600000036000100350000F2
:1016200000350000003500010034000000340000E7
:1016300000340001003300000033000000330001DB
:1016400000320000003200000032000100310000D2
:1016500000310000003100010030000000300000C7
:1016600000300001002F0000002F0000002F0000BC
:10167000002F0001002E0000002E0000002E0001AF
:10168000002D0000002D0000002D0000002D0001A5
:10169000002C0000002C0000002C0000002C000199
:1016A000002B0000002B0000002B0000002B00018D
:1016B000002A0000002A0000002A0000002A000181
:1016C0000029000000290000002900000029000076
:1016D0000029000100280000002800000028000068
:1016E000002800000028000100270000002700005B
:1016F000002700000027000000270001002600004E
:101700000026000000260000002600000026000140
:101710000025000000250000002500000025000035
:101720000025000000250001002400000024000026
:101730000024000000240000002400010023000019
:10174000002300000023000000230000002300000D
:1017500000230000002300010022000000220000FE
:1017600000220000002200000022000000220001F0
:1017700000210000002100000021000000210000E5
:1017800000210000002100000021000100200000D5
:1017900000200000002000000020000000200000C9
:1017A000002000000020000000200001001F0000B9
:1017B000001F0000001F0000001F0000001F0000AD
:1017C000001F0000001F0001001E0000001E00009E
:1017D000001E0000001E000000043700001E29004B
:1017E00000511B00005810000010090000CC04003C
:1017F0000078020000410100004F46460A004661A1
:101800006465204865696768742000426564204CFF
:101810006576656C696E6720004661696C65642059
:10182000746F20656E61626C6520426564204C6552
:1018300076656C696E670A00496E76616C69642032
:101840006D6573682E0A0050726F62696E67205072
:101850006F696E740025532025692F256900507229
:101860006F62696E67206D65736820706F696E7452
:101870002000202844525952554E29004732392021
:101880004175746F20426564204C6576656C696EA5
:1018900067003F20284C2C522C462C4229206F7583
:1018A00074206F6620626F756E64732E0A003F2885
:1018B00056296572626F7365206C6576656C206968
:1018C0006D706C61757369626C652028302D3429E8
:1018D0002E0A00426164205A2076616C75650A0008
:1018E0004E6F2062696C696E65617220677269640F
:1018F0000A00204D393220580020496E76616C690B
:101900006420657874727564657220004361703A72
:1019100000526573656E643A20004520255300230C
:10192000646566696E652044454641554C545F00C8
:101930004B6420004B6920004B702000504944202C
:101940004175746F74756E652066696E697368653C
:1019500064212050757420746865206C6173742054
:101960004B702C204B6920616E64204B6420636FA8
:101970006E7374616E74732066726F6D2062656C35
:101980006F7720696E746F20436F6E66696775723A
:101990006174696F6E2E680A005049442041757465
:1019A0006F74756E65206661696C65642120746969
:1019B0006D656F75740A000A20436C617373696307
:1019C00020504944200A00204B643A2000204B69F3
:1019D0003A2000204B703A20002054753A20002015
:1019E0004B753A2000206D61783A2000206D696EB9
:1019F0003A200020643A200020626961733A200096
:101A0000504944204175746F74756E65207374611C
:101A100072740A00504944204175746F74756E6584
:101A2000206661696C6564212054656D7065726122
:101A30007475726520746F6F20686967680A00505A
:101A40004944204175746F74756E65206661696CD8
:101A500065642120426164206578747275646572E2
:101A6000206E756D6265720A0054656D70657261F5
:101A700074757265004D61696E00507265686561CC
:101A8000742041425320456E640050726568656160
:101A900074204142532042656400436F6F6C646F51
:101AA000776E005072656865617420414253005042
:101AB00072656865617420504C410046616E205328
:101AC00070656564004E6F7A7A6C65004261627978
:101AD00073746570205A00466C6F7700202D204982
:101AE0006E76616C696420657874727564657220C5
:101AF0006E756D62657220210A00544845524D4151
:101B00004C2052554E4157415900546865726D61E1
:101B10006C2052756E61776179004572723A204D82
:101B2000415854454D50004D415854454D50207436
:101B30007269676765726564004572723A204D4943
:101B40004E54454D50004D494E54454D50207472F1
:101B50006967676572656400202F002042403A0083
:101B600020403A0070012C0190012701B0012201B0
:101B7000C0011D01F00118011002130130020E0115
:101B80006002090190020401C002FF000003FA0094
:101B90004003F5008003F000D003EB002004E600D2
:101BA0007004E100E004DC004005D700C005D2006D
:101BB0004006CD00D006C8008007C3003008BE0034
:101BC000F008B900C009B400B00AAF00B00BAA0019
:101BD000D00CA500000EA000500F9B00C010960076
:101BE0005012910000148C00C0158700B0178200BD
:101BF000B0197D00D01B7800001E730040206E00DD
:101C000090226900F024640040275F0090295A0068
:101C1000E02B5500102E500020304B0010324600B3
:101C2000E033410090353C00103737007038320007
:101C3000A0392D00B03A2800A03B2300603C1E00D4
:101C4000103D1900903D1400103E0F00703E0A0038
:101C5000C03E0500003F0000403FFBFF803FF6FF15
:101C6000C03FF1FF5761726E696E673A20486F6D31
:101C7000696E672042756D702044697669736F7272
:101C8000203C20310A000202040000A0400000A015
:101C9000400000004000002100240027002A00002E
:101CA000002200250028002B000000200023002631
:101CB00000290002020202020202020404040404D7
:101CC00004040403030303030303030101010101EB
:101CD00001010101020408102040800102040810E3
:101CE000204080010204081020408080402010081D
:101CF000040201000000010200090A0000000004C3
:101D000003080700000000000000000000000000C1
:101D10000000004D6F76652025736D6D004D6F7668
:101D20006520302E316D6D004D6F766520316D6D03
:101D3000004D6F76652031306D6D004D6F766520FA
:101D40004178697300486F74656E6420746F6F200A
:101D5000636F6C64004578747275646572004D6FD2
:101D60007665205A004D6F76652059004D6F766577
:101D70002058004572723A207574663820666F6E7E
:101D800074206E6F7420696E697469616C697A651C
:101D9000642E00000C0D00FE07022603BC017FFE2E
:101DA00008FE08FE05080806000040F0C88888986C
:101DB0007810050808060000C0F88888888888F828
:101DC0000505050600012030F8302005080806004A
:101DD000002070F820202020E00509090600FF20DF
:101DE00070A8A8B888887020050606060001E08C57
:101DF000EA8C8A0A0509090600FFF8A888888888FD
:101E000088A8F8050A0A0600FE205050505088A8FD
:101E1000A8887003030306000340A040FFFFFFFFF4
:101E2000FFFFFFFFFFFFFFFFFFFFFFFFFFFFFFFFC2
:101E3000FFFF0000000605FF010707060200808083
:101E40008080800080030303060105A0A0A0050692
:101E50000606000050F85050F8500509090600FF2A
:101E60002070A8A07028A87020050707060000C8E9
:101E7000C8102040989805070706000040A0A04021
:101E8000A890680103030602058080800309090603
:101E900001FF204040808080404020030909060166
:101EA000FF804040202020404080050707060000BA
:101EB00020A8702070A8200505050600012020F844
:101EC00020200203030601FFC04080050101060037
:101ED00003F8020202060100C0C005070706000061
:101EE0000810102040408005070706000070889801
:101EF000A8C8887003070706010040C04040404062
:101F0000E0050707060000708808102040F8050764
:101F100007060000F808103008887005070706005B
:101F20000010305090F81010050707060000F880E8
:101F3000F008088870050707060000304080F08828
:101F40008870050707060000F808101020202005FB
:101F500007070600007088887088887005070706E4
:101F6000000070888878081060020505060100C02E
:101F7000C000C0C00206060601FFC0C000C040800D
:101F800003050506010120408040200503030600EB
:101F900002F800F803050506010180402040800595
:101FA000070706000070881020200020050707069C
:101FB00000007088B8A8B880700507070600007098
:101FC0008888F8888888050707060000F048487068
:101FD0004848F005070706000070888080808870F8
:101FE000050707060000F04848484848F00507077D
:101FF000060000F88080F08080F8050707060000E2
:10200000F88080F0808080050707060000708880D7
:1020100080988870050707060000888888F88888F7
:1020200088030707060100E04040404040E0050704
:102030000706000038101010109060050707060012
:10204000008890A0C0A09088050707060000808047
:1020500080808080F805070706000088D8A8888857
:1020600088880507070600008888C8A8988888051A
:1020700007070600007088888888887005070706AB
:102080000000F08888F08080800507070600007057
:10209000888888A89068050707060000F08888F0FF
:1020A000A090880507070600007088807008887077
:1020B000050707060000F82020202020200507073C
:1020C0000600008888888888887005070706000051
:1020D000888888885050200507070600008888886F
:1020E00088A8A85005070706000088885020508857
:1020F0008805070706000088885020202020050753
:1021000007060000F80810204080F80309090601BE
:10211000FFE080808080808080E005070706000067
:10212000804040201010080309090601FFE020202C
:102130002020202020E0050303060005205088050C
:1021400001010600FEF80303030601058040200597
:102150000505060000700878887805070706000066
:102160008080F0888888F005050506000070808072
:1021700088700507070600000808788888887805B1
:1021800005050600007088F080700507070600004E
:10219000304840E04040400507070600FE70888850
:1021A000887808700507070600008080F088888816
:1021B000880307070601004000C0404040E00409D2
:1021C000090601FE1000301010101090600507077E
:1021D00006000080808890E09088030707060100D1
:1021E000C04040404040E0050505060000D0A8A8DA
:1021F000A8A8050505060000B0C88888880505055B
:1022000006000070888888700507070600FEF088C1
:102210008888F080800507070600FE78888888781F
:102220000808050505060000B0C880808005050582
:1022300006000078807008F00507070600002020DF
:10224000F820202018050505060000888888986871
:10225000050505060000888888502005050506004C
:10226000008888A8A8500505050600008850205061
:10227000880507070600FE888888502040800505ED
:1022800005060000F8102040F80309090601FF20A8
:1022900040404080404040200109090602FF808004
:1022A000808080808080800309090601FF80404093
:1022B00040204040408005030306000248A890FFEC
:1022C000022020506C616E6E6572427566666572A2
:1022D00042797465733A20002046726565204D6529
:1022E0006D6F72793A2000436F6D70696C65643A66
:1022F0002041707220323720323032300A00204CB8
:1023000061737420557064617465643A20323032B0
:10231000302D30332D3331207C20417574686F723D
:102320003A20286A726F636B2C20456E6465722DAB
:1023300033290A00322E302E352E330A004D6172B9
:102340006C696E0020536F66747761726520526508
:102350007365740A00205761746368646F67205264
:10236000657365740A002042726F776E206F757412
:102370002052657365740A002045787465726E6139
:102380006C2052657365740A00506F7765725570E2
:102390000A00456E6473746F7073002553202563C3
:1023A00020256320256320256300656E6473746FA8
:1023B0007073206869743A20002062797465733BF9
:1023C0002063726320004E6F20454550524F4D2EC2
:1023D0000A00454550524F4D206461746173697A1B
:1023E00065206572726F722E0A002073746F7265B9
:1023F000642073657474696E6773207265747269A2
:10240000657665642028004572723A204545505231
:102410004F4D2043524300202863616C63756C610B
:1024200074656429210A0020213D20004545505251
:102430004F4D20435243206D69736D617463682072
:102440002D202873746F7265642920004572723ADA
:1024500020454550524F4D20496E64657800205309
:10246000697A653A2000496E6465783A20004572C1
:10247000723A20454550524F4D2056657273696F30
:102480006E00204D61726C696E3D563736290A0028
:10249000454550524F4D2076657273696F6E206DC1
:1024A00069736D617463682028454550524F4D3DF6
:1024B0000048617264636F64656420446566617599
:1024C0006C742053657474696E6773204C6F61641B
:1024D00065640A003B20000000FA430000FA430054
:1024E00000A0400000C8410000A0420000A042003F
:1024F00000C8430000BA42F4010000F40100006487
:102500000000008813000020453A00205A3A0020BD
:10251000593A00205A3A200020593A200042656476
:1025200020583A200050726F62696E6720466169D8
:102530006C65640A0050726F62696E67204661695B
:102540006C656400486F6D652025732573257320C5
:1025500046697273740080CB11241FBECFEFD0E4A4
:10256000DEBFCDBF12E0A0E0B1E0EEE1F4EB01E0B0
:102570000BBF02C007900D92A034B107D9F72EE02F
:10258000A0E4B2E001C01D92A03CB207E1F712E165
:10259000CCEAD2E104C02197FE010E949FD7CB3A3A
:1025A000D107C9F70E9466C80C940DDA0C9400009C
:1025B0002F923F924F925F926F927F928F929F9253
:1025C000AF92BF92CF92DF92EF92FF920F931F9341
:1025D000CF93DF93CDB7DEB7AF970FB6F894DEBFDA
:1025E0000FBECDBF209139032DA381E08093390325
:1025F000809138038D3409F4B4C3843511F40C94FC
:10260000A221873411F00C94BD2180913603909162
:1026100037038D31910509F430C18CF48430910574
:1026200009F4DDC01CF4029790F197C38531910540
:1026300011F40C94BF214C9709F40FC18EC38A3555
:10264000910509F4EEC144F48E31910509F429C1D4
:102650008A9709F45BC281C38B35910509F4E5C102
:102660008C35910509F079C3F0E72F2EF1E03F2E6C
:10267000A0ECEA2EA2E0FA2E45E05DE05F8B4E8BE7
:10268000B5E1CB2EBDE0DB2E00E010E00EC2809164
:102690003403813011F00C94BF2184E2C82E83E012
:1026A000D82E95E0E92E9DE0F92E25E1A22E2DE011
:1026B000B22E10E088E5810F0E945A7F882319F11D
:1026C0000E94DA7E2B013C01812F0E94C28F882359
:1026D00051F0D7012D913D914D915C91C301B20113
:1026E0000E94B1D709C0F501208131814281538117
:1026F000C301B2010E94B0D7D6016D937D938D9333
:102700009C9313970AC0F70180819181A281B381C4
:10271000F60180839183A283B3831F5FF4E0CF0E21
:10272000D11C24E0E20EF11C34E0A30EB11C1330E6
:1027300009F685E40E945A7F882301F10E94DA7E1F
:102740006B017C0183E00E94C28F882371F020918D
:10275000110D3091120D4091130D5091140DC701C0
:10276000B6010E94B1D76B017C01C0923003D092B8
:102770003103E0923203F092330310C08091110DC7
:102780009091120DA091130DB091140D8093300310
:1027900090933103A0933203B093330340E050E0B1
:1027A000BA0186E40E947B8720E030E0A9010E9404
:1027B00034D9181684F40E94DA7E20E030E040E735
:1027C00052E40E9434D860936C0170936D01809341
:1027D0006E0190936F010E94DB680C94BF2180E52D
:1027E0000E945A7F882329F00E9419906B017C0176
:1027F00003C0C12CD12C760183E50E945A7F882327
:1028000061F00E94DA7E20E030E04AE754E40E9462
:1028100020D10E94ADD86B017C010E94A19E8091C5
:10282000CF02811105C060E080E297E00E94AD3DDB
:102830000E9426AEC60ED71EE81EF91E0E9426AEC6
:10284000DC01CB018C199D09AE09BF09B7FD02C09F
:102850000C94BF210E94972FF1CF8091B90E877001
:10286000873011F00C94D22160E08FE40E94827FC7
:1028700081110C94BF210C94D2210E9442C4811179
:102880000C94BF218091CE02882311F40C94EC2388
:1028900060E08FE40E94827F81110C94BF210C9430
:1028A000EC232091AC0E3091AD0E4091AE0E5091C4
:1028B000AF0E6091050D7091060D8091070D9091FE
:1028C000080D0E94B1D7AB01BC0188E50E947B874F
:1028D00069837A838B839C832091B00E3091B10EF3
:1028E0004091B20E5091B30E6091090D70910A0D96
:1028F00080910B0D90910C0D0E94B1D7AB01BC01E2
:1029000089E50E947B876D837E838F839887BE01D4
:102910006B5F7F4FCE0101960E94F57C882311F4F6
:102920000C94BF2180E00E94F5290E94736C61E045
:1029300085E40E94827F21E0482FBE016B5F7F4FBC
:10294000CE0101960E94A6C46B017C019B01AC01E3
:102950000E94B2D981115FC089809A80AB80BC800F
:1029600020E030E0A901C501B4010E94BAD087FF80
:1029700005C027E137EB41E558EB04C027E137EB11
:1029800041E558E3C501B4010E94B1D7AB01BC01D8
:102990008DE195E20E945F2F8D809E80AF80B8848C
:1029A00020E030E0A901C501B4010E94BAD087FF40
:1029B00005C027E137EB41E558EB04C027E137EBD1
:1029C00041E558E3C501B4010E94B1D7AB01BC0198
:1029D00088E195E20E945F2F20E030E0A901C70165
:1029E000B6010E94BAD087FF05C067E177EB81E5A9
:1029F00098EB04C067E177EB81E598E3A7019601C6
:102A00000E94B1D7AB01BC0183E195E20E945F2F28
:102A10008AE00E94B52C0E945A6C0E94046E0C94AD
:102A2000BF21109235030C94BF218FE080933503B2
:102A30000C94BF210E94DA7E2B013C01133049F037
:102A4000F60120813181428153810E94B0D72B0150
:102A50003C01AE89BF892D913D914D915C91C3019F
:102A6000B2010E94B0D74B015C012DEB37E346E881
:102A700055EB0E9434D987FD20C02DEB37E346E8A3
:102A800055E3C501B4010E94BAD01816B4F01F5F17
:102A9000B4E0EB0EF11CEE89FF893496FF8BEE8BD0
:102AA000F4E0CF0ED11C143039F1D1018D911D010C
:102AB0000E945A7F882359F3BDCF133051F44092BE
:102AC000110D5092120D6092130D7092140D01E0D1
:102AD000DECFA5019401F70160817181828193812C
:102AE0000E94B1D7D7016D937D938D939C931397DB
:102AF000812F0E9408A3CBCF002321F081E19DE02C
:102B00000E947FA10E94046E0C94BF218091340327
:102B1000813011F00C94BF2189E40E945A7FE82E85
:102B2000882321F00E94D67E082F01C000E08AE4AD
:102B30000E945A7FF82E882321F00E94D67E182FFB
:102B400001C010E0EE2011F0033020F4FF2041F02E
:102B5000133030F081EC96E00E94BC2C0C94BF2125
:102B600080E1E5E0FDE0A4E2B3E001900D928A95FA
:102B7000E1F7EE2019F1602F000F770B880B990B0E
:102B80000E94C1D02091B0023091B1024091B202B6
:102B90005091B3020E9420D12091B8023091B90225
:102BA0004091BA025091BB020E94B1D760932403B6
:102BB000709325038093260390932703FF2019F138
:102BC000612F110F770B880B990B0E94C1D02091B8
:102BD000B4023091B5024091B6025091B7020E9402
:102BE00020D12091BC023091BD024091BE02509193
:102BF000BF020E94B1D7609328037093290380938A
:102C00002A0390932B0360E080E50E94827F882353
:102C1000C1F1EE20D1F02091AC0E3091AD0E40917B
:102C2000AE0E5091AF0E60912403709125038091F8
:102C30002603909127030E94B0D7609324037093DA
:102C400025038093260390932703FF20D1F0209142
:102C5000B00E3091B10E4091B20E5091B30E609112
:102C600028037091290380912A0390912B030E94DD
:102C7000B0D7609328037093290380932A0390931D
:102C80002B0340E050E0BA0186E40E947B876B0191
:102C90007C0120E030E0A9010E9434D918165CF4D0
:102CA00020E030E040E752E4C701B6010E9434D88A
:102CB0006B017C0103C0C12CD12C760180906C018A
:102CC00090906D01A0906E01B0906F0120E030E017
:102CD000A901C701B6010E94BAD0882341F0C09271
:102CE0006C01D0926D01E0926E01F0926F01009143
:102CF00021011091220184E690E0909322018093BB
:102D00002101C0903201D0903301E0903401F09065
:102D1000350180E090E0A0E8BFE38093320190931A
:102D20003301A0933401B09335010E94DB68809297
:102D30006C0190926D01A0926E01B0926F011093A0
:102D4000220100932101C0923201D0923301E0921E
:102D50003401F09235010C94BF210E949A680C94C2
:102D6000BF2180913603909137038C38910509F487
:102D7000FBC30CF0F7C08836910509F407C30CF0CB
:102D800044C08C34910509F4ECC2FCF48231910505
:102D900009F465C46CF497FF02C00C949F21823043
:102DA00091050CF496C1419709F4F3C10C949F214D
:102DB0008A32910509F4B8C28B34910509F4CDC269
:102DC0004F9711F00C949F2101C28335910509F4AE
:102DD0003FC47CF48135910509F41FC40CF031C463
:102DE0008D34910511F00C949F210E94D6380C94DB
:102DF000BF218535910509F45FC40CF430C48C35CE
:102E0000910509F47CC40C949F218037910509F445
:102E10007AC3B4F48C36910509F470C33CF48A3655
:102E2000910509F4EAC20CF4D4C204C38E369105AC
:102E300009F409C30CF018C30E94C48D0C94BF217F
:102E40008537910509F4ECC40CF075C08237910503
:102E500009F4DFC40CF461C38337910511F00C94BD
:102E60009F2187E595E00E94BC2C60E087E495E017
:102E70000E94818D60E082E395E00E94818D61E097
:102E80008BE295E00E94818D61E080E295E00E94F6
:102E9000818D61E080E195E00E94818D60E087E0B6
:102EA00095E00E94818D61E08DEF94E00E94818D1C
:102EB00061E083EF94E00E94818D61E08BEE94E00D
:102EC0000E94818D61E08DED94E00E94818D60E033
:102ED0008FEC94E00E94818D60E080EC94E00E9491
:102EE000818D60E082EB94E00E94818D60E08CE94E
:102EF00094E00E94818D60E08BE894E00E94818DD7
:102F000060E08CE794E00E94818D60E087E694E0C9
:102F10000E94818D61E084E594E00E94818D60E0F3
:102F200087E494E00E94818D60E083E394E00E9456
:102F3000818D0C94BF218737910509F4BFC40CF42F
:102F400083C48837910509F4BCC48937910511F011
:102F50000C949F211092CD021092CC020E94B36E6D
:102F60000C94BF218D3221E0920711F40C94AA1F1A
:102F70000CF04CC08D3C910509F4C9C5FCF4883CAB
:102F8000910509F401C574F48B39910509F41FC347
:102F90008E3B910509F409C38139910511F00C9418
:102FA0009F2197C48B3C910509F45EC50CF07BC54D
:102FB000893C910509F432C50C949F218D3D910502
:102FC00009F4BFC69CF4833D910509F4CDC58C3D41
:102FD000910509F48FC68E3C910511F00C949F2148
:102FE0007EE6E72E72E0F72E10E0ACC5823241E0BB
:102FF000940709F447C78C3251E0950709F495C747
:10300000823E910511F00C949F21F1C6853AA1E012
:103010009A0711F40C947A207CF58139E1E09E073F
:1030200011F40C94712094F48F3221E0920711F482
:103030000C946E2014F40C942A208039914011F0E5
:103040000C949F210E94A19E0C94BF218A3951E0CB
:10305000950709F45FC2843AA1E09A0711F40C9431
:1030600077208239914011F00C949F210E94F27CCC
:103070000E94046E0C94BF21863FE1E09E0711F48C
:103080000C94432184F4843F21E0920711F40C94C2
:103090003D2114F00C9440218C3A914011F40C9491
:1030A000DF200C949F21883F51E0950711F40C9488
:1030B0004F2114F40C9446218335B3E09B0711F49F
:1030C0000C946021873E934011F40C9491210C9450
:1030D0009F2180E50E945A7F882329F00E94199041
:1030E0006B017C0103C0C12CD12C760183E50E94C9
:1030F0005A7F882361F00E94DA7E20E030E04AE7C0
:1031000054E40E9420D10E94ADD86B017C010E9442
:10311000A19E8091AE029091AF02009739F020916C
:10312000B80E211108C00E948C3D05C060E08EEAF7
:1031300096E00E94AD3D1091390383E080933903FE
:1031400081E08093AD02C114D104E104F10431F0B7
:103150000E9426AEC60ED71EE81EF91E8091AD0253
:10316000882311F40C94F323C114D104E104F10475
:1031700011F40C94EF230E9426AEDC01CB018C19D4
:103180009D09AE09BF09B7FF02C00C94EF230C9450
:10319000F3238091A90284FF02C00C94FA2380914A
:1031A000AB0287FF02C00C94FA238091AC028370BB
:1031B00011F00C94FA2360E085EA96E00E94AD3DA0
:1031C0005E985E9815985E980C94BF210E946338B3
:1031D0007B018C0120E831E541E050E00E9410D7EE
:1031E000C9016DE671E00E9458D74B015C01C8012E
:1031F000B70120E13EE040E050E00E9410D7CA0154
:10320000B90128E130E040E050E00E9410D7762E6E
:10321000672EC62ED72EECE32E2E312C412C512CAE
:10322000C801B701A20191010E9410D7F62EE72E26
:10323000CA01B901A20191010E9410D7CB018E01F0
:103240000F5F1F4F8114910499F0EF92FF927F93CB
:103250006F936F927F92BF92AF929F928F9284E80A
:1032600096E09F938F931F930F930E9452D013C0A9
:10327000A114B104B1F0EF92FF927F936F936F921C
:103280007F92BF92AF9288E896E09F938F931F93AF
:103290000F930E9452D00FB6F894DEBF0FBECDBF81
:1032A00030C0CD2879F0EF92FF927F936F936F92A9
:1032B0007F928CE896E09F938F931F930F930E94C9
:1032C00052D0E9CF892B69F0EF92FF927F936F93F1
:1032D00080E996E09F938F931F930F930E9452D0A3
:1032E000DACFEF92FF9284E996E09F938F931F933A
:1032F0000F930E9452D00F900F900F900F900F904D
:103300000F908091B80E811103C0C8010E948C3DBE
:103310000E94E22CB80188E996E00E94CB2C8AE05A
:103320000E94B52C0C94BF216FEF7FEF80E50E94C7
:10333000677F8C0197FF02C00C94BF21E82E60E0EC
:1033400089E40E94827F81110C940C24802F0E94BA
:10335000D4C6811169C50C940C240E94B2380C9417
:10336000BF2180914304813011F00C94BF2182E091
:10337000809343040E9426AE6093A5027093A60238
:103380008093A7029093A8020C94BF2180912409F6
:1033900083FF02C00C94BF210E949B8D87FF02C057
:1033A0000C94BF2183E50E945A7F882379F00E9404
:1033B000DA7E0E94A6D8CB010E94C8970E94F89995
:1033C000811104C00E94D6380E9489680E94069E1E
:1033D000D6C70E949B8D182F87FD0AC08CEA92E009
:1033E0000E94BC2C812F0E94D8978AE00E94B52CA5
:1033F000EDA1E09339030C94C32760E080E50E94BF
:10340000767F8111BCC781E40E94117F882321F05F
:103410006091600470E002C06FEF70E083E50E948D
:103420006E8D8F3F910519F010F08FEF90E0809333
:103430006004A5C760E080E50E94767F81119FC788
:10344000109260049CC78EE40E945A7F882309F47E
:1034500096C70E94A27E6093A1027093A2028093FD
:10346000A3029093A4028BC783E50E94117F882357
:1034700031F060E083E50E94767F809324090E940A
:10348000E22C8CE596E00E94BC2C809124098823D4
:1034900069F179E6E72E72E0F72E00E010E020E017
:1034A0008091240990E0A0E0B0E0002E04C0B69521
:1034B000A795979587950A94D2F780FF0EC0DD24D3
:1034C000D394D20E222319F08CE20E94B52CF7017E
:1034D000859194910E94BC2C2D2D0F5F1F4FF2E01F
:1034E000EF0EF11C05301105D9F604C088E596E011
:1034F0000E94BC2C8AE00E94B52C41C71092AD02FC
:10350000109220013CC741E060E070E08AE496E060
:103510000E94E62C0E94532C32C783E50E945A7FFA
:10352000882371F00E94B27E282F30E02D333105C0
:103530001CF480931F0123C78CE380931F011FC7D6
:103540000E94E22CC0901F01D12CE12CF12C83E4CD
:1035500096E00E94BC2C4AE0C701B6010E94BC2D37
:103560008AE00E94B52C0BC78091240983FD07C710
:1035700083E50E945A7F882379F00E94DA7E0E94B8
:10358000A6D86337710514F063E770E070939F026B
:1035900060939E020E9429960E94F8998111EFC6BD
:1035A0000E94D6380E948968EAC68091240983FD6A
:1035B000E6C683E50E945A7F8EA381110C944924AC
:1035C00082E50E945A7F81110C944924D8C683E574
:1035D0000E945A7F882309F4D2C60E94B27E182F17
:1035E00090E0CD970CF01CE3109391020E9426AE60
:1035F0006B017C01212F30E0A8EEB3E00E943DD7A3
:10360000C60ED71EE81EF91EC0928D02D0928E0201
:10361000E0928F02F0929002B2C60E940B9A0E9432
:10362000D6380E94B19E0E94DB8F68EE73E080E086
:1036300090E00E941B2C60E08AE196E00E94AD3D84
:103640009EC6809135038F7D80618093350397C638
:10365000809135038F7E80628093350390C683E529
:103660000E945A7F882399F00E94DA7E20E030E0A1
:103670004AE754E40E9420D10E94ADD860931B0118
:1036800070931C0180931D0190931E0178C6809158
:10369000A90284FF02C00C94CA258091AB0287FF67
:1036A00002C00C94CA258091AC02837011F00C9476
:1036B000CA250E94B19E63C683E50E94117F8823BC
:1036C00009F45DC60E9426AE609392027093930245
:1036D00080939402909395020E94DA7E20E030E07D
:1036E0004AE754E40E9420D10E94ADD86093890239
:1036F00070938A0280938B0290938C0240C60E9442
:103700009B8D87FD3CC69091A90294FD04C09091C9
:10371000AB0297FF0AC030E7C32E31E0D32E45E25B
:10372000E42E49E0F42E10E009C09091AC029370B1
:1037300091F7682F81E00E94DE8F21C6D6018D911E
:103740006D010E945A7F882309F459C0133009F093
:103750004FC00E94DA7E4B015C0120E030E040EA7D
:1037600051E40E94BAD087FF3AC0A501940160914C
:1037700045097091460980914709909148090E9436
:1037800034D82B013C019B01AC016091550970912B
:10379000560980915709909158090E9420D1609351
:1037A0005509709356098093570990935809609171
:1037B00054047091550480915604909157040E94CE
:1037C000BFD0A30192010E9420D10E94ADD8609386
:1037D0005404709355048093560490935704809238
:1037E000450990924609A0924709B092480907C03E
:1037F0000E94DA7EF701648B758B868B978B1F5F37
:10380000F4E0EF0EF11C143009F098CF0E947D9E79
:10381000B6C50E94A7C18AE39DE00E94CF75AFC5DF
:103820008091AE029091AF02009759F0DC012C918B
:10383000222339F02091B80E2111A1C50E948C3DA0
:103840009EC50E9489689BC50091AE021091AF028F
:1038500094E0F12C40E0915021F1F8018081282F73
:103860002B7F213421F421812133D9F407C0803505
:10387000C1F4818180538A3048F013C0813421F033
:10388000853421F441E002C0FF24F39498012E5FB7
:103890003F4F89012F5F3F4FF80180818032C9F38C
:1038A000DACF41110E94E22CFF2021F08FE294E058
:1038B0000E94BC2CC8010E94762F61C50E94966EA2
:1038C0005EC581E08093CD028093CC020E94B36EEE
:1038D00056C560E070E083E50E94677F8C01112788
:1038E000023011053CF00E94DE2C8DE094E00E9435
:1038F000BC2C45C588E40E945A7F8823A9F00E9409
:10390000D67E8A3A91053CF08530F1E09F072CF095
:1039100084E091E002C08AEA90E0F801EE0FFF1F18
:10392000EB57FD4F9183808386E40E945A7F882362
:1039300081F00E94D67E97FD07C08F3F910529F048
:1039400024F08FEF90E001C080E0F801ED57FD4FCB
:10395000808382E40E945A7F882309F410C50E9464
:10396000D67E8530910534F0843791052CF083E7BD
:1039700090E002C085E090E0000F111FF801E158CF
:10398000FD4F91838083FBC40E949B8D182F87FD80
:10399000F6C484E40E94117F8823E9F10E94DA7E54
:1039A0006B017C0101E020E030E0A9010E94BAD067
:1039B000811101C000E000937E0220E030E0A90107
:1039C000C701B6010E94BAD0882329F124E012026F
:1039D000F0011124E658FD4FC082D182E282F382C9
:1039E00020E030E0A90160917A0270917B02809121
:1039F0007C0290917D020E94BAD081110CC080E0BF
:103A000090E0A0EEBFE380937A0290937B02A093B4
:103A10007C02B0937D020E94579CB1C40E949B8D92
:103A200087FDADC4F0E7EF2EF1E0FF2E05E219E0CF
:103A3000A5E3CA2EA9E0DA2ED7018D917D010E945F
:103A4000117F882359F00E94DA7E0E94ADD8F801D8
:103A500060837183828393830E94369E0C5F1F4F25
:103A6000C016D10649F78BC40E949B8D87FD87C481
:103A7000E0E7EE2EE1E0FE2E05E219E0D7018D91A0
:103A80007D010E94117F882339F00E94DA7EF801BF
:103A900064A375A386A397A30C5F1F4FF9E00533BA
:103AA0001F0761F76CC48091AA0287FF02C00C94C3
:103AB000EF258091AB028E7011F00C94EF254091B0
:103AC000590950915A0960915B0970915C098DEF19
:103AD00093E00E945F2F40915D0950915E096091D3
:103AE0005F09709160098AEF93E00E945F2F409117
:103AF000610950916209609163097091640987EFCF
:103B000093E00E945F2F8AE00E94B52C38C4809118
:103B1000A90281FF02C00C9435268091AA0281FF80
:103B200002C00C9435268091AB028C7011F00C947D
:103B3000352625C41F5FB4E0EB0EF11C133011F4E1
:103B40000C94821588E5810F0E94117F882391F3E0
:103B50000E94DA7ED7016D937D938D939C9313978A
:103B6000812F0E9408A3E6CF4090150D5090160DAE
:103B70006090170D7090180D209103013091040191
:103B80004091050150910601C301B2010E94B1D7D5
:103B90006E8B7F8B888F998F8090190D90901A0D66
:103BA000A0901B0DB0901C0D2091070130910801D1
:103BB0004091090150910A01C501B4010E94B1D799
:103BC0006A8F7B8F8C8F9D8FC0901D0DD0901E0DA6
:103BD000E0901F0DF090200D20910B0130910C0111
:103BE00040910D0150910E01C701B6010E94B1D75D
:103BF0006E8F7F8F88A399A320910F0130911001C0
:103C00004091110150911201C301B2010E94B1D73C
:103C10002B013C01209113013091140140911501B9
:103C200050911601C501B4010E94B1D74B015C014E
:103C300020911701309118014091190150911A01FA
:103C4000C701B6010E94B1D76B017C010E94E22C32
:103C500088EC93E00E94BC2C83E50E94117F8823AE
:103C600021F00E94C67E8093020180910201882388
:103C700019F08FE09CE002C083E595E00E94BC2C27
:103C800080EC93E00E94BC2C4E895F89688D798D11
:103C90008AE79EE00E945F2F4A8D5B8D6C8D7D8D43
:103CA00089E69DE10E945F2F4E8D5F8D68A179A10D
:103CB00082E69DE10E945F2F86EC9AE00E94BC2C78
:103CC00088EB93E00E94BC2CB301A2018AE79EE03E
:103CD0000E945F2FB501A40189E69DE10E945F2F3C
:103CE000B701A60182E69DE10E945F2F8AE00E9453
:103CF000B52C45C383E50E945A7F882331F00E948A
:103D0000D67E90932201809321018091A902909107
:103D1000AA02A091AB02B091AC02892B8A2B8B2B0B
:103D200009F02DC3609121017091220184EB93E091
:103D30000E94522E85E20E94B52C8AE00E94B52C8A
:103D40001EC30E949B8DF82E87FD19C383E50E9438
:103D50005A7F0F2D0F2C000C110B882369F10E9444
:103D6000D67EF801EE0FFF1FE050FF4F9183808356
:103D7000000F111F000F111FF801EE5CFE4F7F01B5
:103D8000BC01990F880B990B0E94C1D02AE037ED36
:103D900043E25CE30E9420D1F801E659FD4F208107
:103DA0003181428153810E9420D1D7016D937D934F
:103DB0008D939C931397E3C20E94E22C85E40E94AA
:103DC000B52C80E38F0D0E94B52C000F111FF80158
:103DD000E050FF4F608171818CEA93E00E94522E87
:103DE00085E20E94B52C8AE00E94B52CC8C280E50D
:103DF0000E94117F882309F4C2C260E070E080E570
:103E00000E94677FF82E6FEF7FEF83E50E94677F48
:103E10008C010196039708F0B2C2F7FCB0C28F2D57
:103E20000E94D4C6882339F00E94DE2C83E696E0F7
:103E30000E94BC2CA4C20E94A19E60E08F2D0E9413
:103E4000C2A60F3FBFEF1B0731F00130110571F023
:103E500000E010E00DC08F2D0E946AA631E020E046
:103E6000892B09F030E0032F122F02C001E010E08F
:103E70008F2D0E946AA68017910709F480C20E94C4
:103E8000972FF6CF8AE50E945A7F811105C083E5FE
:103E90000E945A7F8823E9F10E94DA7E20E030E018
:103EA00040E050EC0E94BAD087FD3DC70E94DA7E08
:103EB00020E030E040E050E40E9434D918160CF4C1
:103EC0002DC70E94DA7E2091AB0E2695269520FF05
:103ED00020C02091410930914209409143095091FD
:103EE00044090E9420D10E94A6D8209168023091F6
:103EF0006902260F371F30936902209368022091D0
:103F0000660230916702620F731F709367026093BD
:103F100066028091AB0287FD0BC78091AC02837073
:103F200009F006C70E94E22C2AC264E071E083E532
:103F30000E946E8D8C0168EE73E080E50E946E8DAC
:103F40008938E3E19E0710F088E893E1B8010E9408
:103F50005F3D15C260E085E40E94767F811173C0E9
:103F600080E50E94117F882351F00E94DA7E6093E1
:103F7000F90C7093FA0C8093FB0C9093FC0C89E481
:103F80000E94117F882381F00E94DA7E2CEA35ECB2
:103F900047E25EE30E9420D16093FD0C7093FE0C1B
:103FA0008093FF0C9093000D84E40E94117F88237E
:103FB00081F00E94DA7E2CEA35EC47E25EE30E9453
:103FC00034D86093010D7093020D8093030D90938C
:103FD000040D0E94E22C4091F90C5091FA0C609172
:103FE000FB0C7091FC0C88EA93E00E945F2F2CEA96
:103FF00035EC47E25EE36091FD0C7091FE0C809120
:10400000FF0C9091000D0E9434D8AB01BC0184EAF2
:1040100093E00E945F2F2CEA35EC47E25EE360916B
:10402000010D7091020D8091030D9091040D0E947D
:1040300020D1AB01BC0180EA93E00E945F2F8AE0AF
:104040000E94B52C9CC10E94DE2C8EE893E00E9459
:10405000BC2C95C183E50E94117F182F882371F035
:104060000E94DA7E0E94A6D87093370160933601D1
:1040700021E0672B09F020E02093710480E50E9485
:10408000117F882359F02091360130913701232B7D
:1040900011F00E94C67E8093710471C111116FC12D
:1040A0000E94E22C8BE793E00E94BC2C809171046B
:1040B000882319F08EEB99E002C082E693E00E941B
:1040C000BC2C60913601709137018AE693E00E9422
:1040D000522E86E693E00E94BC2C51C10E9492872A
:1040E0004EC181E00E942F9D0E94046E48C10E9433
:1040F000988545C16FEF7FEF89E40E94677F182F95
:104100006FEF7FEF8AE40E94677F082F8AE50E94A5
:10411000117FF82E811105C081E50E94117FD82EF4
:1041200001C0D12C17FD06C007FD04C0F11009C065
:10413000D11007C00E94DE2C82E493E00E94BC2CC8
:104140001EC1133010F4033038F00E94DE2C81ECD5
:1041500096E00E94BC2C13C1E12E110FFF08002E27
:10416000000C110B0E94DA7ED701AA0FBB1FDD20C5
:1041700081F0FD01EE0DFF1DE00FF11FEE0FFF1F9F
:10418000EE0FFF1FEE5BFD4F208131814281538195
:1041900003C020E030E0A901EA0EFB1E0E0D1F1D3A
:1041A000000F111F000F111F0E5B1D4F0E94B1D792
:1041B000D8016D937D938D939C931397E0C00E94DB
:1041C00042C48111DCC001E512E0E5E0FDE0FF8BB7
:1041D000EE8B9E012F5F3F4F19019FE7C92E92E0A2
:1041E000D92E7901F8016591759185919491AE89E7
:1041F000BF898D909D90AD90BD90BF8BAE8BA5017A
:1042000094010E94B0D72B013C01F70160837183B8
:104210008283938320E030E040EA51EC0E9434D95D
:1042200087FD0AC020E030E040EA51E4C301B2015A
:104230000E94BAD018162CF4F601849118160CF4CA
:104240007DC5D7018D909D90AD90BD907D0120E002
:1042500030E040EA51ECC501B4010E9434D987FD39
:1042600078C520E030E040EA51E4C501B4010E9485
:10427000BAD018160CF081C56CC50E94A2337FC05D
:104280000E94D4B67CC00E94B5AF79C061E083E5DE
:104290000E94827F91E089270E948B6F70C081E02D
:1042A000809341020E94DDB010924102882309F4FC
:1042B00066C00E94E22C8BEF92E00E94BC2C5FC093
:1042C0008091AB0287FD8FC58091AC02837009F0AD
:1042D0008AC54091AC0E5091AD0E6091AE0E7091BA
:1042E000AF0E8CEE92E00E945F2F4091B00E509185
:1042F000B10E6091B20E7091B30E89E69DE10E94FD
:104300005F2F4091B40E5091B50E6091B60E709132
:10431000B70E82E69DE10E945F2F8AE00E94B52CD5
:104320002EC081E0809334031092B80E60E083E5E4
:104330000E94827F811123C00E948F8B20C00E9427
:104340009A681DC000913603109137030023B9F01D
:104350000E94E22C84E50E94B52CB8017727072E35
:10436000000C880B990B0E94362E80E20E94B52C1F
:104370008EE893E00E94BC2C02C00E949A68E091F3
:104380004002F0E0EA55F24F8081882339F08CEA50
:1043900092E00E94BC2C8AE00E94B52CFDA1F09313
:1043A0003903F1C50E94A19E2091CE022BA380E08B
:1043B0000E94F5290E94736C81E08093CD020E94D7
:1043C000B36E88E50E94117F182F89E50E94117F46
:1043D000082F8AE50E94117F1013EFC1181711F002
:1043E000312EECC13324339411E041E04E8F80E153
:1043F000E5E0FDE0A4E2B3E001900D928A95E1F7DB
:1044000082E50E945A7F882369F00E94DA7E6B0160
:104410007C0120E030E0A9010E94BAD0882309F491
:104420003FC006C0C12CD12C00EAE02E00E4F02EE3
:10443000111103C0332009F40BC18091AB0E82FD32
:1044400009C060910D0D70910E0D80910F0D90912E
:10445000100D03C060E070E0CB01A70196010E943F
:10446000B1D760932C0370932D0380932E03909308
:104470002F0320910D0D30910E0D40910F0D509195
:10448000100D0E9434D918165CF419821A821B820E
:104490001C82BE016F5F7F4F8CE293E00E94536DE0
:1044A000112309F4D0C0332009F4CAC01092050DBD
:1044B0001092060D1092070D1092080D1092090D22
:1044C00010920A0D10920B0D10920C0D0E94026EAC
:1044D000EFE7F2E054915CA3EDE5F2E0C590D590F2
:1044E000E590F490E1E6F2E085909590A590B49087
:1044F000A5019401C701B6010E9434D918162CF405
:10450000A7019601C501B40104C0A5019401C7012A
:10451000B6010E9434D82B013C01E7E7F2E0859117
:104520009591A591B4918E8B9F8BA88FB98FE3E75E
:10453000F2E025913591459154912A8F3B8F4C8F14
:104540005D8FBC01CD010E9434D9181634F42A8C39
:104550003B8D3AA30C8D1D8D05C02E884F894AA333
:10456000088D198DA3019201C301B2010E9420D1CF
:1045700020E030E040E85FE30E94B1D70E9472D9AA
:10458000222D3AA1A8010E9420D169837A838B83CE
:104590009C83E0E8F2E0149140900D0D50900E0DD8
:1045A00060900F0D7090100D20E030E040EC5FE364
:1045B000C501B4010E9420D14B015C01612F110F94
:1045C000770B880B990B0E94C1D09B01AC01C501F0
:1045D000B4010E9420D14B015C0120E030E040ECAE
:1045E0005FE3C701B6010E9420D16B017C015CA191
:1045F000652F550F770B880B990B0E94C1D09B013B
:10460000AC01C701B6010E9420D1DE0111966D01F7
:1046100083017201A50194010E94926C0E94C26EF6
:104620001092050D1092060D1092070D1092080DB4
:104630001092090D10920A0D10920B0D10920C0D94
:1046400080E00E9428A3332019F081E00E9428A373
:10465000BE8DBB2309F4A0C08091AB0E8370833064
:1046600051F060E082E197E00E94AD3D0E94E22CB3
:1046700083E097E0AEC00E94026E20910D0D309154
:104680000E0D40910F0D5091100D2E8B3F8B488FCA
:10469000598F2091AC0E3091AD0E4091AE0E5091DD
:1046A000AF0E60E070E08AEE92E40E94B0D74B015A
:1046B0005C016093240370932503809326039093F9
:1046C00027032091B00E3091B10E4091B20E50915F
:1046D000B30E60E070E08AEE92E40E94B0D72B0146
:1046E0003C01609328037093290380932A039093DD
:1046F0002B032091B40E3091B50E4091B60E50911F
:10470000B70E6E897F89888D998D0E94B0D760938E
:104710002C0370932D0380932E0390932F0327E196
:1047200037EB41ED58EBC301B2010E9434D987FD4C
:1047300047C027E030E04BE653E4C301B2010E94DA
:10474000BAD01816ECF127E137EB41ED58EBC50173
:10475000B4010E9434D987FD33C027E030E04BE636
:1047600053E4C501B4010E94BAD018164CF1198265
:104770001A821B821C82AE014F5F5F4F6A01EE8876
:10478000FF88088D198DA3019201C501B4010E9413
:10479000926C82E00E9428A30E94026E8091CC025B
:1047A0008093CD028BA10E94F5290E945A6C83E070
:1047B000809323010E94046EE2CD302E8E8F17CE9F
:1047C00060E082EF96E00E94AD3D0E94E22C80EE18
:1047D00096E00E94BC2CE0CF0E94D37FD0CD0E94F7
:1047E000972F0C94AE181092AD02109339030E94CB
:1047F0008968C5CD88E50E94117F81115E9889E5A1
:104800000E94117F81115E988AE50E94117F8823A2
:1048100009F4B5CD1598B3CD8DE40E945A7F882355
:10482000D9F00E94B27E813069F038F0823079F49C
:1048300062E0802F0E94C2A6A2CD60E0802F0E947D
:10484000C2A69DCD61E0802F0E94C2A698CD82E7CE
:1048500096E00E94BC2C93CD83E50E945A7F88236A
:1048600009F48DCD0E94B27EF82EB4E0EB1203C0A5
:104870008093600484CD61E0802F0E94C2A66F2DDA
:10488000802F0E9493A66F2D70E0802F0E94FEA6BD
:1048900076CD0E94DA7E0E94A6D8633771050CF0AF
:1048A00076C170939F0260939E020E9429960E9497
:1048B000F89981110E94B23860919E0270919F0216
:1048C000072E000C880B990B0E94C1D020919A02F0
:1048D00030919B0240919C0250919D020E9434D9DC
:1048E00018161CF484E396E002C085E296E060E0CE
:1048F0000E94AD3D81E0809320011A8E1B8E1C8E9C
:104900001D8E1FA218A619A61AA61E8A1CA62CE385
:104910002DA73CE13EA746E44FA7C12CD12C50E87F
:10492000E52E6FEBF62E51E05BA7812C912C540104
:1049300060919E0270919F02072E000C880B990BCC
:104940000E94C1D0162F072F782E692E9601A7013D
:104950000E94BAD0882321F120919A0230919B02C3
:1049600040919C0250919D028EA1612F702F811168
:1049700009C0872D962D0E94BAD0881F8827881FCE
:104980008E8B14C0872D962D0E94BAD087FF0DC044
:1049900080912001882309F4F2CC0E948968EFCC31
:1049A0001C2D0D2D7E2C6F2C01C01E8A0E9426AE60
:1049B0006B017C01DC01CB012FA138A549A55AA5CB
:1049C000821B930BA40BB50BB7FD33C0D701C601F7
:1049D00088519C4FAF4FBF4F8FA398A7A9A7BAA7E5
:1049E00080E00E94D89782E892E00E94BC2C81145B
:1049F0009104A104B104B9F0D501C401805F984DC0
:104A0000AF4FBF4FBC01CD016C197D098E099F09C5
:104A100028EE33E040E050E00E9410D7CA01B9010F
:104A20000E94362E03C08FE30E94B52C8AE00E94BC
:104A3000B52C0E94972F0E9426AE6093920270932D
:104A40009302809394029093950290919A029E8F84
:104A5000A0919B02AAA3B0919C02BBA3E0919D02EE
:104A6000ECA3292F3A2F4B2F5E2F612F702F872D0C
:104A7000962D0E94B0D71B012C0120E030E0A90147
:104A80000E9434D987FF04C057FA509457F85094C5
:104A900081149104A104B104B1F420E030E040E8B5
:104AA0005FE3C201B1010E94BAD087FF18C0FBA525
:104AB00046015701FF2399F020E1820E27E2921E62
:104AC000A11CB11C0CC020E030E040E450E4C20165
:104AD000B1010E9434D9181614F4460157013E89D9
:104AE0003323C1F18A8D9B8DAC8DBD8D892B8A2B93
:104AF0008B2B61F0D701C6012A8D3B8D4C8D5D8DCE
:104B0000821B930BA40BB50BB7FD24C02E8D3AA1CD
:104B10004BA15CA16CA57DA58EA59FA50E94B0D7D9
:104B200020E030E040EC5FE30E94BAD087FD30CF58
:104B3000D701C601805A9541AF4FBF4F8A8F9B8FD7
:104B4000AC8FBD8F9E8D9CA7AAA1ADA7BBA1BEA710
:104B5000ECA1EFA780912001882309F419CF8114DB
:104B60009104A104B10431F41BA6C12ED02EE72C70
:104B7000F62CDECEF0E1CF1AF7E2DF0AE108F10809
:104B8000C818D908EA08FB08F7FCEECF01CF63E7A5
:104B900070E087CE0E94A19E88E50E94117F882345
:104BA00031F05E9A8091AB0E8E7F8093AB0E89E5DB
:104BB0000E94117F882331F05E9A8091AB0E8D7F29
:104BC0008093AB0E8AE50E94117F882309F4D7CB2E
:104BD000159A8091AB0E8B7F8093AB0ED0CB83E583
:104BE0000E945A7F882391F00E94DA7E60935909CF
:104BF00070935A0980935B0990935C0960936109F3
:104C000070936209809363099093640980E50E9420
:104C10005A7F882351F00E94DA7E6093590970937D
:104C20005A0980935B0990935C0982E50E945A7F40
:104C3000882351F00E94DA7E60935D0970935E09CB
:104C400080935F099093600984E50E945A7F8823CE
:104C500009F495CB0E94DA7E609361097093620932
:104C600080936309909364098ACB82E40E94117F48
:104C7000882351F00E94199060933509709336098A
:104C8000809337099093380983E50E94117F882328
:104C900051F00E94DA7E60936509709366098093F3
:104CA00067099093680984E50E94117F882351F079
:104CB0000E94DA7E6093690970936A0980936B0998
:104CC00090936C098AE40E94117F882309F457CBE2
:104CD0000E94DA7E6B017C012AE037ED43E25CE35F
:104CE0000E9434D987FD13C02AE939E949E95EE316
:104CF000C701B6010E94BAD018164CF0C092440405
:104D0000D0924504E0924604F092470438CB0E94CA
:104D1000DE2C88ED93E00E94BC2C31CB60E070E08B
:104D200080E090E4D0C860E070E080E090ECCBC818
:104D300082E50E94117F8111F5C821CBB7FAB094AA
:104D4000B7F8B094D7018D929D92AD92BC92139713
:104D500078CA0E94DE2C84E293E00E94BC2C61E0C1
:104D600086E193E00E94AD3D0E94C6BC68E270E01F
:104D700088EC90E00E945F3D02CB0C5F1F4FBFEFBD
:104D8000CB1ADB0AEDE5F2E0E017F10709F02ACAD9
:104D90008EE6E82E82E0F82E10E0F10181919191EB
:104DA000A191B1911F01F70181939193A193B193C7
:104DB0007F01812F0E9408A31F5F133071F70E94AB
:104DC000046E60E086E093E00E94AD3D63E972E02E
:104DD00084E690E00E945F3D6AEB72E084E690E03A
:104DE0000E945F3DCCCAF091AC0EFE8B8090AD0E60
:104DF0007090AE0E6090AF0E5090B00E4090B10E1D
:104E00003090B20E2090B30EC090B40ED090B50E7C
:104E1000E090B60EF090B70E88E50E945A7F882386
:104E200061F10E94DA7E5B018C0120E030E04BE60C
:104E300053EC0E9434D987FD0AC020E030E04BE6F5
:104E400053E4B501C8010E94BAD0181694F46BEE71
:104E500070E089ED92E00E94522E6BEE70E084EDDE
:104E600092E00E94522E8CE294E00E94BC2C10E052
:104E700005C0AE8A8B2C702E612E11E089E50E9450
:104E80005A7F882381F10E94DA7E962EA72EB82EB3
:104E9000092F20E030E04BE653EC0E9434D987FD27
:104EA0000CC020E030E04BE653E4692D7A2D8B2DC9
:104EB000902F0E94BAD0181694F46BEE70E081EC3B
:104EC00092E00E94522E6BEE70E084ED92E00E9420
:104ED000522E8CE294E00E94BC2C10E004C0592CAD
:104EE0004A2C3B2C202E8AE50E945A7F882339F1D8
:104EF0000E94DA7E6B017C0120E030E040EA51EC58
:104F00000E9434D987FD0AC020E030E040EA51E435
:104F1000C701B6010E94BAD018168CF46CEE7FEF70
:104F20008FEA92E00E94522E64E170E084ED92E0FC
:104F30000E94522E8CE294E00E94BC2C20CA1123C5
:104F400009F41DCA8E89982DA72DB62D8093AC0E1D
:104F50009093AD0EA093AE0EB093AF0E852D942D11
:104F6000A32DB22D8093B00E9093B10EA093B20EEC
:104F7000B093B30EC092B40ED092B50EE092B60EBE
:104F8000F092B70EFCC9AF960FB6F894DEBF0FBE15
:104F9000CDBFDF91CF911F910F91FF90EF90DF90E8
:104FA000CF90BF90AF909F908F907F906F905F90C9
:104FB0004F903F902F9008954F925F926F927F9203
:104FC0008F929F92AF92BF92CF92DF92EF92FF9219
:104FD0000F931F93CF93DF93EC012091B802309190
:104FE000B9024091BA025091BB02688179818A81ED
:104FF0009B810E94B0D76B017C012091BC02309153
:10500000BD024091BE025091BF026C817D818E81B4
:105010009F810E94B0D74B015C01A701960160916E
:1050200026017091270180912801909129010E9409
:10503000BAD0882309F466C0C0922601D092270115
:10504000E0922801F09229012091D3033091D403FA
:105050004091D5035091D603C701B6010E9420D1DB
:105060002B013C010E94DCD86B017C0120E030E088
:10507000A9010E94BAD087FD10C020E030E040E0D6
:1050800050E4C701B6010E9434D918164CF4C12C63
:10509000D12CE12C00E4F02E03C0C12CD12C7601E0
:1050A000A7019601C301B2010E94B0D72B013C01B8
:1050B00020E030E0A9010E94BAD087FD09C04092EB
:1050C000CB035092CC036092CD037092CE0308C004
:1050D0001092CB031092CC031092CD031092CE030A
:1050E000C701B6010E94A6D86093C903062E000C22
:1050F000770B6F5F7F4F6230710514F062E070E0F4
:105100006093C703A501940160912A0170912B015E
:1051100080912C0190912D010E94BAD0D091240150
:10512000C091C903811103C0DC1367C0B8C080926D
:105130002A0190922B01A0922C01B0922D01209176
:10514000D7033091D8034091D9035091DA03C501B8
:10515000B4010E9420D14B015C010E94DCD86B019C
:105160007C0120E030E0A9010E94BAD087FD10C088
:1051700020E030E040E050E4C701B6010E9434D99D
:1051800018164CF4C12CD12CE12C10E4F12E03C0E4
:10519000C12CD12C7601A7019601C501B4010E9452
:1051A000B0D74B015C0120E030E0A9010E94BAD0E9
:1051B00087FD09C08092CF039092D003A092D103C3
:1051C000B092D20308C01092CF031092D003109275
:1051D000D1031092D203C701B6010E94A6D86093F2
:1051E000CA03062E000C770B6F5F7F4F623071058C
:1051F00014F062E070E06093C8032091CA03DC13EE
:105200007BC080912501821377C08090CF0390905E
:10521000D003A090D103B090D2032091BF0330916E
:10522000C0034091C1035091C203C501B4010E9463
:1052300020D12091C3033091C4034091C503509104
:10524000C6030E94B1D76B017C016093B3037093D6
:10525000B4038093B5039093B6032091B7033091C4
:10526000B8034091B9035091BA03C501B4010E943B
:1052700020D12091BB033091BC034091BD035091DC
:10528000BE030E94B1D7A70196010E94B0D76093D8
:10529000AF037093B0038093B1039093B203209156
:1052A000AF033091B0034091B1035091B2036091CC
:1052B000CB037091CC038091CD039091CE030E94DB
:1052C00020D12091B3033091B4034091B5035091A4
:1052D000B6030E94B1D7DF91CF911F910F91FF903C
:1052E000EF90DF90CF90BF90AF909F908F907F9086
:1052F0006F905F904F9008958091C9039091CA0379
:1053000090932501809324018C2FCC0F990BC22FF1
:10531000220FDD0B9C01220F331F820F931FFC0114
:10532000EC0FFD1FEE0FFF1FEE0FFF1FEE5BFD4F9B
:1053300020813181428153812093C3033093C40380
:105340004093C5035093C6030091C803002E000C80
:10535000110BFC01E00FF11FEE0FFF1FEE0FFF1FFF
:10536000EE5BFD4F60817181828193810E94B0D795
:105370006093BF037093C0038093C1039093C203F3
:10538000E091C7030E2E000CFF0BCF01880F991F71
:10539000E80FF91FCE0FDF1FCC0FDD1FCC0FDD1F75
:1053A000CE5BDD4F288139814A815B812093BB032D
:1053B0003093BC034093BD035093BE03E00FF11F35
:1053C000EE0FFF1FEE0FFF1FEE5BFD4F608171813F
:1053D000828193810E94B0D76093B7037093B80322
:1053E0008093B9039093BA0310CFCF93C82F88232B
:1053F00079F020E030E0A9016091B0027091B10233
:105400008091B2029091B3020E94BAD08823F9F041
:105410008091CE02C817D9F00E94A19E86E791E044
:105420000E94DC278091CE02882339F085E09DE040
:105430000E94C29E1092CE0207C081E08093CE02ED
:1054400085E09DE00E94D39DCF910C94026ECF9198
:1054500008958F929F92AF92BF92CF92DF92EF9278
:10546000FF92C090B002D090B102E090B202F090F2
:10547000B30220E030E0A901C701B6010E94BAD012
:10548000882359F0A701960160E070E080E89FE36F
:105490000E9434D86B017C0103C0C12CD12C760151
:1054A0008090B4029090B502A090B602B090B7027E
:1054B00020E030E0A901C501B4010E94BAD08823E0
:1054C00049F0A501940160E070E080E89FE30E944C
:1054D00034D803C060E070E0CB01C092D303D09217
:1054E000D403E092D503F092D6036093D703709370
:1054F000D8038093D9039093DA03FF90EF90DF9065
:10550000CF90BF90AF909F908F9008952F923F9231
:105510004F925F926F927F928F929F92AF92BF92C3
:10552000CF92DF92EF92FF920F931F93CF93DF936F
:10553000CDB7DEB72E970FB6F894DEBF0FBECDBF46
:10554000182FF62E042FA22E282F30E03A87298715
:10555000862F90E09C878B87220F331FE985FA8581
:105560002E0F3F1F3E872D87FC01E20FF31FEE0F2A
:10557000FF1FEE0FFF1FEE5BFD4F60817181828187
:1055800093819B01AC010E94B2D9882309F43AC1EE
:10559000100F6F2D6A0D812F90E0DC01AA0FBB1F49
:1055A000A80FB91FEB85FC85EA0FFB1FEE0FFF1F4D
:1055B000EE0FFF1FEE5BFD4FB080C180D280E38015
:1055C000100F812F90E0AC01440F551F480F591F59
:1055D000EB85FC85E40FF51FEE0FFF1FEE0FFF1F9D
:1055E000EE5BFD4FF080018112819380862F90E069
:1055F000ED85FE85E80FF91FEE0FFF1FEE0FFF1F71
:10560000EE5BFD4F80807180628053806A0D70E098
:105610002D853E85260F371F220F331F220F331F84
:105620002E5B3D4F3E872D87F90140803180A2805F
:105630002380A80FB91FAA0FBB1FAA0FBB1FAE5B09
:10564000BD4FFC91F98311962C9111972A831296E4
:105650003C9112973B8313968C918C83FA01E60F51
:10566000F71FEE0FFF1FEE0FFF1FEE5BFD4F908148
:105670009D8321812E8332813F83838188872F2DD3
:10568000302F412F592D6F2D702F812F992D0E9472
:10569000B2D9882321F0F12C00E010E0912C2B2DC1
:1056A0003C2D4D2D5E2D6B2D7C2D8D2D9E2D0E9424
:1056B000B2D9882319F0BF2C6801E92C242D332D91
:1056C0004A2D522D642D732D8A2D922D0E94B2D910
:1056D000882321F0412C312CA12C212C282D372D71
:1056E000462D552D682D772D862D952D0E94B2D9EA
:1056F000882321F0842C732C6A2C522C2D813E811E
:105700004F8158856D817E818F8198850E94B2D9A5
:10571000882321F01D821E821F82188629813A81EA
:105720004B815C8169817A818B819C810E94B2D995
:10573000882341F09D819983EE81EA83FF81FB8379
:1057400028852C8389859A85880F991FE985FA8594
:105750008E0F9F1F2B853C85820F931F880F991FEB
:10576000880F991F8E5B9D4F9A8789872B2D3C2D23
:105770004D2D5E2D6B2D7C2D8D2D9E2D0E94B1D734
:105780002F2D302F412F592D0E94B0D76B017C0156
:10579000282D372D462D552D682D772D862D952DAD
:1057A0000E94B1D7242D332D4A2D522D0E94B0D7FF
:1057B0009B01AC01C701B6010E94B1D76B017C010E
:1057C00029813A814B815C8169817A818B819C81BD
:1057D0000E94B1D72D813E814F8158850E94B0D75C
:1057E0009B01AC01C701B6010E94B1D720E030E0B7
:1057F00040E450E40E9434D8E985FA8560837183DF
:10580000828393832E960FB6F894DEBF0FBECDBF72
:10581000DF91CF911F910F91FF90EF90DF90CF908C
:10582000BF90AF909F908F907F906F905F904F90C0
:105830003F902F900895CF92DF92EF92FF926B01ED
:105840007C0183E3C816D104E104F10470F082E323
:10585000C81AD108E108F10862E370E080E090E046
:105860000E9470A70E949A72ECCFC701B6010E94F5
:1058700070A7FF90EF90DF90CF900C949A725E9A91
:105880008091AB0E8E7F8093AB0E5E9A8091AB0EB3
:105890008D7F8093AB0E159A8091AB0E8B7F80939A
:1058A000AB0E5E9A0895CF930E94CEA0C82F809130
:1058B000250D8093240D8093230D8093220D84E683
:1058C0008093210D0E94E1A088EE93E0909323093C
:1058D00080932209C1110E94DBA081E08093990985
:1058E0000E94A19E8EEF0E94726DCF910C94026E69
:1058F0008F929F92AF92BF92CF92DF92EF92FF92E0
:105900000F93CF93DF931F92CDB7DEB75C016B018E
:105910007A014901F501808191810E94EAD689834B
:10592000002311F0F6018083BE016F5F7F4FC40139
:105930000E948FC1F50180819181019691838083BE
:10594000FFEFCF1ADF0A81E0E81AF10819F780E0CB
:105950000F90DF91CF910F91FF90EF90DF90CF905C
:10596000BF90AF909F908F9008959091C00095FF49
:10597000FCCF8093C6000895CF93DF93FC01849100
:10598000EF012196882321F00E94B52CFE01F7CF6C
:10599000DF91CF9108950F931F93CF93DF938B01E6
:1059A0000E94BC2CE8018991882319F00E94B52C33
:1059B000FACFDF91CF911F910F91089585E199E082
:1059C0000C94BC2C8FE099E00C94BC2CEC018B0166
:1059D000F42E0E940B9A0E94DE2C8FEE98E00E941B
:1059E000BC2C0115110511F406EC19E1209711F4F6
:1059F000C6EED8E00E949B4C1F930F93DF93CF938A
:105A00008FED98E09F938F93D1E0DF930E94E63D66
:105A10000E94C6BCC0916D0DC695C6958DB79EB748
:105A200007960FB6F8949EBF0FBE8DBF8091A50D4F
:105A3000811104C0D093A50D0E94DBC380916E0D2F
:105A400090916F0D0E94B4C3DC2FDD0F1D2F1C0F32
:105A500083E00E9455AB1092A30DC093A40D8FEC70
:105A600092E00E94C2AC1092A30DD093A40D80EDE1
:105A700098E00E9466AC1092A30D1093A40D83ECE5
:105A800098E00E9466AC8CE69DE00E9449C28111BC
:105A9000DFCF89EE93E030E6019729F0232F2A9596
:105AA0000000E9F7F9CFF89489EE93E038EE01971A
:105AB00029F0232F2A950000E9F7F9CF0E940B9ACD
:105AC000FF2019F00E943F2C01C05E9AA895FECFDE
:105AD0007F928F929F92AF92BF92CF92DF92EF927E
