:100000000C94ED150C9417160C9417160C941716E7
:100010000C9417160C9417160C9417160C941716AC
:100020000C9417160C942C4A0C9417160C94171653
:100030000C9417160C94C9A10C9417160C9417164F
:100040000C9417160C94B3790C9477D80C9417165B
:100050000C9461350C9457350C9417160C941716A4
:100060000C9417160C9417160C9417160C9417165C
:100070000C9417160C9417160C9417160C9417164C
:100080000C9417160C9417160C941716C87ECB7E7A
:10009000BE7EC27EE27EE27ECF7ED37ED97EDD7ED4
:1000A0004B920A91419187924191419141914191A5
:1000B00041914191419141914191419141914191B0
:1000C00041914191419141914191419141914191A0
:1000D000419141914191419141914191819241914F
:1000E00041914191419141914191419141915A9266
:1000F0004191419141914191419141914191419170
:10010000419141919E923E91E6D7EBD7F0D7FAD735
:1001100028D828D804D80CD814D81ED8084AD73BD9
:100120003BCE016E84BCBFFDC12F3D6C74319ABDC6
:1001300056833DDA3D00C77F11BED9E4BB4C3E91EA
:100140006BAAAABE000000803F05A84CCDB2D44ED9
:10015000B93836A9020C50B9918688083CA6AAAADB
:100160002ABE000000803F004E414E494E4954597E
:10017000494E46CDCCCC3D0AD7233C17B7D1387772
:10018000CC2B329595E6241FB14F0A000020410088
:1001900000C84200401C4620BCBE4CCA1B0E5AAED2
:1001A000C59D7400407A10F35A00A0724E180900E1
:1001B00010A5D4E80000E87648170000E40B5402CC
:1001C0000000CA9A3B000000E1F505000080969807
:1001D00000000040420F000000A086010000001057
:1001E0002700000000E80300000000640000000099
:1001F000000A00000000000100000000002C76D87A
:1002000088DC674F0823DFC1DFAE59E1B1B796E55F
:10021000E3E453C63AE651997696E8E6C28426EBC3
:10022000898C9B62ED407C6FFCEFBC9C9F40F2BAD6
:10023000A56FA5F490055A2AF75C936B6CF9676D6E
:10024000C11BFCE0E40D47FEF520E6B500D0ED90C3
:100250002E0300943577050080841E080000204E90
:100260000A000000C80C333333330F986E12831129
:1002700041EF8D2114893BE65516CFFEE6DB18D100
:10028000844B381BF77C1D901DA4BBE424203284D2
:10029000725E228100C9F124ECA1E53D27434F4D58
:1002A0004D554E49434154494F4E004452595255C1
:1002B0004E004552524F525300494E464F0045435F
:1002C000484F00536C6565702E2E2E00436C696399
:1002D0006B20746F20526573756D652E2E2E004E47
:1002E0006F204D6F76652E00456E642066696C65E3
:1002F000206C6973740A00426567696E2066696CD8
:1003000065206C6973740A00286E6F2066696C65DD
:10031000290043757272656E742066696C653A20B7
:10032000005344207072696E74696E67206279743C
:100330006520004E6F74205344207072696E74699A
:100340006E670A0044656C6574696F6E206661694A
:100350006C65642C2046696C653A200046696C65C2
:100360002064656C657465643A00256979202569A7
:1003700064202569682025696D2025697300507205
:10038000696E742074696D653A2000496E76616CFF
:1003900069642050696E204D6F64650A0020573AE9
:1003A0000045202553006F66660044454255473A94
:1003B000004D3131322053687574646F776E004D93
:1003C00031313320530042656420436F6F6C696E96
:1003D000672E2E2E004265642048656174696E6741
:1003E0002E2E2E004A526F636B204F46462E00433E
:1003F00048414D4245525F54454D50455241545538
:100400005245004D4F54494F4E5F4D4F44455300A8
:10041000544845524D414C5F50524F544543544906
:100420004F4E004155544F5245504F52545F534424
:100430005F5354415455530050524F4D50545F53E5
:100440005550504F525400454D455247454E435923
:100450005F50415253455200434153455F4C494719
:1004600048545F4252494748544E45535300544FF5
:1004700047474C455F4C494748545300534F4654F7
:10048000574152455F504F574552004255494C44E1
:100490005F50455243454E54004C4556454C494EDD
:1004A000475F44415441005A5F50524F424500411A
:1004B00055544F4C4556454C005052494E545F4A96
:1004C0004F420050524F4752455353004155544FED
:1004D0005245504F52545F54454D5000564F4C5565
:1004E0004D45545249430042494E4152595F464995
:1004F0004C455F5452414E53464552005345524974
:10050000414C5F584F4E5F584F4646004649524D4A
:10051000574152455F4E414D453A4D61726C696E8F
:1005200020322E302E352E332028476974487562CC
:100530002920534F555243455F434F44455F555221
:100540004C3A68747470733A2F2F676974687562D7
:100550002E636F6D2F4D61726C696E4669726D7797
:100560006172652F4D61726C696E2050524F544F0D
:10057000434F4C5F56455253494F4E3A312E30202F
:100580004D414348494E455F545950453A4A526F90
:10059000636B2045585452554445525F434F554E66
:1005A000543A3120555549443A63656465326132A5
:1005B000662D343161322D343734382D3962313281
:1005C0002D6335356336326633363766660A002F5B
:1005D0002F20004D31343520533C696E6465783EE0
:1005E000206F7574206F662072616E6765202830F9
:1005F0002D31290A00416363656C65726174696F0E
:100600006E3A2050003F4A206F7574206F6620724A
:10061000616E67652028302E303120746F20302EB7
:1006200033290A0020204D61783A200020204D69AE
:100630006E3A2000536F667420656E6473746F7039
:10064000733A200046523A0020466C6F773A2000F9
:1006500050726F7465637465642050696E0A004956
:100660006E76616C69642065787472756465720A6F
:100670000020643A0020693A0020703A00646973EF
:100680000043290A0061626C656420286D696E2050
:1006900074656D702000436F6C64206578747275AA
:1006A000646573206172652000486F6D6520257355
:1006B00025732573204669727374004F66667365EF
:1006C0007473204170706C696564004572723A20E1
:1006D000546F6F206661722100546F6F20666172E3
:1006E0002066726F6D207265666572656E63652047
:1006F000706F696E740A00454550524F4D204F4B44
:100700000A00446F6E65207072696E74696E6720AE
:1007100066696C650A004D3737004D333100BE0203
:10072000B902B202AB029D024572726F72207772FB
:100730006974696E6720746F20454550524F4D2192
:100740000A00627573793A2070617573656420667A
:100750006F7220696E7075740A00627573793A2041
:1007600070617573656420666F7220757365720AB7
:1007700000627573793A2070726F63657373696E86
:10078000670A002121204B494C4C20636175736539
:100790006420627920746F6F206D75636820696EC4
:1007A0006163746976652074696D65202D206375B9
:1007B0007272656E7420636F6D6D616E643A2000B5
:1007C00053544F505045442E20005072696E74654A
:1007D000722073746F707065642064756520746F27
:1007E000206572726F72732E204669782074686576
:1007F000206572726F7220616E6420757365204D82
:1008000039393920746F20726573746172742E20C7
:100810002854656D70657261747572652069732006
:1008200072657365742E2053657420697420616647
:100830007465722072657374617274696E67290AD7
:10084000004E6F20436865636B73756D2077697424
:1008500068206C696E65206E756D6265722C204C27
:10086000617374204C696E653A2000636865636B40
:1008700073756D206D69736D617463682C204C61B4
:100880007374204C696E653A20004C696E65204E89
:10089000756D626572206973206E6F74204C617390
:1008A00074204C696E65204E756D6265722B312C1B
:1008B000204C617374204C696E653A20004D3131D3
:1008C000300053442072656164206572726F720A51
:1008D00000506C65617365205265736574005052F9
:1008E000494E5445522048414C5445440025533A02
:1008F000202553004B494C4C45442E200050726932
:100900006E7465722068616C7465642E206B696C0E
:100910006C28292063616C6C6564210A006563683A
:100920006F3A004572726F723A00204D393220588A
:100930000020496E76616C69642065787472756414
:10094000657220000F150E1216170E1303021A14EB
:1009500001000E0C190DFF180C04000154656D7098
:10096000657261747572650046616E2053706565CD
:1009700064004E6F7A7A6C65004D61696E0050724A
:10098000656865617420504C4120456E640050726A
:10099000656865617420504C412042656400507266
:1009A00065686561742041425320456E6400507251
:1009B0006568656174204142532042656400436F5D
:1009C0006F6C646F776E005072656865617420416A
:1009D0004253005072656865617420504C4100427A
:1009E00061627973746570205A00466C6F770046B7
:1009F000696C2E204469612E004520696E206D6D62
:100A0000C2B3004D33303320553120452569205382
:100A1000256900504944204175746F74756E6520D6
:100A20002A005049442D44202A005049442D492091
:100A30002A005049442D50202A0020082046616396
:100A400074002008204D6178002008204D696E0058
:100A50004F6666004F6E004175746F74656D70006F
:100A6000416476616E6365642053657474696E6772
:100A70007300436F6E66696775726174696F6E00AB
:100A8000526573746F72652044656661756C74732A
:100A9000004C6F61642053657474696E6773005312
:100AA000746F72652053657474696E677300507259
:100AB00065686561742041425320436F6E66005043
:100AC00072656865617420504C4120436F6E66000A
:100AD000313235004245443A4550434F532031307E
:100AE000304B0052756E617761792057617463688D
:100AF0003A204F4E004D61782054656D70003237BA
:100B000035004D696E2054656D700045313A2045C1
:100B100050434F53203130304B0050535500476500
:100B20006E657269630050726F746F636F6C003131
:100B30002E30004261756400313135323030004D65
:100B4000656C7A692028437265616C697479290043
:100B5000457874727564657273004A526F636B00F6
:100B6000323032302D30332D333100546865726DA0
:100B70006973746F727300426F61726420496E66AC
:100B80006F005072696E74657220496E666F004224
:100B900061636B0053746F70004D323100417474A7
:100BA000616368204D65646961004D3232005265B1
:100BB0006C65617365204D656469610041626F75A4
:100BC00074205072696E74657200526573756D653C
:100BD000205072696E74004D656469612052656CC5
:100BE00065617365640054756E650053746F7020A1
:100BF0005072696E7400496E666F2053637265654A
:100C00006E0002FFFFFFFFEFFFFFFFFFFFFFFFFF91
:100C1000FFFFEFEFFFFFFFFFFFFFFFFFFFE7DFFF3C
:100C2000FFFFFFFFFFFFFFFFE7DFFFFFFFFFFFFF0C
:100C3000FFFFFFE3DFFFFFFFFFFFFFFFFFFFF3CF3C
:100C4000FFFFFFFFFFFFFFFFE1E1CFFFFFFFFFFF20
:100C5000FFFE78000003DDFFFFFFFFFEFF807E0048
:100C600001EEFFFFFFFFFE7DCFFC0000F77FFFFFDF
:100C7000FFFF8E060000007BBFFFFFFFFFC00000EC
:100C800000007DDFFFFFFFFFFC01FE00003EE7FFED
:100C9000FFFFFFFFFFFC00031F73FFFFFFFFFFFFCE
:100CA000F800018F81FFFFFFFFFFFFE0000083F9E5
:100CB000FFFFFFFFFFFF00FC0000F0FFFFFFFFFF53
:100CC000E00FFFC00000FFFFFFFFFE03FFFFC000BB
:100CD00000FFFFFFFFFFFFFFF9000000FFFFFFFF26
:100CE000FFFFFFFC0007C0FFFFFFFFFFFFFFFF004C
:100CF00007E0FFFFFFFFFFFFFFFFE007F1FFFFFF40
:100D0000FFFFFFFFFFFC07F9FFFFFFFFFFFFFFFFF4
:100D1000FF03F9FFFFFFFFFFFFFFFFFF83F9FFFF67
:100D2000FFFFFFFFFFFFFFC3FFFFFFFFFFFFFFFF0F
:100D3000FFFFE1FFFFFFFFFFFFFFFFFFFFF0BFFF30
:100D4000FFFFFFFFFFFFFFFBF83FFFFFFFFFFFFF7E
:100D5000FFFFF9F83FFFFFFFFFFFFFFFFF7EF0FF00
:100D6000FFFFFFFFFFFFFFFF8E03FFFFFFFFFFFF00
:100D7000FFFFFFE01FFFFFFFFFFFFFFFFFFFFFFF82
:100D8000FFFFFFFFFFFFFFFFFFFFFFFFFFFFFFFF73
:100D9000FFFFFFFFFFFF7FFFFFFFFF00007FFFFF61
:100DA000F87FFFFFFFFF80007FFFFFE07FFFFFFF77
:100DB000FFC3FCFFFFFFF8FFFFFFFFFFC3FCFFFFC8
:100DC000FFF8FFFFFFFFFF87FDFFFFFFF1FFFFFFC2
:100DD000FFFF87FFFFFFFFF1FFFFFFFFFF0FE7F3BD
:100DE0000FFC23FC3FFFFFFF0FEF8007F003F01E17
:100DF000007FFE1FCF8187C787C70C007FFE001FC3
:100E0000C7C78FC79F0F0CFFFE001F878F1F8F1F45
:100E10000F1FFFFC3F9F8F8F1F8E001E3FFFFC7F29
:100E20003F0F1E3F1E3FFE3FFFF87FFF1F1C3F1C72
:100E30007FFC7FFFF8FFFF1E1C7E1C7FFC7FFFF006
:100E4000FFCE3E3C7E3C7FB8FFFFF0FF9E3C387CEF
:100E5000387E78FFFFE1FF3C7C787C783CF1FFFF37
:100E6000E1F8387878101801F1FFFF000060203CAD
:100E7000007C07807FFFFFFFFFFFFE1FFE1FFFFFBD
:100E8000FF01FFFFFFFFFFFFFFFFFFFFFFFFFF0F60
:100E9000FFFFFFFFFFFFFFFFFFFFFFFFFF1E000041
:100EA000000000000000000007FFFF380000000005
:100EB00000000000000003FFFF70000000000000C1
:100EC0000000000001FFFF600000000000000000C3
:100ED000000000FFFF6000000000000000000000B4
:100EE000007FFFC000000000000000007800003F0D
:100EF000FFC00FC0FC00000000007818001FFFC0FA
:100F00003FE1FF0000000000783C000FFFC07FF3CE
:100F1000FF8000000000783C0007FFC0FFFFFFC01B
:100F200000000000783C0003FFC1F87F87E000006C
:100F3000000078000001FFC1F03F03E00000000066
:100F400078000000FFC1E01E01E01F0003E0783CD4
:100F500003F07FC1E01E01E07FC00FF8783C07FC82
:100F60003FC1E01E01E1FFE01FFC783C0FFE1FC106
:100F7000E01E01E3FFF03FFE783C1FFE0FC1E01EC4
:100F800001E3F3F83F3E783C3F3F07C1E01E01E735
:100F9000E0FC7C1F783C3E1F07C1E01E01E7C07CDF
:100FA0007C0F783C3C0F03C1E01E01E7807C780F8A
:100FB000783C3C0F03C1E01E01E7803C7800783CA0
:100FC0003C0F03C1E01E01E7803C7800783C3C0FF9
:100FD00003C1E01E01E7803C7800783C3C0F03C170
:100FE000E01E01E7C03C7800783C3C0F03C1E01EE6
:100FF00001E3E03C78007C3C3C0F03C1E01E01E3D0
:10100000FF3FF8007FBC3C0F03C1E01E01E1FF3F42
:10101000F8003FBFFC0F03C1E01E01E0FF3FF800F6
:101020001FBFFC0F03C1E01E01E07F3FF8000FBFB0
:10103000FC0F036000000000000000000000000042
:1010400007600000000000000000000000000670C3
:101050000000000000000000000000000E3800004A
:10106000000000000000000000001C1E0000000046
:101070000000000000000000780FFFFFFFFFFFFFEF
:10108000FFFFFFFFFFFFF001FFFFFFFFFFFFFFFF7D
:10109000FFFFFFFF80687474703A2F2F6D61726CD0
:1010A000696E66772E6F726700322E302E352E33C2
:1010B000002020506C616E6E6572427566666572C6
:1010C00042797465733A20002046726565204D654B
:1010D0006D6F72793A2000436F6D70696C65643A88
:1010E0002041707220313520323032300A00204CDD
:1010F00061737420557064617465643A20323032D3
:10110000302D30332D3331207C20417574686F725F
:101110003A20287468697369736B65697468622C16
:1011200020456E6465722D33290A00322E302E352B
:101130002E330A004D61726C696E0020536F667425
:10114000776172652052657365740A002057617477
:101150006368646F672052657365740A0020427289
:101160006F776E206F75742052657365740A002066
:1011700045787465726E616C2052657365740A00FF
:10118000506F77657255700A006175746F25632E14
:1011900067004732385859004D31303031006572A0
:1011A000726F722077726974696E6720746F20663F
:1011B000696C650A00446F6E6520736176696E67BD
:1011C0002066696C652E0A004D323900456E6473E5
:1011D000746F7073002553202563202563202563D9
:1011E00020256300656E6473746F70732068697482
:1011F0003A200020746F6F206C6F6E6720657874E2
:10120000727573696F6E2070726576656E74656451
:101210000A0020636F6C6420657874727573696F5F
:101220006E2070726576656E7465640A002053697D
:101230007A653A200043616E6E6F74206F70656E40
:101240002073756264697220005344206361726484
:10125000206F6B0A006F70656E526F6F742066614D
:10126000696C65640A00766F6C756D652E696E69D0
:1012700074206661696C65640A00534420696E6974
:1012800074206661696C0A004D3234004D3233209F
:1012900025730046696C652073656C6563746564CD
:1012A0000A0046696C65206F70656E65643A2000BF
:1012B000454E4420535542524F5554494E450A001D
:1012C0002220706F73002220706172656E743A2262
:1012D00000535542524F5554494E452043414C4CC2
:1012E000207461726765743A2200747279696E675E
:1012F00020746F2063616C6C207375622D67636F5F
:1013000064652066696C6573207769746820746F02
:101310006F206D616E79206C6576656C732E204D43
:101320004158206C6576656C2069733A310A005724
:10133000726974696E6720746F2066696C653A2003
:1013400000646F696E67004E6F772000506175739F
:1013500065205072696E74005072696E742041622B
:101360006F72746564004D32350053657474696E34
:1013700067732053746F7265642028001FE020108B
:101380002010201010201020201020103030084095
:10139000048003001FE03FF03FF03FF01FE01FE03C
:1013A0003FF03FF03FF00FC0078003003FFFF038F1
:1013B000007030FC3020FC102078102030102C0001
:1013C000D02E31D02F7BD02F7BD02E31D02C00D0FF
:1013D00020301020781020FC1030FC303800703F96
:1013E000FFF03FFFF03800703186302387102787E9
:1013F000902F87D02F03D020301020781020781025
:101400002030102F03D02F87D027879023871031CB
:1014100086303800703FFFF01FFFF81FFFF8041000
:1014200040020820020820041040082080104100DB
:101430001041000820800410400000001FFFF81F2A
:10144000FFF8F80180000C480080001243C38CD0E4
:101450000271249267CC41249E400249249040129C
:10146000FBB3CEE00C2568753A253032687500254F
:101470006875642025303268753A25303268750009
:10148000202020202020200048656174696E67209C
:101490004661696C65640048656174696E672066C1
:1014A00061696C656400202D20496E76616C696409
:1014B000206578747275646572206E756D626572F0
:1014C00020210A00544845524D414C2052554E416E
:1014D00057415900546865726D616C2052756E6198
:1014E000776179004572723A204D415854454D500C
:1014F000004D415854454D502074726967676572BC
:101500006564004572723A204D494E54454D500075
:101510004D494E54454D5020747269676765726538
:1015200064004D383420582059205A204500202F7F
:10153000002042403A0020403A0070012C01900106
:101540002701B0012201C0011D01F00118011002A4
:10155000130130020E016002090190020401C00271
:10156000FF000003FA004003F5008003F000D00301
:10157000EB002004E6007004E100E004DC0040051C
:10158000D700C005D2004006CD00D006C8008007B5
:10159000C3003008BE00F008B900C009B400B00AAA
:1015A000AF00B00BAA00D00CA500000EA000500F99
:1015B0009B00C01096005012910000148C00C015C2
:1015C0008700B0178200B0197D00D01B7800001E84
:1015D000730040206E0090226900F02464004027D0
:1015E0005F0090295A00E02B5500102E500020304B
:1015F0004B0010324600E033410090353C0010377C
:10160000370070383200A0392D00B03A2800A03BD6
:101610002300603C1E00103D1900903D1400103E58
:101620000F00703E0A00C03E0500003F0000403F32
:10163000FBFF803FF6FFC03FF1FF5072696E7420E0
:1016400066726F6D204D65646961005072696E74D9
:1016500020506175736564004D6F76652025736D4C
:101660006D004D6F766520302E316D6D004D6F76BB
:101670006520316D6D004D6F76652031306D6D00E8
:101680004D6F7665204178697300486F74656E64AC
:1016900020746F6F20636F6C64004578747275649A
:1016A0006572004D6F7665205A004D6F7665205942
:1016B000004D6F7665205800220A00556E6B6E6FE4
:1016C000776E20636F6D6D616E643A2022004A521E
:1016D0006F636B2052656164792E005072696E747D
:1016E000696E672E2E2E0000002100240027002A9C
:1016F0000000002200250028002B0000002000230D
:10170000002600290002020202020202020404046E
:10171000040404040403030303030303030101019A
:1017200001010101010102040810204080010204AE
:1017300008102040800102040810204080804020D2
:101740001008040201000000010200090A00000064
:101750000004030807000000000000000000000073
:1017600000000000004361703A0047322F473320E9
:1017700062616420706172616D65746572730A00E4
:10178000656E7175657565696E672022006F6B0007
:10179000526573656E643A200023646566696E6500
:1017A0002044454641554C545F004B6420004B6932
:1017B00020004B702000504944204175746F7475AF
:1017C0006E652066696E6973686564212050757462
:1017D00020746865206C617374204B702C204B69F9
:1017E00020616E64204B6420636F6E7374616E744D
:1017F000732066726F6D2062656C6F7720696E74FE
:101800006F20436F6E66696775726174696F6E2EC3
:10181000680A00504944204175746F74756E6520E4
:101820006661696C6564212074696D656F75740A01
:10183000000A20436C617373696320504944200A95
:1018400000204B643A2000204B693A2000204B7066
:101850003A20002054753A2000204B753A20002091
:101860006D61783A2000206D696E3A200020643A5C
:10187000200020626961733A20005049442041757C
:10188000746F74756E652073746172740A005049C8
:1018900044204175746F74756E65206661696C656E
:1018A00064212054656D7065726174757265207471
:1018B0006F6F20686967680A005049442041757459
:1018C0006F74756E65206661696C65642120426184
:1018D00064206578747275646572206E756D6265DA
:1018E000720A007C3C3E5E2B3D3F2F5B5D3B2C2A09
:1018F000225C0020436F756E7420583A0045310019
:10190000626564002C2073797374656D2073746F45
:101910007070656421204865617465725F49443A5E
:10192000200024F4D43050C38E20C2A24017828BF2
:101930007011127A910D816CD90AA861E108C7581B
:101940006607615143061E4B5D05C145A7041A4158
:101950001104093D9803713931034036DB026533C8
:101960009102D4305402802E1D02632CEE01752AA0
:10197000C501B028A001102781018F2564012B2407
:101980004B01E0223401AC211F018D200D01801F8D
:10199000FC00841EED00971DDF00B81CD200E61B82
:1019A000C600201BBC00641AB200B219A8000A19B4
:1019B000A0006A189900D117910040178B00B51646
:1019C000840031167E00B31579003A157300C714F0
:1019D0006F0058146A00EE13660088136300251325
:1019E0005E00C7125B006C12570015125400C11143
:1019F000510070114F0021114B00D61049008D107D
:101A000047004610440002104200C00F4000800F03
:101A10003E00420F3C00060F3B00CB0E3800930EF9
:101A200037005C0E3500270E3400F30D3200C10D77
:101A30003100900D3000600D2E00320D2D00050D8F
:101A40002C00D90C2B00AE0C2900850C29005C0C55
:101A50002700350C27000E0C2600E80B2400C40BD1
:101A60002400A00B23007D0B23005A0B2100390B0F
:101A70002100180B2000F80A1F00D90A1E00BB0A1B
:101A80001E009D0A1D00800A1D00630A1C00470AF3
:101A90001B002C0A1B00110A1A00F7091A00DD09A5
:101AA0001900C4091900AB091900920917007B0934
:101AB0001800630917004C091600360916002009A2
:101AC00016000A091500F5081500E0081400CC08F6
:101AD0001400B8081400A4081400900813007D082E
:101AE00012006B0813005808120046081200340850
:101AF0001100230811001208110001081100F0075D
:101B00001000E0071000D0071000C0071000B00759
:101B10000F00A107100091070E0083070F00740744
:101B20000F0065070E0057070E0049070E003B0720
:101B30000D002E070E0020070D0013070D000607ED
:101B40000D00F9060C00ED060D00E0060C00D406B1
:101B50000C00C8060C00BC060C00B0060C00A40665
:101B60000B0099060C008D060B0082060B00770611
:101B70000B006C060B0061060A0057060B004C06B2
:101B80000A0042060A0038060A002E060A00240649
:101B90000A001A060A001006090007060A00FD05D9
:101BA0000900F4050900EB050900E2050900D90563
:101BB0000900D0050900C7050900BE050900B505E3
:101BC0000800AD050800A50509009C05080094055E
:101BD00008008C050800840508007C0508007405D1
:101BE00008006C050700650508005D05070056053F
:101BF00008004E05070047050700400508003805A6
:101C00000700310507002A050700230507001C050A
:101C10000600160507000F05070008050600020567
:101C20000700FB040600F5040700EE040600E804C4
:101C30000600E2040700DB040600D5040600CF041A
:101C40000600C9040600C3040600BD040600B7046C
:101C50000600B1040500AC040600A6040600A004BA
:101C600005009B04060095040500900406008A0404
:101C7000050085040500800406007A04050075044B
:101C80000500700405006B0405006604050061048E
:101C900005005C04050057040500520405004D04CE
:101CA000050048040500430405003E0404003A040E
:101CB000050035040500300404002C040500270449
:101CC0000400230405001E0404001A040400160482
:101CD0000500110404000D040400090405000404B7
:101CE000040000040400FC030400F8030400F403EF
:101CF0000400F0030400EC030400E8030400E40320
:101D00000400E0030400DC030400D8030400D4034F
:101D10000400D0030400CC030400C8030300C5037F
:101D2000030024F404D9201BC40C5C0E9804C409DD
:101D30005F0265077101F405F900FB04B300480474
:101D40008700C10369005803550003034500BE0224
:101D50003A008402310053022A00290225000402BD
:101D60002000E4011C00C8011900AF011700980110
:101D70001400840113007101100061011000510171
:101D80000E0043010D0036010B002B010B0020015A
:101D90000B00150109000C01090003010800FB00FC
:101DA0000800F3000800EB000700E4000600DE0076
:101DB0000600D8000600D2000600CC000500C700CF
:101DC0000500C2000500BD000400B9000400B50014
:101DD0000400B1000400AD000400A9000400A50047
:101DE0000300A20003009F0004009B000300980072
:101DF00003009500020093000300900003008D0093
:101E000002008B00030088000200860002008400AC
:101E10000300810002007F0002007D0002007B00C1
:101E200002007900020077000100760002007400D1
:101E3000020072000100710002006F0002006D00DC
:101E400001006C0002006A000100690002006700E6
:101E500001006600010065000100640002006200EC
:101E6000010061000100600001005F0002005D00F0
:101E700001005C0001005B0001005A0001005900F4
:101E800001005800010057000100560001005500F4
:101E900001005400010053000000530001005200F3
:101EA000010051000100500001004F0001004E00F0
:101EB00000004E0001004D0001004C0001004B00ED
:101EC00000004B0001004A000100490001004800E9
:101ED00000004800010047000100460000004600E5
:101EE00001004500000045000100440001004300DE
:101EF00000004300010042000000420001004100D8
:101F0000000041000100400001003F0000003F00D0
:101F100001003E0000003E0001003D0000003D00C9
:101F200001003C0000003C0000003C0001003B00C0
:101F300000003B0001003A0000003A0001003900B7
:101F400000003900010038000000380000003800AF
:101F500001003700000037000100360000003600A5
:101F6000000036000100350000003500000035009B
:101F70000100340000003400000034000100330090
:101F80000000330000003300010032000000320086
:101F9000000032000100310000003100000031007B
:101FA00001003000000030000000300001002F0070
:101FB00000002F0000002F0000002F0001002E0065
:101FC00000002E0000002E0001002D0000002D005A
:101FD00000002D0000002D0001002C0000002C004E
:101FE00000002C0000002C0001002B0000002B0042
:101FF00000002B0000002B0001002A0000002A0036
:1020000000002A0000002A00010029000000290029
:10201000000029000000290000002900010028001C
:102020000000280000002800000028000000280010
:102030000100270000002700000027000000270003
:1020400000002700010026000000260000002600F6
:1020500000002600000026000100250000002500E9
:1020600000002500000025000000250000002500DC
:1020700001002400000024000000240000002400CF
:1020800000002400010023000000230000002300C2
:1020900000002300000023000000230000002300B4
:1020A00001002200000022000000220000002200A7
:1020B0000000220000002200010021000000210099
:1020C000000021000000210000002100000021008C
:1020D000000021000100200000002000000020007E
:1020E0000000200000002000000020000000200070
:1020F0000000200001001F0000001F0000001F0062
:1021000000001F0000001F0000001F0000001F0053
:1021100001001E0000001E0000001E0000001E0046
:102120000000043700001E290000511B0000581059
:10213000000010090000CC040000780200004101FA
:1021400000002062797465733B2063726320004E47
:102150006F20454550524F4D2E0A002052004545F4
:1021600050524F4D206461746173697A65206572C5
:10217000726F722E0A002073746F7265642073652B
:102180007474696E677320726574726965766564CC
:102190002028004572723A20454550524F4D204349
:1021A000524300202863616C63756C617465642917
:1021B000210A0020213D2000454550524F4D20432B
:1021C0005243206D69736D61746368202D202873FC
:1021D000746F7265642920004572723A204545503B
:1021E000524F4D20496E64657800496E6465783AB7
:1021F00020004572723A20454550524F4D20566599
:102200007273696F6E00204D61726C696E3D563756
:1022100036290A00454550524F4D20766572736944
:102220006F6E206D69736D61746368202845455039
:10223000524F4D3D0048617264636F646564204491
:10224000656661756C742053657474696E6773207C
:102250004C6F616465640A003B2000204900202027
:102260004D333031205000504944207365747469F7
:102270006E67733A0020460020480020204D31341C
:10228000352053004D6174657269616C2068656129
:1022900074757020706172616D65746572733A0057
:1022A00020204D323036205800486F6D65206F6613
:1022B000667365743A00204A0020204D3230352084
:1022C0004200416476616E6365643A20423C6D6908
:1022D0006E5F7365676D656E745F74696D655F755C
:1022E000733E20533C6D696E5F6665656472617410
:1022F000653E20543C6D696E5F74726176656C5FFB
:1023000066656564726174653E204A3C6A756E63F9
:102310005F6465763E0020540020204D323034202A
:102320005000416363656C65726174696F6E20284B
:10233000756E6974732F7332293A20503C7072693C
:102340006E745F616363656C3E20523C72657472AB
:102350006163745F616363656C3E20543C747261B9
:1023600076656C5F616363656C3E0020204D3230A2
:10237000312058004D6178696D756D20416363654A
:102380006C65726174696F6E2028756E6974732F45
:102390007332293A0020204D3230332058004D61ED
:1023A00078696D756D20666565647261746573200A
:1023B00028756E6974732F73293A005374657073AE
:1023C0002070657220756E69743A0020204D32309D
:1023D000302044300A0020204D323030204400208C
:1023E00044697361626C65640A0046696C616D657D
:1023F0006E742073657474696E67733A0020204DA3
:102400003134392043203B20556E69747320696E46
:102410002043656C736975730A0020286D6D29006F
:102420002020473231202020203B20556E697473D4
:1024300020696E206D6D00486F6D696E6720466182
:10244000696C6564000000FA430000FA430000A0D4
:10245000400000C8410000A0420000A0420000C8A7
:10246000430000BA42F4010000F4010000640000DF
:1024700000881300006F70656E206661696C65648A
:102480002C2046696C653A200020453A00205A3AD3
:102490000020593A003F0043616E63656C004D6F48
:1024A00074696F6E005374617274205072696E7437
:1024B0000043616E6E6F7420656E74657220737573
:1024C000626469723A2000022E2E00015265667223
:1024D000657368004D38340044697361626C65202F
:1024E00053746570706572730047323800417574BB
:1024F0006F20486F6D65006F70656E0054524947DC
:102500004745524544007A5F6D696E00795F6D6999
:102510006E00785F6D696E005265706F7274696EDF
:102520006720656E6473746F702073746174757363
:102530000A005761726E696E673A20486F6D696E66
:10254000672042756D702044697669736F72203C14
:1025500020310A0000000000000000000000000020
:1025600000006B4300006B4300007A430000A04171
:102570000000A041000080400202040000A04000D2
:1025800000A04000000040FFFFFF4A756E637469C1
:102590006F6E20446576004573746570732F6D6DA2
:1025A000005A73746570732F6D6D00597374657084
:1025B000732F6D6D005873746570732F6D6D0049C6
:1025C0006E6974004D34323800496E697469616C0B
:1025D000697A6520454550524F4D0046696C616DE2
:1025E000656E740053746570732F6D6D004A65726B
:1025F0006B00416363656C65726174696F6E005650
:10260000656C6F636974790053657420486F6D65FC
:10261000204F666673657473004572723A20757454
:10262000663820666F6E74206E6F7420696E6974F0
:1026300069616C697A65642E00000C0D00FE07026A
:102640002603BC017FFE08FE08FE05080806000000
:1026500040F0C88888987810050808060000C0F87F
:102660008888888888F80505050600012030F8303C
:10267000200508080600002070F820202020E00532
:1026800009090600FF2070A8A8B8888870200506F0
:1026900006060001E08CEA8C8A0A0509090600FF9B
:1026A000F8A88888888888A8F8050A0A0600FE2005
:1026B0005050505088A8A8887003030306000340B8
:1026C000A040FFFFFFFFFFFFFFFFFFFFFFFFFFFF38
:1026D000FFFFFFFFFFFFFFFF0000000605FF0107F0
:1026E00007060200808080808000800303030601CB
:1026F00005A0A0A005060606000050F85050F850AE
:102700000509090600FF2070A8A07028A870200500
:102710000707060000C8C81020409898050707065C
:10272000000040A0A040A8906801030306020580B5
:1027300080800309090601FF2040408080804040DE
:10274000200309090601FF804040202020404080EE
:1027500005070706000020A8702070A820050505C1
:102760000600012020F820200203030601FFC040DC
:1027700080050101060003F8020202060100C0C044
:1027800005070706000008101020404080050707D5
:10279000060000708898A8C8887003070706010023
:1027A00040C040404040E005070706000070880830
:1027B000102040F8050707060000F80810300888C8
:1027C0007005070706000010305090F8101005073C
:1027D00007060000F880F008088870050707060063
:1027E00000304080F0888870050707060000F80870
:1027F00010102020200507070600007088887088C8
:102800008870050707060000708888780810600245
:102810000505060100C0C000C0C00206060601FF93
:10282000C0C000C040800305050601012040804073
:1028300020050303060002F800F803050506010160
:102840008040204080050707060000708810202087
:1028500000200507070600007088B8A8B88070053A
:102860000707060000708888F8888888050707062B
:102870000000F04848704848F0050707060000705F
:10288000888080808870050707060000F048484867
:102890004848F0050707060000F88080F08080F8BF
:1028A000050707060000F88080F080808005070794
:1028B0000600007088808098887005070706000071
:1028C000888888F8888888030707060100E0404068
:1028D000404040E005070706000038101010109037
:1028E000600507070600008890A0C0A09088050733
:1028F00007060000808080808080F80507070600BA
:102900000088D8A888888888050707060000888876
:10291000C8A89888880507070600007088888888F6
:102920008870050707060000F08888F08080800521
:10293000070706000070888888A8906805070706C2
:102940000000F08888F0A090880507070600007056
:10295000888070088870050707060000F82020208E
:10296000202020050707060000888888888888704E
:10297000050707060000888888885050200507074B
:1029800006000088888888A8A85005070706000068
:1029900088885020508888050707060000888850DE
:1029A00020202020050707060000F808102040809E
:1029B000F80309090601FFE080808080808080E0C4
:1029C0000507070600008040402010100803090991
:1029D0000601FFE020202020202020E00503030640
:1029E00000052050880501010600FEF803030306D8
:1029F00001058040200505050600007008788878EC
:102A00000507070600008080F0888888F005050526
:102A1000060000708080887005070706000008081F
:102A200078888888780505050600007088F0807031
:102A3000050707060000304840E040404005070712
:102A40000600FE7088888878087005070706000071
:102A50008080F0888888880307070601004000C04E
:102A6000404040E00409090601FE1000301010103B
:102A700010906005070706000080808890E090882D
:102A8000030707060100C04040404040E00505053F
:102A9000060000D0A8A8A8A8050505060000B0C833
:102AA00088888805050506000070888888700507F5
:102AB000070600FEF0888888F0808005070706007A
:102AC000FE78888888780808050505060000B0C8E3
:102AD00080808005050506000078807008F00507F5
:102AE000070600002020F820202018050505060014
:102AF0000088888898680505050600008888885041
:102B0000200505050600008888A8A85005050506CB
:102B1000000088502050880507070600FE88888836
:102B200050204080050505060000F8102040F803FD
:102B300009090601FF204040408040404020010933
:102B4000090602FF808080808080808080030909E0
:102B50000601FF80404040204040408005030306BE
:102B6000000248A890FF5654726176204D696E00AD
:102B7000566D696E00566D6178204500566D61781E
:102B8000205A00566D6178205900566D61782058A2
:102B900000416D6178204500416D6178205A004107
:102BA0006D6178205900416D6178205800412D54A5
:102BB000726176656C00412D5265747261637400B8
:102BC000416363656C004D6564696120496E73659E
:102BD000727465640000C2E2A2DF11241FBECFEF51
:102BE000D0E4DEBFCDBF12E0A0E0B1E0ECE9F6EE4C
:102BF00001E00BBF02C007900D92A831B107D9F7D1
:102C000022E1A8E1B2E001C01D92A23DB207E1F7C6
:102C100015E1CCEED5E104C02197FE010E9492EFB0
:102C2000CB3ED107C9F70E949BD90C9441F30C9479
:102C300000002F923F924F925F926F927F928F92FD
:102C40009F92AF92BF92CF92DF92EF92FF920F933B
:102C50001F93CF93DF93CDB7DEB7EF970FB6F894FE
:102C6000DEBF0FBECDBF8FAF209122022DAF21E07E
:102C70002093220280914C0B8D3409F4ECC18435F1
:102C800011F40C94B826873411F00C94D3262091BB
:102C90004A0B30914B0B2430310509F415C14CF42B
:102CA00037FDD5C180916104223031050CF000C19F
:102CB0002AC02A35310509F455C154F425313105AE
:102CC00011F40C94D5262C31310509F43BC1BFC158
:102CD0002B35310509F44AC12C35310509F0B7C14E
:102CE00040E6242E41E0342E57E2E52E52E1F52E47
:102CF00027EA3EE03F8F2E8F67EBC62E6EE0D62E82
:102D000000E010E073C1813011F00C94D5260E94D0
:102D1000362C84E392E10E94B9C38091440983FD7B
:102D200088C02091B30E3091B40E4091B50E5091F1
:102D3000B60E6091401270914112809142129091B2
:102D400043120E94ADE8882309F473C08091910476
:102D500081111EC020E030E0A9016091940E7091B5
:102D6000950E8091960E9091970E0E94A4EF0E946E
:102D700010F120911701309118016217730744F484
:102D80000E94572E82E192E10E94312E11E001C093
:102D900010E02091B30E3091B40E4091B50E5091D9
:102DA000B60E609140127091411280914212909142
:102DB00043120E94A3EF6B017C0120E030E0A901E7
:102DC0000E9404F287FF04C0F7FAF094F7F8F09439
:102DD0002091130130911401409115015091160179
:102DE000C701B6010E9413E920E030E048E453E453
:102DF0000E9404F218163CF40E94572E83EF91E1D2
:102E00000E94312E02C01123A1F0809140129091B6
:102E10004112A0914212B09143128093B30E90934D
:102E2000B40EA093B50EB093B60E80E492E10E946A
:102E3000C5A92AE037ED43E25CE36091220170917D
:102E4000230180912401909125010E9413E96B01D7
:102E50007C0160911B0170911C01072E000C880BF6
:102E6000990B0E94B4E89B01AC01C701B6010E9416
:102E700013E969837A838B839C83C12CD12C7601DF
:102E80008E010F5F1F4F20E432E14CE352E168E313
:102E900072E184E392E10E940A5980E1E4E3F2E105
:102EA000A7EABEE001900D928A95E1F70C94D52631
:102EB000813011F00C94D5262230310509F080E0E4
:102EC0000E94408B0C94D52680E50E94292C8823F3
:102ED00029F00E94692B6B017C0103C0C12CD12C0D
:102EE000760183E50E94292C882361F00E94AD2B96
:102EF00020E030E04AE754E40E9413E90E9417F111
:102F00006B017C010E94F4BE80915C12811105C0AE
:102F100060E083EC92E00E94DCD30E946BD8C60E86
:102F2000D71EE81EF91E0E946BD8DC01CB018C195C
:102F30009D09AE09BF09B7FD02C00C94D5260E94B9
:102F4000EC30F1CF809133128770873011F00C9400
:102F5000DE2660E08FE40E94FB2C81110C94D526C4
:102F60000C94DE26109221020C94D5268FE08093DB
:102F700021020C94D5260E94AD2B2B013C0113306D
:102F800049F0F60120813181428153810E94A3EFF3
:102F90002B013C01AE8DBF8D2D913D914D915C91EA
:102FA000C301B2010E94A3EF4B015C012DEB37E39B
:102FB00046E855EB0E9404F287FD20C02DEB37E375
:102FC00046E855E3C501B4010E94ADE81816B4F017
:102FD0001F5FB4E0EB0EF11CEE8DFF8D3496FF8F7A
:102FE000EE8FF4E0CF0ED11C143039F1D1018D9168
:102FF0001D010E94292C882359F3BDCF133051F4B1
:103000004092B30E5092B40E6092B50E7092B60E0E
:1030100001E0DECFA5019401F70160817181828119
:1030200093810E94A4EFD7016D937D938D939C9320
:103030001397812F0E9499C3CBCF002321F083EBFC
:103040009EE00E94C5A90E942CC60C94D5260E9421
:10305000F17F0C94D52680914A0B90914B0B8237CF
:10306000910511F40C94A2210CF0E7C08B3491056A
:1030700009F4BEC40CF07AC08831910509F4C3C2CA
:103080000CF04AC08231910511F40C94C8206CF404
:1030900097FF02C00C94B526823091050CF41CC237
:1030A000419709F476C20C94B5268531910509F44F
:1030B0008DC22CF5449711F00C94B52687EF92E061
:1030C0000E94312E8CE19FE00E941E9E8BE1ECE17C
:1030D000FFE0DE01119601900D928A95E1F760E024
:1030E00070E0CE0101960E949D60CE0101960E9483
:1030F00012A088EE92E00E94312E0C94D5268631E3
:10310000910509F467C2479711F00C94B526E09138
:10311000480BF091490B6BC28D31910509F4F9C24E
:10312000B4F48A31910509F493C20CF478C28B315E
:10313000910509F49BC24C9711F00C94B52680912F
:10314000480B9091490B0E94325F0C94D5268F3129
:10315000910509F489C30CF4E3C28032910509F4A6
:1031600040C38A9709F42BC40C94B5268836910580
:1031700009F45BC4C4F58235910511F40C94BA20AE
:1031800004F58D34910509F44CC40CF435C4813533
:10319000910511F00C94B5260E94FE790E94F66606
:1031A0000E9404BF0E94CA2D68EE73E080E090E0A8
:1031B0000E94102D60E084EE93E00E94DCD30C941A
:1031C000D5268435910509F4E3C70CF4DAC78535B3
:1031D000910511F40C94F5208C35910511F40C94A3
:1031E00018210C94B5268D36910509F442C4ACF42F
:1031F0008A36910509F4E4C50CF4CEC58B369105E9
:1032000009F4FBC58C36910511F00C94B52610928B
:103210000A0A109212010C94D5268F36910509F4F2
:1032200005C60CF4F2C58037910509F443C6813711
:10323000910509F446C60C94B5268D3D910511F40F
:103240000C9439240CF0C9C08B39910509F46CC772
:103250000CF091C08737910511F40C94F3210CF018
:1032600077C08537910511F40C94A92114F00C94C2
:10327000B9218337910511F00C94B5268CE095E0C7
:103280000E94312E60E08CEF94E00E94579060E045
:1032900087EE94E00E94579061E084ED95E20E94F1
:1032A000579061E08CED94E00E94579061E08CECC7
:1032B00094E00E94579060E083EC94E00E94579065
:1032C00061E089EB94E00E94579060E08FEA94E01F
:1032D0000E94579060E087EA94E00E94579060E077
:1032E00089E994E00E94579060E08BE894E00E94A6
:1032F000579060E08CE794E00E94579060E08EE683
:1033000094E00E94579060E088E594E00E94579016
:1033100060E087E494E00E94579060E088E394E0E6
:103320000E94579060E083E294E00E94579061E031
:1033300080E194E00E94579060E083E094E00E9476
:10334000579060E08FEE93E00E9457900C94D52642
:103350008937910511F40C94FE2114F40C94F62194
:103360008C38910509F4CFC58139910511F40C947D
:1033700005220C94B5268C3C910511F40C94EF2297
:10338000C4F4883C910511F40C94602234F48E3B13
:10339000910509F4D9C50C94B526893C910511F421
:1033A0000C94AA228B3C910511F40C94CD220C9420
:1033B000B5268E3C910511F40C942E2314F40C9434
:1033C0002023833D910511F40C944C238C3D9105F1
:1033D00011F40C9412240C94B5268C3A31E0930726
:1033E00011F40C940B2694F58D3251E0950711F4ED
:1033F0000C9442259CF48232B1E09B0711F40C94AA
:10340000DA248C32E1E09E0711F40C942D25823EE3
:10341000910511F00C94B5260C948F248F32F1E0B5
:103420009F0711F40C94052614F40C94C1258039DF
:1034300031E0930711F40C9408268A39914011F079
:103440000C94B5260E94482D0C94D526883F51E057
:10345000950711F40C9479262CF5853FB1E09B0774
:1034600011F40C9473264CF4843F914011F00C94A9
:10347000B5260E94A5610C94D526863F21E09207CF
:1034800011F40C947626873F914011F00C94B526E8
:1034900061E083E50E94FB2C91E089270E9419AB33
:1034A0000C94D526803A43E0940709F4CFC13CF44C
:1034B0008C30924011F40C9489260C94B526873EEA
:1034C000B3E09B0711F40C949126893E934011F4CC
:1034D0000C949F260C94B52680E50E94292C882305
:1034E00029F00E94692B6B017C0103C0C12CD12CF7
:1034F000760183E50E94292C882361F00E94AD2B80
:1035000020E030E04AE754E40E9413E90E9417F1FA
:103510006B017C010E94F4BE8091480B9091490B95
:10352000009721F061E00E9430D405C060E08CEC8F
:1035300092E00E94DCD31091220283E08093220269
:1035400081E080930A0AC114D104E104F10431F04E
:103550000E946BD8C60ED71EE81EF91E80910A0A7B
:10356000882311F40C949228C114D104E104F104CD
:1035700011F40C948E280E946BD8DC01CB018C19BD
:103580009D09AE09BF09B7FF02C00C948E280C94A8
:1035900092288091440B84FF02C00C94992880915A
:1035A000460B87FF02C00C9499288091470B8370CB
:1035B00011F00C94992860E08FED92E00E94DCD32A
:1035C0005E985E9815985E980C94D5260E94AE5D24
:1035D0000C94D5260E94FB5C8091D910877F809344
:1035E000D9100C94D526803209F41082319680814E
:1035F0008111F9CF60E08091480B9091490B0E94B6
:103600007F5F0C94D5260E94CD2D882321F00E9447
:103610000A5D0E94C0660E94B77F0C94D5268091F7
:10362000D91082FF03C08B7F8093D9108091240B27
:10363000813089F782E08093240B0E946BD86093DD
:103640000D0A70930E0A80930F0A9093100AE3CF2D
:103650008091D91083FD02C00C94D52683E50E9489
:10366000292C81110C94AB280C94D52683E40E945C
:10367000E02B882319F182E193E00E94312E8091A2
:10368000C60E882391F0BE016F5F7F4F83EC9EE0F2
:103690000E94E59C8E010F5F1F4FD8018D918D0117
:1036A000882339F00E942A2EF8CF88E093E00E9408
:1036B000312E8AE00E942A2E0C94D5268091D910B2
:1036C00082FF21C081E293E00E94312E6091D510EB
:1036D0007091D6108091D7109091D8104AE00E9436
:1036E000272F8FE20E942A2E6091D1107091D21064
:1036F0008091D3109091D4104AE00E94272F0E940D
:10370000C5300C94D52683E393E00E94312E0C94AF
:10371000D5268091D9108E7F8093D9100C94D52610
:103720008091D91083FD02C00C94D5260E94DA7FC7
:103730008091D91083FD02C00C94D5264091480B8E
:103740005091490BBE01645E7F4F80E00E94C8B576
:103750008C01009711F40C94D5266C8D7D8D198207
:103760001C8222E0AC01CE0101960E9418A08111BA
:1037700002C0F12C14C0CE0101960E9436B58823F8
:10378000C1F361E0CE0101960E948D9C009789F300
:1037900025EEFC0120831C820E941598F82ECE0194
:1037A00001960E9412A0B801FF2089F08CE593E0F9
:1037B0000E94402E8AE00E942A2E1092D51010926C
:1037C000D6101092D7101092D8100C94D52684E4FD
:1037D00093E00E94402E88E591E20E94312E0C94E5
:1037E000D5268091D91082FD0E94F4BE8091D91017
:1037F00083FD02C00C94D52660E080E50E94FB2C7E
:10380000182F682F8091480B9091490B0E947F5F81
:1038100083E50E94292C882381F00E94792BAB013B
:10382000BC014093D5105093D6106093D71070937D
:10383000D81083EC9EE00E94089A0E940A5D111144
:103840000C94D5260E94C0660C94D5262091480B76
:103850003091490B9091D91092609093D910C90181
:103860000E94325F0C94D5260E9471667B018C0108
:1038700020E831E541E050E00E9403EFC9016DE628
:1038800071E00E944BEF4B015C01C801B70120E1E0
:103890003EE040E050E00E9403EFCA01B90128E198
:1038A00030E040E050E00E9403EF762E672EC62EF7
:1038B000D72E3CE3232E312C412C512CC801B701CB
:1038C000A20191010E9403EFF62EE72ECA01B90171
:1038D000A20191010E9403EFCB018E010F5F1F4FE8
:1038E0008114910499F0EF92FF927F936F936F92FE
:1038F0007F92BF92AF929F928F928AE693E09F93BE
:103900008F931F930F930E9445E813C0A114B10435
:10391000B1F0EF92FF927F936F936F927F92BF927D
:10392000AF928EE693E09F938F931F930F930E9425
:1039300045E80FB6F894DEBF0FBECDBF30C0CD282E
:1039400079F0EF92FF927F936F936F927F9282E76D
:1039500093E09F938F931F930F930E9445E8E9CFC5
:10396000892B69F0EF92FF927F936F9386E793E044
:103970009F938F931F930F930E9445E8DACFEF92A6
:10398000FF928AE793E09F938F931F930F930E9478
:1039900045E80F900F900F900F900F900F9060E000
:1039A000C8010E9430D40E94572EB8018EE793E0E0
:1039B0000E94402E8AE00E942A2E0C94D5266FEF9A
:1039C0007FEF80E50E94E82C8C0197FF02C00C94E9
:1039D000D526E82E60E089E40E94FB2C81110C942E
:1039E000BC28802F0E944FD98111B6C70C94BC28E7
:1039F0000E94C0660C94D5268091240B813011F072
:103A00000C94D52682E08093240B0E946BD860939F
:103A10000D0A70930E0A80930F0A9093100A0C946B
:103A2000D5260E94F6660C94D5268091440983FF22
:103A300002C00C94D5260E94DB2F87FF02C00C9495
:103A4000D52683E50E94292C882379F00E94AD2B8E
:103A50000E9410F1CB010E94B0770E94EB79811196
:103A600004C00E94F6660E94B77F0E9492E20C9406
:103A7000D5268091440983FF02C00C94D5260E946C
:103A8000DB2F89AB87FF02C00C94D52683E50E940B
:103A9000292C8AA3811106C082E50E94292C182FA7
:103AA000882389F10E94AD2B0E9410F1CB010E9466
:103AB000B0770E94EB79882311F40C94F9280E94C6
:103AC000C0666091980E7091990E072E000C880BBD
:103AD000990B0E94B4E86B017C018090940E909049
:103AE000950EA090960EB090970EA50194010E949D
:103AF00004F2181614F40C941929EAA1EE2311F417
:103B00000C94FF2811E00E9492E2112311F40C940E
:103B1000D52681E0809312011AA61BA61CA61DA61D
:103B20001DAA1EAA1FAA18AE1EA21AAEFCE3FBAF66
:103B30002CE12CAF36E43EAFD12CE12C20E8F22E64
:103B40000FEB41E049AF412C512C32016091980EAE
:103B50007091990E072E000C880B990B0E94B4E807
:103B60001B018E8F192F2D2D3E2D4F2D502F0E9472
:103B7000ADE88823E9F02091940E3091950E4091A4
:103B8000960E5091970E8AA1B101811109C08E8DB8
:103B9000912F0E94ADE8881F8827881F8EA30CC034
:103BA0008E8D912F0E94ADE887FDB6C21EA204C083
:103BB0002D2C3E2CFE8E102F0E946BD86B017C01A9
:103BC000DC01CB012DA93EA94FA958AD821B930B57
:103BD000A40BB50BB7FD33C0D701C60188519C4F6C
:103BE000AF4FBF4F8DAB9EABAFABB8AF89A90E94B3
:103BF000C0778DE993E00E94312E41145104610495
:103C00007104B9F0D301C201805F984DAF4FBF4F2F
:103C1000BC01CD016C197D098E099F0928EE33E0A6
:103C200040E050E00E9403EFCA01B9010E94B22FA8
:103C300003C08FE30E942A2E8AE00E942A2E0E944F
:103C4000EC300E946BD86093260B7093270B809307
:103C5000280B9093290B20E030E0A9016091940E8D
:103C60007091950E8091960E9091970E0E94A4EF00
:103C70006EA77FA788AB092F9B01482F592FB10151
:103C80008E8D912F0E94A3EF4B015C0120E030E06C
:103C9000A9010E9404F287FF04C0B7FAB094B7F8F4
:103CA000B0944114510461047104B1F420E030E097
:103CB00040E85FE3C501B4010E94ADE887FF18C08A
:103CC00099AD26013701992399F0A0E14A0EA7E2A8
:103CD0005A1E611C711C0CC020E030E040E450E42E
:103CE000C501B4010E9404F2181614F4260137012C
:103CF000BEA1BB23A1F12AA53BA54CA55DA521151D
:103D000031054105510541F0D701C601821B930BD6
:103D1000A40BB50BB7FD23C02EA53FA548A9502F76
:103D20006AAD7BAD8CAD9EAD0E94A3EF20E030E08C
:103D300040EC5FE30E94ADE887FDEEC1D701C6010C
:103D4000805A9541AF4FBF4F8AA79BA7ACA7BDA78D
:103D50009EA59AAFAFA5ABAFB8A9BCAF0EAF80918F
:103D60001201882309F4D8C141145104610471047B
:103D700031F419AED22CE32CFE8C012FE7CEE0E11A
:103D8000CE1AE7E2DE0AE108F108C418D508E60811
:103D9000F708F7FCEECFC0C10E94DB2F182F87FD7C
:103DA0000AC08DE897E10E94312E812F0E94C077D2
:103DB0008AE00E942A2EFDADF09322020C94372B4C
:103DC00080E50E94FF7F81110C94D52681E40E943A
:103DD000E02B882321F06091800470E002C06FEF37
:103DE00070E083E50E9444908F3F910519F010F038
:103DF0008FEF90E080938004D8C780E50E94FF7F1A
:103E00008111D3C710928004D0C78EE40E94292C60
:103E1000882309F4CAC70E94792B6093D10B709351
:103E2000D20B8093D30B9093D40BBFC783E50E9432
:103E3000E02B882329F083E50E94FF7F80934409CB
:103E40000E94572E8AEA93E00E94312E8091440905
:103E5000882369F19EE1E92E97E0F92E00E010E059
:103E600020E08091440990E0A0E0B0E0002E04C082
:103E7000B695A795979587950A94D2F780FF0EC0BF
:103E8000DD24D394D20E222319F08CE20E942A2E34
:103E9000F701859194910E94312E2D2D0F5F1F4FB8
:103EA00032E0E30EF11C05301105D9F602CC86EAAA
:103EB00093E0FDCB41E060E070E081EB93E00E9495
:103EC0005B2E83E50E94292C882371F00E94892BA8
:103ED000282F30E02D3331051CF48093000165C795
:103EE0008CE38093000161C70E94572E409100012E
:103EF00050E060E070E08FEB93E00E94942F8AE046
:103F00000E942A2E52C78091440983FD4EC783E543
:103F10000E94292C882379F00E94AD2B0E9410F179
:103F20006337710514F063E770E070936D0A609376
:103F30006C0A0E945D750E94EB79811136C70E9460
:103F4000F6660E94B77F31C78091440983FD2DC773
:103F500083E50E94292C88AB811106C082E50E946E
:103F6000292C882309F421C70E94AD2B0E9410F14F
:103F70006337710514F00C94DB2970936D0A60931C
:103F80006C0A0E945D750E94EB7981110E94C066E7
:103F900060916C0A70916D0A072E000C880B990BCA
:103FA0000E94B4E82091680A3091690A40916A0A37
:103FB00050916B0A0E9404F2181614F00C941C29FC
:103FC00085ED93E060E00E94DCD381E080931201F4
:103FD0001AA21BA21CA21DA219AA1AAA1BAA1CAAD9
:103FE0001E8E19AE4CE34AAF5CE15BAF86E48CAF4A
:103FF000C12CD12C00E8E02E8FEBF82E91E09DAB88
:10400000812C912C540160916C0A70916D0A072EDD
:10401000000C880B990B0E94B4E8162F072F782EFE
:10402000692E9601A7010E94ADE8882311F40C9433
:1040300029292091680A3091690A40916A0A5091B1
:104040006B0AA8A9612F702F872D962DA1110C94B2
:1040500020290E94ADE8881F8827881F8E8F0E9424
:104060006BD86B017C01DC01CB0129A93AA94BA9D2
:104070005CA9821B930BA40BB50BB7FD02C00C947B
:104080002F290E94EC300E946BD86093260B70930E
:10409000270B8093280B9093290B9091680A9EA37D
:1040A000A091690AAAA7B0916A0ABEA7E0916B0A1B
:1040B000EFA7292F3A2F4B2F5E2F612F702F872DBF
:1040C000962D0E94A3EF1B012C0120E030E0A901F6
:1040D0000E9404F287FF04C057FA509457F8509496
:1040E00081149104A104B10411F00C94732920E00F
:1040F00030E040E85FE3C201B1010E94ADE887FF14
:1041000002C00C9464293E8D31110C948329809156
:10411000120181110C94C12980911201882309F4A4
:1041200044C60E94B77F41C683E50E94292C88239C
:1041300009F43BC60E94892B182F90E0CD970CF014
:104140001CE310931C020E946BD86B017C01212F91
:1041500030E0A8EEB3E00E9430EFC60ED71EE81E96
:10416000F91EC0921802D0921902E0921A02F0923F
:104170001B021BC6809121028F7D806180932102EA
:1041800014C6809121028F7E8062809321020DC629
:1041900083E50E94292C882399F00E94AD2B20E012
:1041A00030E04AE754E40E9413E90E9417F160935B
:1041B0000101709302018093030190930401F5C5FE
:1041C0008091440B84FF02C00C94DF298091460B40
:1041D00087FF02C00C94DF298091470B837011F098
:1041E0000C94DF290E9404BFE0C583E50E94E02B08
:1041F000882309F4DAC50E946BD86093260B70936C
:10420000270B8093280B9093290B0E94AD2B20E065
:1042100030E04AE754E40E9413E90E9417F16093EA
:104220001D0270931E0280931F0290932002BDC551
:104230000E94DB2F87FDB9C59091440B94FD04C00B
:104240009091460B97FF0AC0B0E6CB2EB1E0DB2E73
:1042500015E4E12E19E0F12E10E009C09091470B12
:10426000937091F7682F81E00E948A309EC5D60135
:104270008D916D010E94292C882309F459C01330B7
:1042800009F04FC00E94AD2B4B015C0120E030E0F3
:1042900040EA51E40E94ADE887FF3AC0A5019401CD
:1042A000609165097091660980916709909168092C
:1042B0000E949EF02B013C019B01AC0160917509AD
:1042C0007091760980917709909178090E9413E99D
:1042D00060937509709376098093770990937809B4
:1042E00060917404709175048091760490917704C4
:1042F0000E94B2E8A30192010E9413E90E9417F103
:10430000609374047093750480937604909377049B
:104310008092650990926609A0926709B092680937
:1043200007C00E94AD2BF701648B758B868B978B32
:104330001F5FF4E0EF0EF11C143009F098CF0E94DB
:104340004FA933C50E94D3B280E59FE00E9461A1CE
:104350002CC58091480B9091490B009709F45BC9DB
:10436000DC012C91222309F456C960E00E9430D46C
:104370001CC50091480B1091490B94E0F12C40E0D2
:10438000915021F1F8018081282F2B7F213421F4D5
:1043900021812133D9F407C08035C1F48181805354
:1043A0008A3048F013C0813421F0853421F441E093
:1043B00002C0FF24F39498012E5F3F4F89012F5FC5
:1043C0003F4FF80180818032C9F3DACF41110E945A
:1043D000572EFF2021F08FEC95E00E94312EC8016E
:1043E0000E94CB30E2C40E94B1C6DFC481E080935A
:1043F000CC028093CB020E94CCC6D7C41092CC02D0
:104400001092CB020E94CCC6D0C460E070E083E57D
:104410000E94E82C8C011127023011053CF00E940B
:10442000532E83ED95E00E94312EBFC488E40E9494
:10443000292C8823A9F00E94792B6A3A71053CF057
:104440006530F1E07F072CF064E071E002C06AEAB9
:1044500070E0F801EE0FFF1FE958F34F718360839E
:1044600086E40E94292C882381F00E94792B77FD15
:1044700007C06F3F710529F024F06FEF70E001C0B5
:1044800060E0F801EF58F34F608382E40E94292C2A
:10449000882309F48AC40E94792B6530710534F0B1
:1044A000643771052CF063E770E002C065E070E0EE
:1044B000000F111FF801ED58F34F7183608375C42D
:1044C0000E94DB2F182F87FD70C484E40E94E02B2C
:1044D0008823E9F10E94AD2B6B017C0101E020E013
:1044E00030E0A9010E94ADE8811101C000E0009315
:1044F000441220E030E0A901C701B6010E94ADE8F6
:10450000882329F124E01202F0011124E75BFD4E1B
:10451000C082D182E282F38220E030E0A901609182
:10452000491270914A1280914B1290914C120E9444
:10453000ADE881110CC080E090E0A0EEBFE3809375
:10454000491290934A12A0934B12B0934C120E94BE
:104550005CBE2BC40E94DB2F87FD27C4E0E6EE2E55
:10456000E1E0FE2E05E419E0D7018D917D010E9466
:10457000E02B882359F00E94AD2B0E9417F1F8011F
:1045800060837183828393830E9408A90C5F1F4F0D
:10459000F9E005351F0741F708C40E94DB2F87FDAE
:1045A00004C460E6E62E61E0F62E05E419E075E548
:1045B000C72E79E0D72ED7018D917D010E94E02B87
:1045C000882339F00E94AD2BF80164A375A386A35C
:1045D00097A30C5F1F4FC016D10669F7E6C3809101
:1045E000450B87FD11C78091460B8E7009F00CC7F3
:1045F0004091790950917A0960917B0970917C0909
:1046000085EF95E00E94793040917D0950917E09B7
:1046100060917F09709180098BE591E20E94793069
:1046200040918109509182096091830970918409B8
:1046300086E193E20E9479308AE00E942A2EB5C377
:104640008091440B81FD26C78091450B81FD22C7D7
:104650008091460B8C7009F01DC7A7C35FECE52E57
:1046600052E0F52E10E088E5810F0E94E02B8823B0
:1046700059F00E94AD2BD7016D937D938D939C9340
:104680001397812F0E9499C31F5FB4E0EB0EF11CBA
:10469000133049F70C9423184090B70E5090B80E81
:1046A0006090B90E7090BA0E20914401309145018E
:1046B0004091460150914701C301B2010E94A4EF0D
:1046C0006E8F7F8F88A399A38090BB0E9090BC0EB5
:1046D000A090BD0EB090BE0E2091480130914901CE
:1046E00040914A0150914B01C501B4010E94A4EFD1
:1046F0006AA37BA38CA39DA3C090BF0ED090C00ED5
:10470000E090C10EF090C20E20914C0130914D010D
:1047100040914E0150914F01C701B6010E94A4EF94
:104720006EA37FA388A799A72091500130915101D2
:104730004091520150915301C301B2010E94A4EF74
:104740002B013C01209154013091550140915601BB
:1047500050915701C501B4010E94A4EF4B015C01C7
:10476000209158013091590140915A0150915B01BB
:10477000C701B6010E94A4EF6B017C010E94572E75
:1047800084E396E00E94312E83E50E94E02B88238B
:1047900021F00E949D2B80935C0180915C01882315
:1047A00019F082EF9AE002C088E095E00E94312E75
:1047B0008CE296E00E94312E4E8D5F8D68A179A12A
:1047C00081E793E20E9479304AA15BA16CA17DA1AF
:1047D0008EEA96E10E9479304EA15FA168A579A585
:1047E00087EA96E10E94793086E894E10E94312EB2
:1047F00084E296E00E94312EB301A20181E793E2A8
:104800000E947930B501A4018EEA96E10E947930C8
:10481000B701A60187EA96E10E9479308AE00E94FA
:104820002A2EC3C283E50E94292C882331F00E94DE
:10483000792B70931C0160931B018091440B909124
:10484000450BA091460BB091470B892B8A2B8B2BE4
:1048500009F0ABC260911B0170911C0184E496E0E9
:104860000E94CE2F85E20E942A2E8AE00E942A2EE4
:104870009CC20E94DB2FF82E87FD97C283E50E9421
:10488000292C0F2D0F2C000C110B882369F10E948D
:10489000792BF801EE0FFF1FE35AFE4F71836083FF
:1048A000000F111F000F111FF801ED5EFE4F7F0179
:1048B000072E000C880B990B0E94B4E82AE037ED14
:1048C00043E25CE30E9413E9F801EB5BFD4E2081BB
:1048D0003181428153810E9413E9D7016D937D9309
:1048E0008D939C93139761C20E94572E85E40E947A
:1048F0002A2E80E38F0D0E942A2EF801EE0FFF1F53
:10490000E35AFE4F6081718188E496E00E94CE2FC9
:1049100085E20E942A2E8AE00E942A2E46C280E565
:104920000E94E02B882309F440C260E070E080E53B
:104930000E94E82CF82E6FEF7FEF83E50E94E82CB1
:104940008C010196039708F030C2F7FC2EC28F2D20
:104950000E944FD9882339F00E94532E80E596E0BB
:104960000E94312E22C20E94F4BE60E08F2D0E9470
:104970006A820F3FBFEF1B0731F00130110571F064
:1049800000E010E00DC08F2D0E94128231E020E087
:10499000892B09F030E0032F122F02C001E010E054
:1049A0008F2D0E9412828017910709F4FEC10E9488
:1049B000EC30F6CF8AE50E94292C811105C083E5F1
:1049C0000E94292C8823E9F10E94AD2B20E030E0E1
:1049D00040E050EC0E94ADE887FDBAC50E94AD2BC7
:1049E00020E030E040E050E40E9404F218160CF49D
:1049F000AAC50E94AD2B2091CE022695269520FFB8
:104A000020C0209161093091620940916309509161
:104A100064090E9413E90E9410F12091AD023091C7
:104A2000AE02260F371F3093AE022093AD022091C5
:104A3000620A3091630A620F731F7093630A609376
:104A4000620A8091460B87FD88C58091470B837071
:104A500009F083C50E94572EA8C164E071E083E588
:104A60000E9444908C0168EE73E080E50E944490BF
:104A70008938E3E19E0710F088E893E1B8010E94CD
:104A8000566D93C185E40E94FF7F811173C080E55C
:104A90000E94E02B882351F00E94AD2B60939B0E67
:104AA00070939C0E80939D0E90939E0E89E40E94BD
:104AB000E02B882381F00E94AD2B2CEA35EC47E2F5
:104AC0005EE30E9413E960939F0E7093A00E8093A3
:104AD000A10E9093A20E84E40E94E02B882381F023
:104AE0000E94AD2B2CEA35EC47E25EE30E949EF07B
:104AF0006093A30E7093A40E8093A50E9093A60EC0
:104B00000E94572E40919B0E50919C0E60919D0EDD
:104B100070919E0E89E796E00E9479302CEA35EC80
:104B200047E25EE360919F0E7091A00E8091A10E0E
:104B30009091A20E0E949EF0AB01BC0185E796E029
:104B40000E9479302CEA35EC47E25EE36091A30ED7
:104B50007091A40E8091A50E9091A60E0E9413E96B
:104B6000AB01BC0181E796E00E9479308AE00E94A7
:104B70002A2E1BC10E94532E8FE596E00E94312EF3
:104B800014C183E50E94E02B182F882371F00E9446
:104B9000AD2B0E9410F1709318016093170121E072
:104BA000672B09F020E02093910480E50E94E02B20
:104BB000882359F02091170130911801232B11F00F
:104BC0000E949D2B80939104F0C01111EEC00E94B1
:104BD000572E86E996E00E94312E80919104882319
:104BE00019F08FEF9BE002C08DE796E00E94312E16
:104BF000609117017091180185E896E00E94CE2F10
:104C000081E896E00E94312ED0C00E94F384CDC08E
:104C10000E94F4BECAC09091331290FD02C087E09A
:104C200001C086E091FD8D7F9E012F5F3F4F1901EE
:104C300092FF99C48B7F09F0C3C404E515E247EAEB
:104C40005EE05F8F4E8F97E8C92E95E2D92E7901ED
:104C5000F8016591759185919491AE8DBF8D8D9080
:104C60009D90AD90BD90BF8FAE8FA50194010E9425
:104C7000A3EF2B013C01F70160837183828393834F
:104C800020E030E040EA51EC0E9404F287FD0AC0C7
:104C900020E030E040EA51E4C301B2010E94ADE8F7
:104CA00018162CF4F601849118160CF48CC4D70154
:104CB0008D909D90AD90BD907D0120E030E040EA68
:104CC00051ECC501B4010E9404F287FD87C420E0C5
:104CD00030E040EA51E4C501B4010E94ADE8181685
:104CE0000CF090C47BC40E9446B25FC00E9427AA09
:104CF0005CC02093700C0E942DAD1092700C882324
:104D000009F453C00E94572E87EF96E00E94312E7F
:104D10004CC08091D91082FF48C080648093D91024
:104D200044C081E0809361041092B11260E083E599
:104D30000E94FB2C811139C00E942F8936C00E942D
:104D400071666D3371058105910520F08AE197E068
:104D50000E94C1D886E197E00E94C1D882E097E026
:104D60000E94312E0E9404BF20C00E94F17F1DC00E
:104D700000914A0B10914B0B0023B9F00E94572E63
:104D800084E50E942A2EB8017727072E000C880B95
:104D9000990B0E94B22F80E20E942A2E8FE596E0A6
:104DA0000E94312E02C00E94F17FFFADF11102C0BE
:104DB0000E941F892DAD2093220259C40E94F4BE87
:104DC0008091220190912301A0912401B0912501AD
:104DD0008093250290932602A0932702B093280285
:104DE00080911B0190911C019093240280932302D7
:104DF00084E690E090931C0180931B0181E08093F6
:104E0000CC020E94CCC688E50E94E02BB82E89E532
:104E10000E94E02B182F8AE50E94E02BB1127BC183
:104E2000B81611F03B2C78C133243394BB24B394CF
:104E300031E03EA380E1E7EAFEE0A4E3B2E10190C5
:104E40000D928A95E1F782E50E94292C882369F06A
:104E50000E94AD2B6B017C0120E030E0A9010E9493
:104E6000ADE8882309F451C006C0C12CD12C70EAEA
:104E7000E72E70E4F72EB11003C0332009F421C1EE
:104E80008091CE0282FD09C06091AF0E7091B00E8C
:104E90008091B10E9091B20E03C060E070E0CB0142
:104EA000A70196010E94A4EF2B013C0160933C12E4
:104EB00070933D1280933E1290933F122091AF0E5B
:104EC0003091B00E4091B10E5091B20E0E9404F29A
:104ED0001816DCF419821A821B821C822091AB0EF8
:104EE0003091AC0E4091AD0E5091AE0E6091A70E78
:104EF0007091A80E8091A90E9091AA0EDE011196D4
:104F00006D01830172010E945AC4BB2009F4D4C010
:104F1000332009F4CEC01092A70E1092A80E109262
:104F2000A90E1092AA0E1092AB0E1092AC0E109217
:104F3000AD0E1092AE0E0E9419C5E7E8F5E2B491ED
:104F4000BEA7E0E6F5E2C590D590E590F490E4E6E2
:104F5000F5E285909590A590B490A5019401C701C4
:104F6000B6010E9404F218162CF4A7019601C5019F
:104F7000B40104C0A5019401C701B6010E949EF0CE
:104F80002B013C01E0E7F5E22591359145915491E3
:104F90002E8F3F8F48A359A3ECE6F5E285919591BA
:104FA000A591B4918AA39BA3ACA3BDA39C01AD0121
:104FB0006E8D7F8D88A199A10E9404F2181634F499
:104FC0002AA09BA19AA70CA11DA105C02E8CAF8D74
:104FD000AAA708A119A1A3019201C301B2010E94CD
:104FE00013E920E030E040E85FE30E94A4EF0E9474
:104FF00052F2222D3AA5A8010E9413E969837A830F
:105000008B839C83E8E8F5E214914090AF0E5090BA
:10501000B00E6090B10E7090B20E20E030E040EC27
:105020005FE3C501B4010E9413E94B015C01612FEC
:10503000110F770B880B990B0E94B4E89B01AC0110
:10504000C501B4010E9413E94B015C0120E030E08E
:1050500040EC5FE3C701B6010E9413E96B017C01DC
:10506000BEA56B2FBB0F770B880B990B0E94B4E882
:105070009B01AC01C701B6010E9413E9FE01319604
:105080006F0183017201A50194010E945AC40E941C
:1050900019AA1092A70E1092A80E1092A90E1092A3
:1050A000AA0E1092AB0E1092AC0E1092AD0E109292
:1050B000AE0E80E00E945BC5332019F081E00E94B3
:1050C0005BC5FEA1FF2319F082E00E945BC50E9430
:1050D00019C58091CB028093CC02809125029091DA
:1050E0002602A0912702B09128028093220190937A
:1050F0002301A0932401B093250180912302909174
:10510000240290931C0180931B0183E08093200173
:105110000E942CC64ACE312E8EA38CCE0E94EC303B
:105120000C94AE1A10920A0A109322020E94B77FC2
:105130003CCE88E50E94E02B81115E9889E50E94B3
:10514000E02B81115E988AE50E94E02B882309F408
:105150002CCE15982ACE0E94792BAB01BC0140932E
:10516000D5105093D6106093D7107093D81083EC5D
:105170009EE00E94089A19CE8DE40E94292C882373
:10518000D9F00E94892B813069F038F0823079F4AF
:1051900062E0802F0E946A8208CE60E0802F0E9429
:1051A0006A8203CE61E0802F0E946A82FECD8BE886
:1051B00093E00E94312EF9CD83E50E94292C8823AB
:1051C00009F4F3CD0E94892BF82EB4E0EB1203C052
:1051D00080938004EACD61E0802F0E946A826F2D67
:1051E000802F0E943B826F2D70E0802F0E94BFD7DE
:1051F000DCCD0E94F6660E94B77F0C94611DA5016C
:105200009401C701B6010E9404F2181694F08AECCA
:1052100093E09F938F9381EA93E09F938F931F92E4
:105220000E9415D40F900F900F900F900F900C9438
:10523000821D89ED93E0EDCF86EC93E00C94E21FA4
:105240000E94ADE887FF02C00C948C201E8E0C9447
:105250002F201C2D0D2D7E2C6F2C0C942F20D70170
:10526000C60188519C4FAF4FBF4F89AB9AABABABD8
:10527000BCAB80E00E94C0778DE993E00E94312EA4
:1052800081149104A104B104B9F0D501C401805F77
:10529000984DAF4FBF4FBC01CD016C197D098E09F0
:1052A0009F0928EE33E040E050E00E9403EFCA017E
:1052B000B9010E94B22F03C08FE30E942A2E8AE018
:1052C0000E942A2E0C944120FDA946015701FF237C
:1052D00011F40C94832020E1820E27E2921EA11C7F
:1052E000B11C0C94832020E030E040E450E4C20183
:1052F000B1010E9404F2181614F00C9483204601A8
:1053000057010C9483208AA19BA1ACA1BDA1892B3C
:105310008A2B8B2B71F0D701C6012AA13BA14CA18E
:105320005DA1821B930BA40BB50BB7FF02C00C94BD
:1053300087202EA13AA54EA55FA569AD7AAD8BADAC
:105340009CAD0E94A3EF20E030E040EC5FE30E94C0
:10535000ADE887FF02C00C948C20D701C601805AAB
:105360009541AF4FBF4F8AA39BA3ACA3BDA39EA102
:1053700099AFAAA5AAAFBEA5BBAFEFA5ECAF0C94A1
:10538000872081149104A104B10439F41DAAC12E0F
:10539000D02EE72CF62C0C940320F0E1CF1AF7E284
:1053A000DF0AE108F108C818D908EA08FB08F7FC89
:1053B000EDCF0C948C2063E770E00C94BD1F0E942D
:1053C000F4BE88E50E94E02B882331F05E9A80913C
:1053D000CE028E7F8093CE0289E50E94E02B882347
:1053E00031F05E9A8091CE028D7F8093CE028AE565
:1053F0000E94E02B882309F4D8CC159A8091CE0224
:105400008B7F8093CE02D1CC83E50E94292C882308
:1054100091F00E94AD2B6093790970937A09809383
:105420007B0990937C096093810970938209809332
:1054300083099093840980E50E94292C882351F0E8
:105440000E94AD2B6093790970937A0980937B0950
:1054500090937C0982E50E94292C882351F00E94B8
:10546000AD2B60937D0970937E0980937F099093A3
:10547000800984E50E94292C882309F496CC0E9497
:10548000AD2B609381097093820980938309909377
:1054900084098BCC82E40E94E02B882351F00E9487
:1054A000692B60935509709356098093570990931F
:1054B000580983E50E94E02B882351F00E94AD2B10
:1054C0006093850970938609809387099093880972
:1054D00084E50E94E02B882351F00E94AD2B60935D
:1054E000890970938A0980938B0990938C098AE4C7
:1054F0000E94E02B882309F458CC0E94AD2B6B014D
:105500007C012AE037ED43E25CE30E9404F287FD70
:1055100013C02AE939E949E95EE3C701B6010E94EF
:10552000ADE818164CF0C0926404D0926504E09285
:105530006604F092670439CC0E94532E85E096E011
:105540000E94312E32CC60E070E080E090E453CADB
:1055500060E070E080E090EC4ECA82E50E94E02BB3
:10556000811178CA22CC29EF31E081FF03C04BEFD3
:1055700051E002C04FE052E080FF03C08DEF91E0A8
:1055800002C08FE092E03F932F935F934F939F93DE
:105590008F9389EA96E09F938F933F922F920E9478
:1055A00045E80E94572EC1010E94CB3060E0C10146
:1055B0000E9430D40FB6F894DEBF0FBECDBFF5CB3E
:1055C0002FE032E0D2CFB7FAB094B7F8B094D70159
:1055D0008D929D92AD92BC92139769CB0E94532EEF
:1055E00089ED96E00E94312E61E08BEC96E00E94FE
:1055F000DCD30E94159368E270E088EC90E00E9492
:10560000566DD3CB0C5F1F4FBFEFCB1ADB0AE5E221
:1056100000361E0709F01CCB8FECE82E82E0F82E36
:1056200010E0F10181919191A191B1911F01F701D8
:1056300081939193A193B1937F01812F0E9499C38C
:105640001F5F133071F70E942CC660E08BEB96E071
:105650000E94DCD363E972E084E690E00E94566D1C
:105660006AEB72E084E690E00E94566D9ECBEF9666
:105670000FB6F894DEBF0FBECDBFDF91CF911F9163
:105680000F91FF90EF90DF90CF90BF90AF909F90E1
:105690008F907F906F905F904F903F902F900895E4
:1056A000282F80912102233021F485FD0EC084FD36
:1056B0000EC090E0A0E0B0E004C0B695A795979525
:1056C00087952A95D2F78170089581E0089580E04A
:1056D00008958091AB029091AC02009731F04AE0BE
:1056E00050E060E070E00C94CAE660E070E0CB014E
:1056F00008958091AB029091AC02009731F04AE09E
:1057000050E060E070E00C949CE560E070E0CB015C
:1057100008950E94792B97FD0CC00E94792B6F3F52
:1057200071058105910509F034F40E94792B862FCB
:10573000089580E008958FEF08958091AB029091D5
:10574000AC02892B39F00E94892B91E0811103C0B2
:1057500090E001C091E0892F08950F931F93CF939C
:105760008091AB029091AC020097F1F0FC018F01A7
:10577000C1912C2F2F7D89F0C53411F0C536B9F7B2
:10578000F801108260E070E00E9440E4F801C083FC
:10579000562F472F382F292F0BC060E070E0CF9194
:1057A0001F910F910C9440E450E040E030E020E085
:1057B000652F742F832F922FCF911F910F910895F2
:1057C00081548A3108F042C0E82FF0E04091440B48
:1057D0005091450B6091460B7091470B04C0769534
:1057E0006795579547958A95D2F7842F817040FF2A
:1057F0002FC0E65DF44F9081992309F1E091D30A1F
:10580000F091D40AE90FF11D908120ED290F2A3083
:1058100098F09E3211F491810CC09D3211F09B32B0
:1058200071F4918120ED290F2A3030F09E3239F445
:10583000928190539A3018F42E2F9F2F02C020E0AF
:1058400090E02093AB029093AC02089580E008951D
:1058500008950E94E02B882341F081E02091AB0263
:105860003091AC02232B09F480E008958F929F922F
:10587000AF92BF92CF92DF92EF92FF920F931F935E
:10588000CF9384E3E82E82E1F82E07EA1EE097EB3F
:10589000C92E9EE0D92EC0E088E58C0F0E94292CED
:1058A000882311F10E94AD2B4B015C018C2F0E94CB
:1058B000502B882351F0F80120813181428153819E
:1058C000C501B4010E94A4EF09C0F6012081318115
:1058D00042815381C501B4010E94A3EFF7016083A7
:1058E0007183828393830AC0F80180819181A281B0
:1058F000B381F70180839183A283B383CF5FF4E008
:10590000EF0EF11C0C5F1F4F84E0C80ED11CC3309A
:1059100019F685E40E94292C882301F10E94AD2B01
:105920006B017C0183E00E94502B882371F0209151
:10593000B30E3091B40E4091B50E5091B60EC70122
:10594000B6010E94A4EF6B017C01C0924012D0927C
:105950004112E0924212F092431210C08091B30EB5
:105960009091B40EA091B50EB091B60E80934012F6
:1059700090934112A0934212B093431286E40E9486
:10598000292C8823C9F00E94AD2B20E030E0A9012A
:105990000E9404F2181684F40E94AD2B20E030E03F
:1059A00040E752E40E949EF060932201709323012D
:1059B0008093240190932501CF911F910F91FF9027
:1059C000EF90DF90CF90BF90AF909F908F90089511
:1059D000CF93DF93D62FC72F0E94292C882329F03D
:1059E0000E94792B262F972F02C02D2F9C2F822FBC
:1059F000DF91CF910895CF93DF93C82FD62F0E94C8
:105A0000292C882321F0DF91CF910C949D2B8C2F92
:105A10000E94E02B811101C08D2FDF91CF9108955D
:105A2000CF92DF92EF92FF926B017C0183E3C81665
:105A3000D104E104F10470F082E3C81AD108E1084E
:105A4000F10862E370E080E090E00E9431D80E94AB
:105A50007F7BECCFC701B6010E9431D8FF90EF9059
:105A6000DF90CF900C947F7B5E9A8091CE028E7FE8
:105A70008093CE025E9A8091CE028D7F8093CE027B
:105A8000159A8091CE028B7F8093CE025E9A089504
:105A90004F925F926F927F928F929F92AF92BF923E
:105AA000CF92DF92EF92FF920E9442C1F82E809136
:105AB0003B0F80933A0F8093390F8093380F84E621
:105AC0008093370F0E94FAA888EE93E090934309E1
:105AD00080934209F1100E944FC181E08093060C2F
